:020000041000EA
:1000000000B5324B212058609868022188439860DF
:10001000D860186158612E4B002199600421596104
:100020000121F02299502B49196001219960352056
:1000300000F044F80222904214D00621196600F024
:1000400034F8196E01211966002018661A6600F04E
:100050002CF8196E196E196E052000F02FF8012189
:100060000842F9D1002199601B49196000215960AB
:100070001A491B48016001219960EB211966A021F2
:10008000196600F012F800219960164914480160C1
:100090000121996001BC002800D000471248134993
:1000A000086003C880F30888084703B5996A0420EC
:1000B0000142FBD001200142F8D103BD02B5186610
:1000C0001866FFF7F2FF186E186E02BD00000240BE
:1000D000000000180000070000035F00212200005C
:1000E000F4000018222000A00001001008ED00E03C
:1000F000000000000000000000000000070B8FD58A
:1001000000200420F7010010CB010010CD010010E9
:10011000C9010010C9010010C9010010C901001077
:10012000C9010010C9010010C9010010CF01001061
:10013000C9010010C9010010D1010010D301001045
:10014000C1010010C1010010C1010010C101001067
:10015000C1010010C1010010C1010010C101001057
:10016000C1010010C1010010C1010010C101001047
:10017000C1010010C1010010C1010010C101001037
:10018000C1010010C1010010C1010010C101001027
:10019000C1010010C1010010C1010010C101001017
:1001A000C1010010C1010010C1010010C101001007
:1001B000C1010010C1010010C1010010C1010010F7
:1001C000EFF30580103800BE00BE00BE00BE00BECA
:1001D00000BE00BEF2EB887150A1001078A10010A3
:1001E0003802001090A31AE71E481F49086006C88D
:1001F00081F3088810471D480068002801D019487D
:10020000F3E70DA40ECC002902D000F012F8F9E7B4
:100210001749184A002000E001C19142FCD116495B
:100220008847164988471649884700BEFDE701C937
:1002300001C29A42FBD3704778A10010C000002091
:1002400028100020E0B0001000000420000004206E
:10025000E0B0001000100420001004200000000096
:10026000704700000000000008ED00E0000000D032
:1002700028100020D0A90020F533001059030010E9
:10028000ED330010F8B5C04606480749091A8B102F
:10029000C90FC91810B5491003D0044B002B00D06A
:1002A000984710BD281000202810002000000000F2
:1002B000054B10B5002B03D00449054800E000BFF2
:1002C000FFF7E2FF10BDC04600000000641E0020E2
:1002D000909B001070B504001A4808F073FB002CC6
:1002E00007D0A06C002804D0642106F05DFB012833
:1002F00003D0002008F0EAF970BD03F089FD051E67
:1003000013D120000C2210491D3003F047F82000C3
:1003100010220E49313003F041F800230022002161
:10032000A06C257105F092FFE3E720000B2208493D
:100330001D3003F033F820000C220649313003F061
:100340002DF8EAE7DC050000A89B0010B49B001024
:10035000909B00109C9B001070B582B003F042F996
:10036000012006F00FF9002832D00025194C1A4B55
:1003700017221A49A0641A482360257109F0E4FA8B
:100380000E2218491848257703F008F80D2217495E
:10039000174803F003F800F0ABFB200000F0E0F991
:1003A000200000F0DDFA200000F03AF90600A84233
:1003B0000FD0012380220F4900930F48230001959D
:1003C00008F0B4F8300000F03DF808F0E5F8FEE77A
:1003D000FEE7FEE75C1F0020580F0020C49B0010C2
:1003E000611F0020C89B0010791F0020D89B0010BF
:1003F0008D1F0020E89B0010D502001000B50F4BA8
:1004000085B01868002816D00023D022012103935C
:10041000120652680093D204D20F4A4003A90191F8
:100420000333002108F08AFD039B002B03D08022B8
:10043000034B52051A6005B000BDC046581F00208E
:1004400004ED00E00B4B10B518600C2001F0BAF978
:10045000D02380221B0652019A62012100220C2027
:1004600001F046F901220C210C20034B01F052F956
:1004700010BDC046581F0020FD030010F0B54E46C9
:100480004546DE465746E0B55E4B8DB09B46431D64
:1004900005935D4B0A2408931D231B1803935B4BA4
:1004A0000600049331231B180293594B0BAD994658
:1004B000584B0993584B0693584B0793D0231B0670
:1004C000984601220021002000940AAB524208F015
:1004D0006BFC01280AD00021002004F033FD002825
:1004E000EFD02900002004F03FFDF4E7133008F0BE
:1004F00069FA43465A6880235B011A40924603F02A
:1005000087FC071E29D05346002B4AD15B461B8827
:100510002A002B805B469B780021AB7000200323D0
:1005200004F05CFD002ED6D0B06C0028D3D00A2198
:1005300006F03AFA0128CED152463368089F1A6075
:1005400039000B223071059802F028FF0B22049924
:10055000039802F023FF0B2248E0002EBBD0B06CC2
:100560000028B8D03368002BB5D00A2106F01CFA59
:100570000128B0D152463368D204D20F1A600699CE
:100580000C220398377102F009FF07991022029894
:1005900002F004FF3B003A003900B06C05F056FE53
:1005A00099E74B461B882A002B804B469B780021FD
:1005B000AB700020032304F011FD002E8BD0B06C33
:1005C000002888D00A2106F0EFF9012883D133688A
:1005D000099F18600C2239003071059802F0DEFE88
:1005E0000B220499039802F0D9FE0C2239000298DC
:1005F00002F0D4FE0023B06C1A00190005F026FEAC
:1006000069E7C046089C0010F09B0010909B00100A
:100610000C9C0010FC9B0010A89B0010B49B0010C9
:1006200010B584B003AC00220194052403928032FB
:100630000300044900945200034807F077FF039831
:1006400004B010BD109C00107D040010F8B5CE461B
:100650004746814680B5102001F0B4F88026D023AB
:1006600076021B065E6201235B4298464B46002BD6
:100670002FD04B46986C002838D0142106F094F9FE
:10068000012842D04346012B5AD001230027984627
:10069000D02517242D0606E001200021AE6101F0CF
:1006A00093FF013C0FD30123A3406E611F42F3D09F
:1006B0000120002101F088FF01200021AE6101F03E
:1006C00083FF013CEFD2322008F07CF94B46002B2F
:1006D000CFD14346012BD8D1322008F073F9322014
:1006E00008F070F9322008F06DF9F8E74346012B65
:1006F000CBD1322008F066F94B46986C0028F8D030
:10070000142106F051F90128BCD14B464A461B681A
:10071000906C002B0DD01C6800220023002105F0F6
:1007200095FD444512D0002C14D100230B4F984660
:10073000AEE70022002105F089FD4346012BA4D13C
:10074000322008F03FF90123984692E7322008F062
:1007500039F98EE7A04600279AE7C04640FF00001F
:10076000002200B583B001920232030000920349D7
:100770007E32034807F0DAFE03B000BD189C00107B
:100780004D060010F0B5DE464E4657464546E0B5EC
:1007900099B081461422002104A802F0F9FD142228
:1007A000002109A802F0F4FD0F230E220B210A20DC
:1007B0000093023B00F0B0F9372000F031FB4B46CC
:1007C0000EAC002B73D00FAB9846624B14AF9A4619
:1007D000614B624E9B461D234B44029331234B4495
:1007E00003934B4613ADB9461F0038E0200004A91F
:1007F00009F0DAF8002805D1280009A909F0D4F891
:10080000002829D01322210004A809F09DF8132202
:10081000290009A809F098F800F0B8FB0021002091
:1008200000F094FC504600F09BFC0121002000F0F9
:100830008DFC584600F094FC0221002000F086FC5C
:10084000200000F08DFC0321002000F07FFC280038
:1008500000F086FC00F0AEFBC82008F0B3F81022D0
:1008600000214046266002F093FD102200214846F8
:100870002E6002F08DFDB86C0028B7D0322106F052
:1008800093F80128B2D102991322200009F05CF8F4
:1008900000220399E2742800132209F055F800237E
:1008A00000220021B86CEB7405F0D0FC9EE70FAB82
:1008B0009846284B14AF9A46274B284E9B463B0040
:1008C0004746984613AD102200213800266002F0FA
:1008D0005FFD0021102240462E6002F059FD2000ED
:1008E00004A909F061F8002805D1280009A909F038
:1008F0005BF8002829D01322210004A809F024F86D
:100900001322290009A809F01FF800F03FFB00217D
:10091000002000F01BFC504600F022FC01210020CA
:1009200000F014FC584600F01BFC0221002000F0EF
:100930000DFC200000F014FC0321002000F006FC58
:10094000280000F00DFC00F035FBC82008F03AF854
:10095000B9E7C0461C9C0010289C00102D2D2D00CE
:1009600010B50024802282B00194013403000449B0
:1009700000945200034807F0D9FD02B010BDC046F4
:10098000349C001085070010004870478C9E0010B2
:1009900000487047E49D001010B5022800D16AE0BD
:1009A00019D8002811D052233E4843803E4B436063
:1009B0003E4B83603E4BC3603E4B03613E4B436105
:1009C000692303833D4B038010BD3D4B3548438075
:1009D000063BFF3BF7E703285FD13A4C2378002B17
:1009E00056D0200009F024F8031E58D02D48227854
:1009F0004280012B39D062788280022B35D0A278D8
:100A0000C280032B31D0E2780281042B2DD02279D1
:100A10004281052B29D062798281062B25D0A279CB
:100A2000C281072B21D0E2790282082B1DD0227AC5
:100A30004282092B19D0627A82820A2B15D0A27ABF
:100A4000C2820B2B11D0E27A02830C2B0DD0227BB9
:100A500042830D2B09D0627B82830E2B05D0A27BB3
:100A6000C283102B01D1E27B0284C02201335B00E0
:100A700092001343A7E70B48134A0400831C263453
:100A80001178013219800233A342F9D10F4B9AE752
:100A90001121200002F010FFA3E7002094E70C4B87
:100AA000004890E728150020610073007000620084
:100AB0006500720072007900200050001A030000E7
:100AC00009040000381400203C9C0010260300009C
:100AD000020300000021002010B504F0C7FC012033
:100AE0000021404203F01CFA012007F06BFFF6E7FB
:100AF0000023802200B583B001930733009304499B
:100B000000235200034807F011FD03B000BDC046AA
:100B1000509C0010D50A0010F8B5DE4657464E46E8
:100B20004546E0B5B64D0AAC2970B64926788946E7
:100B30000A70B54AB54C1370B54B90469A461E7074
:100B4000207000F03FFE287800F03CFE4B461878FD
:100B500000F038FE4346187800F034FE5346012773
:100B6000187800F02FFE3A002378D0269A403606F7
:100B700072623A002B7839009A404B4672623A0012
:100B80001B780A209A40434672623A001B789A40CA
:100B9000534672621B78994071627261B16101F0D3
:100BA00049FD53463A001B780A209A40726101F0D1
:100BB00041FD4B463A001B789A404346B2611B7890
:100BC0009F4007239A461A33B7619B46012710E0DE
:100BD00073610120002101F0F7FC3A002378012025
:100BE0009A400021726101F0EFFC5346013B0FD3A4
:100BF0009A463A00237851469A40B2613A002B78DF
:100C00009A4013005A460A411742E1D1B361E0E726
:100C100043461A780123190091400A00D0210906A1
:100C20004A618A464946097807278B4051468B61BD
:100C3000142301269B468A6111E05246536101202C
:100C4000002101F0C1FC3200237801209A401300FA
:100C500052460021536101F0B7FC013F10D332002E
:100C600023789A4013005246936132002B789A40C1
:100C700013005A463A411642DFD152469361DEE7ED
:100C800043461A780123190091400A00D021090631
:100C90004A618A464946097807278B4051468B614D
:100CA000B52301269B468A6111E05246536101201B
:100CB000002101F089FC3200237801209A401300C2
:100CC00052460021536101F07FFC013F10D33200F6
:100CD00023789A4013005246936132002B789A4051
:100CE00013005A463A411642DFD152469361DEE77D
:100CF00043461A780123190091400A00D0210906C1
:100D00004A618A464946097807278B4051468B61DC
:100D1000202301269B468A6111E05246536101203F
:100D2000002101F051FC3200237801209A40130089
:100D300052460021536101F047FC013F10D33200BD
:100D400023789A4013005246936132002B789A40E0
:100D500013005A463A411642DFD152469361DEE70C
:100D600043461A780123190091400A00D021090650
:100D70004A618A464946097807278B4051468B616C
:100D80000C23012699468A6111E0524653610120E5
:100D9000002101F019FC3200237801209A40130051
:100DA00052460021536101F00FFC013F10D3320085
:100DB00023789A4013005246936132002B789A4070
:100DC00013004A463A411642DFD152469361DEE7AC
:100DD00043461A7801239340D02212065361FC2225
:100DE000002152000B4802F0D3FA00220A4B1A707D
:100DF0000A4B1A70F0BCBB46B246A946A046F8BDE5
:100E0000C9A90020C8A90020C5A90020CBA900209D
:100E1000CAA900206C150020C6A90020C7A900207F
:100E2000F0B557464E464546DE46E0B5534BD02713
:100E30001A789B4601231900914083B0504A3F061F
:100E40000190B9619246127807269340BB614D4BE1
:100E50000125984621234C4C99460EE07B610120E8
:100E6000002101F0B1FB2A00237801209A400021E3
:100E70007A6101F0A9FB013E0ED32A0023789A4043
:100E80004346BA612A001B789A4013004A46324111
:100E90001542E3D1BB61E2E753461A7801231900FA
:100EA000D02791403F0679610A0059460978072604
:100EB0008B40BB618023BA61019A01251A43914698
:100EC0000EE07B610120002101F07EFB2A002378E7
:100ED00001209A4000217A6101F076FB013E0ED399
:100EE0002A0023789A404346BA612A001B789A4028
:100EF00013004A4632411542E3D1BB61E2E7534653
:100F00001A7801231900D02791403F0679610A0021
:100F10005946097807268B40BB6120230125994655
:100F2000BA610EE07B610120002101F04DFB2A0037
:100F3000237801209A4000217A6101F045FB013EAF
:100F40000ED32A0023789A404346BA612A001B78C0
:100F50009A4013004A4632411542E3D1BB61E2E7B1
:100F600053461A7801239340D0221206536103B0EE
:100F7000F0BCBB46B246A946A046F0BDC8A90020B9
:100F8000C5A90020C9A90020CBA90020FC2210B5CA
:100F900052000021044802F0FBF90022034B1A70B2
:100FA000034B1A7010BDC0466C150020C6A9002066
:100FB000C7A90020F0B54E46DE4657464546E0B587
:100FC0005D4A85B00192002203925C4AD0260292CB
:100FD0005B4A012491465B4B5B4F9B461B78360670
:100FE0002100039A07259246029A12789140220026
:100FF0009A408023B1619846B2610EE0736101208E
:10100000002101F0E1FA22003B7801209A40002102
:10101000726101F0D9FA013D0ED322003B789A406B
:101020004B46B26122001B789A40130042462A4187
:101030001442E3D1B361E2E75B4622001B78210052
:101040009A4072611300029A072512789140524625
:10105000B161B36140231A43D3B298460EE0736185
:101060000120002101F0B0FA22003B7801209A40D3
:101070000021726101F0A8FA013D0ED322003B78F5
:101080009A404B46B26122001B789A4013004246B8
:101090002A411442E3D1B361E2E75B4622001B78A8
:1010A00054219A407261019A49425218924652461E
:1010B0002100127807259046029A1278914022006A
:1010C0009A407161B2610EE073610120002101F06C
:1010D0007BFA22003B7801209A400021726101F0E6
:1010E00073FA013D0ED322003B789A404B46B26121
:1010F00022001B789A40130042462A411442E3D151
:10110000B361E2E75B4622001B789A4072610122DC
:101110009244019A5245CAD11100039A54310132C6
:1011200003920191062A00D05AE705B0F0BCBB46F5
:10113000B246A946A046F0BDC0150020C8A90020AF
:10114000C9A90020C5A90020CBA90020024B187016
:10115000024B19707047C046C6A90020C7A90020DD
:10116000F0B5DE4657464E464546E0B5017885B0B7
:10117000002932D000259E4C0195A14623780C0011
:101180009C4D9D4A02959D4D9246127803950A2CDE
:101190002DD10132D2B2052A00D8B4E04278431CE6
:1011A000002A00D101E10A2A00D077E084780230D9
:1011B000002C00D1FFE00A2C16D1012344780193C2
:1011C000013002220023002CE1D101994C46D44683
:1011D000002901D061460A70237005B0F0BCBB46FF
:1011E000B246A946A046F0BD0023093A0192002666
:1011F00000273A25203CE1B28D427E4171422140D8
:1012000054245443A4465C1CE4B2532B19D9532CE8
:1012100031D8FC24FF236400A44500DAA7E0DC1CDD
:10122000E4B2542C00D091E051230633DBB2447871
:101230000130002CABD101994C46D4460029C9D1CC
:10124000CAE71D00FC2665442F007600B54251DB3D
:10125000542C31D11C1DE4B2532CE6D8FC25644437
:101260006D00AC42E1DA039D8E00711869180979AE
:10127000029D2955D9E765469C1CE4B26619532C9A
:1012800000D99FE0FC235B009E4255DB63465E1C59
:10129000FC235B009E427DDBFA3BC6E7203AD1B2DD
:1012A0003A291ED90021534A180011700023012247
:1012B000012401929C4600226444A046FC24640060
:1012C000A04524DA8D00AB4645464C4C8B445C442B
:1012D0006478484E74559C1CE4B2542C1BD15223A4
:1012E000A3E71100180001220023019201249C466B
:1012F000002200278D00A846884445463F4EAE5D3B
:101300003C4DEE55A4E70123019300238FE79C1C7D
:10131000E4B2542CE3D06444A046FC246400A0450D
:1013200000DB7CE78D00AB464546344C8B445C4487
:10133000304EA478745572E78D00A8462F4B884430
:1013400043442C4C9B78A3550124FE236444A046BF
:10135000FC246400A04500DB7CE78D00AB464546DD
:10136000264C8B445C44234EE478745572E78D0020
:10137000A846224B884443445D781E4E2F006546A4
:10138000775501256544A54201DA9B7873550224FF
:10139000FF23DBE78D00A846184B88444344154CD7
:1013A000DB78A355FE23022458E7D44661464C4619
:1013B00000230A7010E7D446012261464C46002300
:1013C0000A7009E7DC1CE4B26619532C00D941E726
:1013D000FC235B009E4201DBFB3B26E705254D43DA
:1013E000064B044C5B19DB78A355FD23012435E73C
:1013F000C6A900206C150020C7A90020A09E0010DF
:10140000D0231B061B68F0B5A94ADE464E4645466A
:1014100057469900884651585A4253412F22E0B509
:101420005B429343A34A83B09B189B4600260191DD
:10143000002939D0A04B0F279A465A46F3080833A3
:101440009B009D580123340099460836002D22D078
:10145000390029402D0900291AD0534642469A588E
:101460002300E240203BDB1713404A4613420DD1D4
:10147000072208002240920090400200E3088F48B3
:101480003C339B001A502000019B9847002D02D04E
:101490000134B442DCD3202ECFD103B0F0BCBB4624
:1014A000B246A946A046F0BD0F23834A0192CC085C
:1014B000220058460F000832920012580837002ABE
:1014C00000D1CDE0180010408446100913421AD014
:1014D0004546019E7559AA4620256D42A946894474
:1014E0004D46ED17A9465546CD402E004D46354098
:1014F0000126354204D16646704D3C34A400665145
:10150000002800D1ACE01C000440A446140A0342A9
:1015100019D0481C81464046019D4E46285805007A
:101520000800F5401F38C01728400125284207D180
:1015300065462D01F0082E003C30604D800046517C
:10154000002C00D18CE0180020408446100B234270
:1015500011D08C1CA1464446019D4E462C592500B5
:101560000C00F5401E3CE4172C4001252C4200D114
:1015700081E0002874D01C000440A446140C0342EF
:1015800010D0C81C81464046019D4E462858050093
:101590000800F5401D38C01728400125284273D0A7
:1015A000002C5DD0180020408146100D23420ED043
:1015B0000C1DA4464546404C64596546EC40250048
:1015C0000C001C3CE40F2C4267D0002848D01C00C3
:1015D0000440A446140E034217D0481D81464546D8
:1015E000354840594D46E840050008001B38C00FFB
:1015F000284208D1654648462D052E00C0082F4DCB
:101600003C3080004651002C2AD0180020408446EF
:10161000120F234229D0454627488C1D8246405947
:10162000E040050008001A38C00F284206D1E00843
:101630006446224D3C302406800044510731002A84
:101640000ED05046444604590800CC402038C00F04
:10165000204205D1C90819483C31120789000A50B7
:10166000202F00D119E7390021E7002AF8D01248CD
:1016700007318246E5E765462D02F4082E003C342A
:101680000E4DA400665174E765462D03F0082E0048
:101690003C300A4D8000465182E74D4664462D0499
:1016A0002E00E408054D3C34A40066518DE7C04689
:1016B0000C1A002030410140481F0020004001402A
:1016C00010B54024074A83009A181268C00054409D
:1016D000C0222240044C1B191A60044BC018416000
:1016E00010BDC04604C0014004D00140004001408C
:1016F000064B8000C3181B68C90092000A435A4079
:101700000C231340024A80180360704704C0014054
:1017100004D00140F0B54F464646D646C0B5D02766
:101720003F0688469A4619003B68224E9D00914626
:1017300072590400002A2DD0002935D0524672512A
:101740005A4253412F225B4293431B4A40469B1807
:101750000722224092009040E10802000800890020
:101760005B184946154C3C308000025100290CD0D2
:10177000802189015B180D2001211A6000F02AF9EF
:10178000E0BCBA46B146A846F0BDC02189015B184D
:101790001A60F5E70029D3D0715100220D200849C5
:1017A00000F060F93B68CBE70D20054900F040FAF6
:1017B0003B68C3E70C1A0020304101400040014063
:1017C000011400100123D02283401206936293611A
:1017D000084A83009A1811684022514080320A401A
:1017E0000549C0005B181A60044BC018052343600C
:1017F0007047C04604C0014004D001400040014091
:101800008023DB051868000F7047C0460FB400B591
:10181000084883B001F036FF049B002B07D005A9D0
:101820001800019101F0C8FD034801F02BFF0120D1
:1018300001F0DAFD549C0010649C001010B50148C2
:10184000FFF7E4FF689C001070B58C461600EFF3BC
:10185000108472B60F490B68002BFCD0BFF35F8F6A
:101860006346DB08C5180722C05C63461A400123A3
:1018700093401A000240034207D118432870BFF377
:101880005F8F0A6084F3108870BD61463000FFF7F7
:10189000BDFFC0462C0100D0F8B5CE4647468C4669
:1018A00080B51C00EFF3108872B61C490B68002B42
:1018B000FCD0BFF35F8FA24221D80723994602E0F4
:1018C0000132944218D34946012611408E40D30874
:1018D000C718C35C1E42F3D1100033433B70BFF303
:1018E0005F8F00220D4B1A6088F3108800280EDBF2
:1018F000C0BCB946B046F8BD01204042EFE7BFF397
:101900005F8F00230B6088F31088012040426346FC
:10191000002BEDD00898FFF779FFC0462C0100D0CE
:10192000044A1078431CDBB2172B00D91023137024
:101930007047C0465C0F002010B50100024A034802
:10194000FFF782FF10BDC046789C00101C1A0020D3
:1019500000B5054B83B00100009318221F230348F4
:10196000FFF79AFF03B000BD989C00101C1A0020DE
:101970000021044B044ABFF35F8F02C39342FAD1A4
:101980007047C046000100D0800100D0084B094AD2
:101990001360094A1360094A1360094A1360094A2F
:1019A0001360094A1360094A1360094A13607047BB
:1019B0008080808000E400E004E400E008E400E0CF
:1019C0000CE400E010E400E014E400E018E400E0BF
:1019D0001CE400E01F2318401E3B8340002905D073
:1019E000C021044A490053501360704780220149C6
:1019F0008B50FAE700E100E001228240034B1B68B4
:101A000013405A1E9341D8B27047C04600E100E02F
:101A100070B50D00EFF3108672B60F4A1368002BF5
:101A2000FCD0BFF35F8F0D4B10309B6884001B59B7
:101A30000B4A934203D09D4201D001F06DF8074B51
:101A40009B681D51BFF35F8FBFF35F8F0022024B76
:101A50001A6086F3108870BD240100D000ED00E00C
:101A6000C1010010F0B5DE4657464E464546E0B58A
:101A7000824683B08B461700EFF3108872B6604A37
:101A80001368002BFCD0BFF35F8F00255D4B5D57C3
:101A90009946002D00DA9AE04A466B005A4C5E19CE
:101AA000B6000193A31900939B791370574B9A6862
:101AB000534610339B00D15899460B1B2F2B32D91C
:101AC000534B994200D098E0019B0236ED18514BE0
:101AD000AD006353504BA619043B9B1B4F4A1B059B
:101AE0005B0D651913436B804D4B0121AB80FF23C8
:101AF000AB715B46AB60009BEF710B4319004A462C
:101B0000424B9B689950BFF35F8FBFF35F8F0022FA
:101B10003B4B1A6088F3108803B0F0BCBB46B2465A
:101B2000A946A046F0BD01200A008243D379B446FD
:101B3000BB422DD83B4BB51C190013001B1B5B414E
:101B40005943090D8C46334B6519A353324B009909
:101B5000043B5B1B1B05314D5B0D2B4304364B8057
:101B6000A619131F9B1B1B055B0D1D4363468B7141
:101B70005B468B602C4B8D80CF7113600143BEE7B9
:101B80005800C01880002018C679BE4225D902002E
:101B90000623D356002BF3DA9A46131D9C4623489E
:101BA0006346009E9571043EF61A36051B4B760D72
:101BB0001E43019B96805A1953469200A418A371A4
:101BC0005B46194AA0802260E771A36097E700F0A6
:101BD000A3FF00254B465D575EE766469A46131DF8
:101BE0009C469088043640050015A6196044801B69
:101BF00000050A4E400D3043D2E700F08DFF63E749
:101C0000240100D0CFA90020600F002000ED00E0EB
:101C1000C101001000A1FFFF900F002000E0FFFFB6
:101C200001BDFFFFAAAA00000148804701BD0000D6
:101C3000F0B54546DE4657464E46E0B50D0083B04A
:101C4000EFF3108872B6604A1368002BFCD0BFF324
:101C50005F8F5E4B5E499A68030010339F00D45932
:101C600099468C423ED0AC424FD05A4EA21B2F2AEE
:101C700038D8594B1A689C46130001228240134001
:101C80001F22024001209A469040634680228346EC
:101C90009850BFF35F8FEFF305830193002B36D08D
:101CA000994501D000F038FF012322009A43906843
:101CB000854208D176E04B005B189B00F3189868CA
:101CC000854236D01A00062151560029F3DA8542A2
:101CD00054D05346002B27D0C02259463E4B5200C9
:101CE00099501960394B9B68DC51BFF35F8FBFF38C
:101CF0005F8F0022344B1A6088F3108803B0F0BC69
:101D0000BB46B246A946A046F0BD0C00EAE7220059
:101D100001339A4390688542D5D1062010561300AE
:101D200000280ADA0C0031E0802359462A4AD150B3
:101D3000D8E706201856002821DB42001118890038
:101D400075188946A9689960E979D971062169569B
:101D50009971002924DBAD88F11A6D052D154D44CC
:101D6000491909051D4D490D2943998013181C4A2D
:101D70009B001178F31899711070AAE7130001996C
:101D8000002914D1FF3191711649918014490A78C4
:101D90009A71154A9B1B5B415A43120D0A7098E7D2
:101DA0001049E2E70620105613000028C5DA0F4A52
:101DB0000F49D21A083A5002400D014399800D494B
:101DC00052080A43DA8084E7240100D000ED00E0E5
:101DD000C1010010600F002000E100E000E0FFFF03
:101DE000CFA9002001BDFFFFAAAA00009A0F002082
:101DF00000F0FFFF00F8FFFF084A83089B009B18D4
:101E00001A6810B5140003221040C000FC32824052
:101E10009443220081400A431A6010BD00E400E0B0
:101E20000123034370B59C46EFF30581EFF3108562
:101E300072B6214A1368002BFCD0BFF35F8F1F4B93
:101E400004001F4AE41A64416243120D1D4C8900CC
:101E5000A66852B2765866451CD006215956914262
:101E60001CD012215956914222D01E21595691421E
:101E700020D02A2159560324914210D0124B1978B0
:101E80001A708171BFF35F8F00220B4B1A6085F3CC
:101E9000108870BDA3680D4C5C50EFE70024610012
:101EA000091989005B18FF21997109499980E5E7B3
:101EB0000124F4E70224F2E7240100D0600F00209F
:101EC000AAAA000000ED00E0CFA90020C101001087
:101ED00001BDFFFF024BC918890001607047C04671
:101EE00040000034F8B5124C124DAC4212D201261B
:101EF000002776422368002B0DD0FFF711FD01006B
:101F00002000FFF7E7FF66602772BFF35F8F0C3496
:101F1000AC42EFD3F8BDFFF703FD01002000FFF74F
:101F2000D9FF6660BFF35F8F0834AC42E2D3F1E7BC
:101F3000181000202810002010B50400FFF7F0FC56
:101F400001002000FFF7C6FF01235B426360BFF37F
:101F50005F8F10BD10B504000120FFF7F9FC034BA3
:101F6000C01880002060BFF35F8F10BD40000034B8
:101F7000F0B5DE4657464E464546E0B585B0EFF330
:101F8000058303221A40B34B91005F58012393400D
:101F90009B4602925A468846AF4B1A60AF4B03935A
:101FA0005B46AF4843630823FE5E002E37DABB88EA
:101FB0001BB2002B00DBA4E0BB79002B00D0E5E0D6
:101FC0000823F95E002920DB4B007A695B18DB00EF
:101FD000D3189D68DC686B1C00D104E1A0480100A7
:101FE0004144826A0B69AE1A9B1A9E4215D30123A3
:101FF000026A029883401A420FD0994800F0D2FA40
:102000008C4202DCCCD18542CAD940BF05B0F0BCBD
:10201000BB46B246A946A046F0BD0D61EDE77A6920
:10202000730091469B19DB0099444B469C68DD6820
:1020300000F0B8FA8D42BADC00D1F6E0002D00DAEB
:10204000DBE04A464B4652691B699246039A93422B
:1020500000D1CCE04A460821785E528800045146FF
:1020600010439847009001910099019A0B00134387
:1020700000D1C2E013000A00002B00DBD9E02000F1
:102080002900801A99414B469860D96000229B5ED6
:10209000002B00DA8BE75D007C69EA18D200A218F9
:1020A00000949468D268A2468A4200DD7FE702D19C
:1020B000844200D97BE70824A4463B81BC44009CB1
:1020C00000972F006546B4463E0006E05E00F21819
:1020D000D200A2189768D268BA468A4207DC00D1BB
:1020E000B4E0F318DB00E518E35E002BEEDA664699
:1020F0004A46009F13802E80BB881BB2002B00DA5B
:102100005AE73A69EFF3108172B61368002BFCD0DE
:10211000BFF35F8F0123BE885B42BB8036B23B6951
:10212000BFF35F8F00221A6081F31088002E00DA5F
:1021300042E73B0008333A0099467D6973009B19DA
:102140000824115FDB004846EB18002913DB9C686C
:102150000093A446DC6806E0A34240D00023F95E69
:102160003800002906DB4F007F18FF00EF19FB68DD
:10217000A342F1DD009B068000201E5E1980002E28
:10218000DCDA1700BB79002B00D119E70023BB7103
:102190000823F95E4B1C00D137E73D000835AC46FB
:1021A0007C6903E084464B1C00D109E74B005B18B7
:1021B000DB00E0180A00E15E43881BB2002BF1DA75
:1021C00001256D42EE178560C66008257B5F93424E
:1021D000E9D0634619803B8903803A81E3E7BB6815
:1021E0006345BBD9C6E7631C00D0F7E605E7534655
:1021F00050461B699847002823D14B461B883A69F3
:102200003B81EFF3108372B611680029FCD0BFF355
:102210005F8F49467A880A803A697E80BFF35F8F74
:102220000021116083F31088C1E6844200D805E7DD
:10223000BDE60B4800F0B6F9009B019CC018614157
:1022400021E753460CCB009201930DE7824500D85D
:1022500047E74CE77C1E00203C700540711F0010D2
:1022600000400540074810B50268EFF3108172B6D0
:102270001368002BFCD0BFF35F8F03F085FD0020B7
:10228000002110BDAC20002070B52D4C2569002D1B
:1022900004D00A212B48FFF71DFE70BD2A4E0321F2
:1022A000294800F075F9E660FFF73AFB274B032257
:1022B000C018D02322701B061B6801216370244BB9
:1022C0008000A3600F23206102206380636949427C
:1022D000A18019800231198647311D835852183167
:1022E0005A5275325C39995218320131995218326A
:1022F00001319952183201319952083518329D52E4
:102300000231183299521832013199521832013182
:1023100099521832013199521832013199521832BA
:10232000013199520B4B0C49DC6001303562FFF7EB
:102330006FFB01210320FFF74DFB084B1D60A8E751
:10234000A80F0020AC2000200040054040000034D1
:10235000FFFF10007C1E0020711F00103860054038
:1023600070B582B00092019301000269EFF310840E
:1023700072B61368002BFCD0BFF35F8F0223C85ED8
:102380000D6900283FDB4A69430016001B18DB007B
:10239000D218F35A4B80BFF35F8F00232B6084F376
:1023A0001088069B1361079B5361009B019C9360FF
:1023B000D460538801335B045B0C1D1C002B20D0C0
:1023C000ACB20304558023430D69EFF3108C72B651
:1023D0002C68002CFCD0BFF35F8F8C881480888021
:1023E0000A69BFF35F8F002010608CF310880A78B1
:1023F00001309040CA68084952181060180002B0B5
:1024000070BD0125DCE7BFF35F8F00232B6084F3F1
:102410001088013BF2E7C0463C20000010B543891C
:102420000A1493421ADD53009B184269DB00D3184B
:102430000469EFF3108C72B62268002AFCD0BFF357
:102440005F8F5A88090494B2090C8A4208D0036944
:10245000BFF35F8F00221A608CF31088002010BD3C
:10246000094A22435A80012302698371BFF35F8FB7
:10247000002111608CF31088027804499340C268EF
:10248000012052181360EAE70080FFFF3C200000A3
:10249000F0B5CE46474680B504000D0085B0EFF399
:1024A00005868946002E10D0364900204B6AAB4283
:1024B00006D38A6A5B1B591E8B41A24240411843D6
:1024C00005B0C0BCB946B046F0BD2F4FFB683A78A6
:1024D00098461800039200F065F8039A131D4246CF
:1024E0009B009B5822001B1A9C462B00121A8B4102
:1024F0009E4210DC0DD020BF224A0020536A4B457B
:10250000DED3926A5B1B591E8B41A24240411843A5
:10251000D6E79445EFD900F04DF822002B00121AAF
:102520008B41002B1BDB00230193184B22000093EF
:1025300038002B00FFF714FF002810DD114B5A6AFA
:102540004A451CD39B6AA34217D301003800FFF70A
:1025500065FF0C4A0020536A4B45B1D3D1E7094AC5
:102560000020536A4B45ABD30020926A5B1BA2420A
:1025700040415A1E93411843A2E74A45E5D120BF86
:10258000E3E7C04600400540A80F00206522001088
:1025900010B5024A0248FFF757F910BDB49C00106D
:1025A000201A00200300416A0A00986A596A8A4288
:1025B000FAD17047034B596A0A00986A596A9142E6
:1025C000FAD170470040054070B505000E00184A6A
:1025D000536A1900946A536A8B42FAD12000190099
:1025E0002C00350024184D41AB4216D813D0104BA7
:1025F0002A005B6A9D4203D90D494B6A9342FCD382
:10260000934207D10A4A02E0516A994202D1916A83
:10261000A142F9D370BDA042E9D9054B5B6A1C0009
:102620005A1CEFD0012201246442E5175242E3E72D
:1026300000400540254B70B598420BD843011B1A4A
:10264000234A9B001818916AC000936A5B1A98424B
:10265000FBD870BDFA2200239200002100F040FE5A
:1026600005000E001A4A536A1900946A536A8B4295
:10267000FAD1200019002C00350024184D41AB423E
:1026800019D9134B5B6A18005A1C0BD00123012483
:102690006442E5175B420E494A6A9A42FCD39A4269
:1026A000D7D120000A4A02E0516A9942D1D1916AF9
:1026B0008142F9D3CDE7AB4205D0054A2B00526ADF
:1026C0009542E8D8EBE7A042F7D9DAE79BC42000AF
:1026D00000400540F8B5040006200D0000F06EF93A
:1026E000002843D0364B3749E3185A1E93418022C5
:1026F0005B429B0D12049B059B18334A1360334ABF
:10270000136018000A689043FBD12D4B304AE31840
:1027100059424B4180215B0049000620995200F04C
:102720004DF92900C00000F037FB0130C3091ED16C
:10273000402701226262A362266BF30722D4E36A78
:10274000244B0620E51800232B60266300F036F9A1
:102750003900800000F020FB7023E26A5A400E33FB
:1027600013402B601C4B23630323A364F8BD1B4A57
:1027700093421DD900231A4A1A4F6262A362266B44
:10278000F307DCD5184B144AE3181A60656AA36A8C
:102790000620AD01ED1800F011F9144900F0FCFA23
:1027A0000100A80200F0F8FA0021FFF70DFFC6E7CC
:1027B00040069A01800E17181A000300BAE7C046B7
:1027C0000080FCBF08C0004000E0004000F0004076
:1027D000B02000202C10000001030000FEFF0000CC
:1027E000FFFF0000C0FF3F00303000004E0E000031
:1027F000F8B5DE464E4645465746E0B505008B46E1
:1028000018000A99914600F0C7FA0A9B6C001E0254
:102810006419304BA400E418636880469E4200D9D6
:1028200066602F1FFBB29A46012B2FD9C02380224E
:10283000294FAD009B0179591201E3181A60002954
:102840001BD14B4622685B015340E022134080229B
:102850005201A21813605346012B2FD980238022E6
:102860009B01E31812011A60434666607B51F0BC7D
:10287000BB46B246A946A046F8BD786900F08CFA7E
:10288000013043001B18033BFDD2DAE75B46012B06
:10289000CCD1C02303229B01E3181A60023AA3683B
:1028A0001A42FCD04A46236852015A40E0231340A2
:1028B00080225201A218084F1360AD00584603232E
:1028C000216841400B40136001228240A3681A42F4
:1028D000FCD0C3E700800040241A0020F0B5D646A3
:1028E0004F464646440098462418324BA400E4184C
:1028F00063688A469146C0B5FF2B02D880235B00EF
:102900006360061FF6B2012E2FD9C02380222A4F02
:1029100085009B0179591201E3181A6000291BD127
:102920004B4622685B015340E02213408022520153
:10293000A2181360012E30D9802380229B01E31856
:1029400012011A6080235B00636043467B51E0BC48
:10295000BA46B146A846F0BD786900F01DFA0130CC
:1029600043001B18033BFDD2DAE75346012BCCD1C1
:10297000C02303229B01E3181A60023AA3681A429B
:10298000FCD04A46236852015A40E023134080227B
:102990005201A218084F1360850050460323216896
:1029A00041400B40136001228240A3681A42FCD0D0
:1029B000C2E7C04600800040241A0020014B80007E
:1029C000C0587047241A0020F0B5C646040000B570
:1029D0002348160098460D0000F0DEF90100300093
:1029E00000F0DAF94346069A1B04120313439C468F
:1029F00023680600002B22DB1A4B1B48E218531EEB
:102A00009A4180235242120B9B011203D218174B9A
:102A10001A60174B1A60130001688B43FBD1212207
:102A2000144B2560E318A6601A602268002AFCDABD
:102A30006246E26008221A6080BCB846F0BD3F23BF
:102A400022681340AB42D7D1A3681B051B0D8342FC
:102A5000D2D1EE22E368D20213406345CCD1EBE73A
:102A6000001BB7000040FDBF08C0004000E0004070
:102A700000F00040043000008023024A9B000B431A
:102A8000D362704700800540002310B50100988A8A
:102A90001B8B984710BDC046162310B5010018883F
:102AA0005B88984710BDC046F8B54746CE4680B50E
:102AB0000F1E18D014239946043304000025012664
:102AC00098464B461888434621681B88984701C49E
:102AD000431E984101350640AF42F2D13000C0BCE0
:102AE000B946B046F8BD0126F8E7C046AA23064A13
:102AF0001B0113608D235B00D3600449044B1960F4
:102B00005368002BFCDA70470040024000B0FA0026
:102B1000006002407047C04610B50148FEF776FEDF
:102B2000D89C001070B5074D074EB54209D200245D
:102B3000013E761BB608013608CD01349847B442F1
:102B4000FAD170BD489B0010849B001070B5074DF2
:102B5000074EB54209D20024013E761BB608013665
:102B600008CD01349847B442FAD170BD7C9B001067
:102B7000849B0010054B064A06491A60064A074B1B
:102B80001A6010000B689843FBD1704700E00040CA
:102B9000BFCDFBFE08C00040FE7F3C0000F00040BF
:102BA000044BDB6C002B03D18022034BD2021A6052
:102BB0007047C046000011504C201150044A054B8C
:102BC0001A60054A1368DB018033FBD17047C046A9
:102BD000FFFFFF0100F0004008C000404022034B0F
:102BE0009A675A671A67DA667047C04600F0014074
:102BF00010B5FEF7BDFE10BD70B52849284D294E11
:102C00006D1AAC102200302C00D930223000920016
:102C100000F0C4FBBC2D3DD823002A3B224A052BE3
:102C20001DD9302075196D07A446001BEB0F002D30
:102C300003DA611C8C46A1007250C01AE3189B0095
:102C40004108F318C900C9181A605A60083399423C
:102C5000FAD1012303421DD0984360440400A3002D
:102C6000F250631C2F2C15D09B00F250A31C2E2C6D
:102C700010D09B00F250E31C2D2C0BD09B00F25087
:102C8000231D2C2C06D09B00F250631D2B2C01D051
:102C90009B00F250054B9E6070BDC04600010010C5
:102CA000C001001000000020C101001000ED00E094
:102CB000002310B5294C82B0A367FFF717FF01224C
:102CC000274B1A60636C012BFCD10322254B1A6041
:102CD000224A936B012BFCD1013300930121224A3C
:102CE00022480433FFF770FE052301210093204A98
:102CF0002048FFF769FE0022022104201E4BFFF747
:102D0000EDFD0022012105201C4BFFF7E7FD00220D
:102D1000002107201A4BFFF7E1FD002200210820C7
:102D2000174BFFF7DBFD8023DB000093002200211F
:102D30000920134BFFF75CFD0022104B00210620F9
:102D4000FFF7CCFD0420FFF739FE0E4900F024F810
:102D500001000020FFF790FE02B010BD008000408F
:102D60003CB0004030B00040002F68590080024065
:102D7000008C864700C00240001BB7004059730713
:102D8000006CDC0240420F0001480421014B18474F
:102D9000C00F0020A92A0010114A936F9B0813D27C
:102DA00010665166002905D0FFE7FFE7FFE7516F86
:102DB000106F704704B5002801D00020C04306F012
:102DC00083FE002104BDC046F0B5146E556E576FEA
:102DD000166FFFF7E5FF1466556657671667F0BD77
:102DE000000000D094464A4A926F9208624601D28F
:102DF00028E0C046F0B5464E346E756E776F366F7C
:102E000000F020F89446424A1466556657671667E4
:102E10006246F0BD94463E4A926F9208624601D2E5
:102E200054E0C046F0B53A4E346E756E776F366F2B
:102E300000F04CF89446364A146655665767166794
:102E40006246F0BD002B24DB11D000293EDA00B52C
:102E5000C943404200D1013100F038F8C943404233
:102E600000D10131DB43524200D1013300BD002AC1
:102E7000EBD1002801D1002905D00020C90FC907D6
:102E800001D1C043410800B506F016FE0022002320
:102E900000BD00B500290ADBDB43524200D10133FB
:102EA00000F014F8C943404200D1013100BDC943CC
:102EB000404200D10131DB43524200D1013300F0E6
:102EC00005F8DB43524200D1013300BD002923D174
:102ED000002B18D1002A0CD0BC460D4F38667A66FC
:102EE00000210023FFE7FFE7FFE77A6F386F6746AF
:102EF0007047002801D00748010000B506F0DCFD4E
:102F00000022002300BD02000B00002000217047BA
:102F1000000000D0FFFFFFFF002B00D0BFE0130C2C
:102F200028D1002AE7D080B4114F39667A66FFE7CE
:102F3000FFE730B4040C7B6F396F1B0423433B66FF
:102F40007A66FFE7FFE7FFE7C04684B27B6F3D6F1D
:102F50001B0423433B667A66FFE7FFE7C046002376
:102F60002C042D0C7A6F386F00196941B0BC704782
:102F7000000000D0F0B594460025140E01D11202D5
:102F80000835140F01D112010435940F01D19200BC
:102F90000235D40F01D152000135D40B0134254F35
:102FA0007C66254C3C660E0C93B2FFE7FFE7FFE71B
:102FB0003C6F6643360C7703BE467343DF0B5B04FE
:102FC000C01AB941130C7343DB18C91ACE08664303
:102FD000360CB64493B273431F0F1B01C01AB9419C
:102FE000130C73431F0B1B05C01AB941860D8F02CA
:102FF0003E436643360C092D24DB520A7243801A85
:103000007703460A6643360C16235B1BDE40DF401F
:10301000BF1964466643821B7046043506330100BF
:10302000D940A840C01900D30131A24206D20023E2
:10303000F0BD0000000000D0FFFFFFFF121B0130B9
:10304000F3D3F1E709277F1BFE406446A2B2724327
:10305000801A00D20139220C7243130C1204821A16
:1030600099410B007046043513370100F940A84020
:10307000801900D30131002B02D1A2420AD2F0BD47
:10308000013000D30131121BFAD2013BF8D1A24228
:1030900000D2F0BD013000D30131121BF7E7F0B5CB
:1030A0001C0C00D080E00CB400251C0A04D11B02CB
:1030B000160E3343120208351C0B04D11B01160FE8
:1030C0003343120104359C0B04D19B00960F33430C
:1030D00092000235DC0B02D192185B4101351C00D5
:1030E000971864410134464F7C66464C3C660E0C92
:1030F000FFE7FFE7FFE7C0463C6F6643360C770308
:10310000BE4697B27743C01B00D20139C01B00D224
:1031100001399FB27743C91BC91B170C77437E0443
:10312000FF0B801BB941CE086643360C0C2D33DBF8
:10313000B644120B1F053A431B0B97B27743C01BD3
:1031400000D201399FB27743C91B170C77433E0465
:103150003F0C801BB941860D8F023E4366432927F1
:103160007F1BFE400C3D7746AF40BF1930BCA2B27A
:10317000ABB272437343801A9941220C7243130C11
:103180001204801A994102000B000137001BA9416B
:10319000F9D2781E0021F0BD0C277F1BFE40774638
:1031A0007F0BAF40FF19E0E700245D1C07D0144FF0
:1031B0007D663966FFE7FFE7FFE7FFE73C6F95B203
:1031C0009EB265436643401BB141150C1E0C65431E
:1031D000664336042F0C3E432D04401BB1419942F7
:1031E00004D202000B0020000021F0BD01D190426A
:1031F000F7D3801A994101349942F2D3F6E70000DF
:10320000000000D0FFFFFFFF10B50148FEF7FEFAF7
:10321000E49C0010132370B51D78012D19D014DD26
:103220001D48FFF739FC06001C48FFF735FC1C4C15
:1032300080223100200000F0B1F8022D06D019489C
:10324000FFF722FC184B186070BD154C174BA36498
:10325000F5E7174B124C23606360A360E3602361C2
:103260006361A361E36123626362A362E362236338
:103270006363A363E36323646364A364E364236518
:103280006365A365E36523666366A366E3662367F8
:103290006367A367E367D9E7534400005346000020
:1032A000381300204C330000A81F0020B532001056
:1032B0000932001007B5604601880A0A0230DF2A89
:1032C000FAD1C9B2820804D30288408800041043AE
:1032D00000E00068014A5050039007BD38130020F9
:1032E00051434343C9188C46110C83B24B4310B46D
:1032F000040C614392B280B2504362431C041B0C25
:10330000001910BC59411304120CC01851416144FA
:103310007047000010B50148FEF778FAE49B0010F2
:10332000132310B51C781148FFF7B6FB012C0BD006
:1033300004DD010080220E4800F030F80D48FFF750
:10334000A3FB0D4B186010BD094C01005422200056
:1033500000F024F822002000084980320368002B86
:1033600000D1016004309042F8D1E7E753460000F5
:10337000AC1F00204C330000A81F002015330010A4
:1033800001480421014B1847D00F0020A92A001042
:10339000014B1B6818470000D00F0020014B5B68F1
:1033A00018470000D00F002010B5002800D110BD34
:1033B00000F01EF9FBE7C04610B5094A0300146887
:1033C00084B0002C08D0012200910648524203A983
:1033D000A047012004B010BD00F054F90020F9E727
:1033E000581E0020A933001000BEFDE710B5FFF7FE
:1033F000FBFFC04670B5FFF795FB074D074EB54282
:1034000009D20024013E761BB608013608CD0134EE
:103410009847B442FAD170BD849B0010909B001075
:10342000030010B5080011001B68984710BDC04686
:10343000F8B5437D07000D001600002B38D0002A98
:103440001ADD0B780A2B18D00020012E09D0012498
:1034500021006B5C01340A2B1AD0B442F8D18642A9
:1034600003DD311A3B6828189847AD19013D2B78C8
:103470000D3B5A4253413B75F8BD037D002BE3D110
:1034800002210E483B689847012EEED00120DEE76E
:103490006B1E5B5C0D2BE0D0884203DA091A3B6897
:1034A00028189847054802213B6898472000D4E730
:1034B0000368110028009847DEE7C0461CA00010F2
:1034C000F0B54646D6464F46C0B582B090461C0081
:1034D00006000D00FFF76EF800232F4A12184B412B
:1034E000002B02DA01222D4B52422D4908008A4658
:1034F00006F0FAFA81466B1C03D1300006F098FA08
:103500000500002C27D0274F274B1C68002C18D013
:103510004346002B21D1254B984602E02469002C1C
:103520000FD02368002BF9D043461B68002B01D035
:103530009C42F3D120002A003100B8472469002CB6
:10354000EFD14B46002B23D1280002B0E0BCBA4695
:10355000B146A846F0BD164FD6E7144B984602E098
:103560002469002CEDD02368002BF9D043461B685A
:10357000002B01D0A342F3D12A0031002000B8472C
:103580006B460A222000DA71D91D093AB847E7E7ED
:10359000504606F089FAD7E740420F00FFFFFF7F51
:1035A00020100020313400104C1A0020541A002042
:1035B000213400100A4A1368002B05D10CE01A00D0
:1035C0001B691032002B07D08342F8D1002902D1A9
:1035D00018691060196170470029FCD01060FAE783
:1035E0004C1A002010B500F037F9012010BDC0467C
:1035F000F0B5CE46474680B583B06B460600DD1D6C
:103600002870FEF7D7FF0023194A12184B41002BF0
:1036100002DA0122174B524217490800894606F088
:1036200063FA164B80461C68002C14D0144F02E03D
:103630002469002C0FD02368002BF9D03B68002BA5
:1036400001D09C42F4D1200001222900FFF7F0FEB6
:103650002469002CEFD14346002B05D1300003B084
:10366000C0BCB946B046F0BD484606F01DFAF5E7C5
:1036700040420F00FFFFFF7F201000204C1A002067
:10368000541A002070B5040006F0D2F9012301009D
:10369000050001222000FFF713FF084B1C68002CD7
:1036A00006D06368002B05D098472469002CF8D118
:1036B000280070BD2469002CF3D1F9E74C1A0020D2
:1036C000F0B5002915DD0E4B0D271A680D4B0E4C79
:1036D000D3185D426B41451820215B001E5F0478C2
:1036E000A64207D093691942FCD101301460A84268
:1036F000F5D1F0BD93691942FCD11760F2E7C046DD
:10370000B42000200080FCBFB02000201F4B30B54B
:103710001B680D1E9C462ADD441E102100201C4BF8
:103720001A689369194214D1013093691942FCD186
:10373000136823548542F4D16346002B07D05023ED
:103740009363516B183B0B401249521813602800C9
:1037500030BD6346002B07D050239363516B183B59
:103760000B400C49521813600028F1D10BE0002BDC
:1037700009D05022064B1B689A63596B183A0A40CD
:1037800004495B181A6003204042E1E7141A002044
:10379000B420002034100000064B10B51B68002B2D
:1037A00006D00021044A12689163044A10689847C1
:1037B00010BDC046141A0020B4200020181A0020A2
:1037C0000822034B19688B691A42FCD17047C04626
:1037D000B420002070B51A4E1A4B32680400D3187A
:1037E00058424341184D143318002B68002C02D066
:1037F000002B0FD070BD002BFCD00600002194637D
:10380000FEF7E8F830001149FEF712FA104B2C6071
:103810001C60EFE72C6004000D4B19600B49FEF7AC
:10382000F7F801212000FEF7D5F8502233689A639B
:10383000596B183A0A4007495B181A60DAE7C04624
:10384000B42000200080FCBF141A0020993700101B
:10385000181A0020341000000D4B10B51B780D4BCA
:103860000D4C1B780D4B02211B780D4B0020236063
:10387000FDF726FF02210120FDF722FFE12120684C
:103880004902FEF727FF01210648FFF793FE10BD0E
:1038900074A1001070A10010B42000206CA10010D1
:1038A00000400340E00F002010B5024800F0F4F89B
:1038B00010BDC046501F002030B5012900D1BBE02B
:1038C000744B01391A78121114003034092A00DDC2
:1038D000B5E00470012900D1DAE00F221C78224003
:1038E00014003034092A00D9ACE04470022900D118
:1038F000CEE05A789446121114003034092A00DDC3
:10390000A3E08470032900D1C2E064460F22224064
:1039100014003034092A00D99AE0C470042900D177
:10392000B6E09A789446121114003034092A00DD6A
:1039300091E00471052900D1AAE064460F222240DB
:1039400014003034092A00D988E04471062900D1D6
:103950009EE03025AC46DC7822119444092A00DD33
:103960007FE062468271072900D191E00F22224058
:1039700014003034092A00D977E0C471082900D135
:1039800086E03025AC461C7922119444092A00DDDA
:103990006EE062460272092900D179E00F222240CE
:1039A00014003034092A67D844720A2900D16FE024
:1039B0003025AC465C7922119444092A5FDC6246CA
:1039C00082720B2964D00F22224014003034092A5D
:1039D00059D8C4720C295BD03025AC469C79221191
:1039E0009444092A02DD0735AC46944462460273CA
:1039F0000D294DD00F22224014003034092A01D95C
:103A00003732140044730E2942D0DA7913111C00A6
:103A10003034092B01DD37331C0084730F2937D074
:103A20000F2313401A003732092B01D830331A0004
:103A3000C27310292CD010300023037030BD3732F0
:103A4000140046E7373214004FE73732140058E7C6
:103A50003732140061E7373214006AE73732140056
:103A600073E70735AC4694447BE73732140084E7AC
:103A70000735AC4694448CE73732140094E7073599
:103A8000AC4694449BE737321400C4720C29A3D18E
:103A90004018D1E7501F002010B588B004000D2257
:103AA00000216846FFF774FC0D22002104A8FFF7EF
:103AB0006FFC4B236A466846137004A90D2205F07B
:103AC000EBFF1521082220006944FFF767FC08B0CE
:103AD00010BDC046F8B500F047F90C23194DFF2280
:103AE000AB6705201849FDF7BDFF184C40220021A7
:103AF0002000FFF74DFC4027002301262121144A16
:103B000066702783A260136063545F316184453916
:103B10006354104A10496360E2602787A1620B601A
:103B20006362E26205F0F0FF80239B052E64EB6484
:103B300090230A4A0120EA508022094B5202DA649B
:103B4000F8BDC04600001150B9040020581A0020EA
:103B500084001050000110508000105010D001005F
:103B60000020115010B501210520FDF733FF10BDD5
:103B700010B500220021024800F016F910BDC04621
:103B8000781A0020044B1970002904D0802190235A
:103B9000024A8902D1507047CCA900200020115060
:103BA0000B785B0600D070474B78052BFBD18A78E9
:103BB000014B1A60F7E7C04600001150F8B5CE4639
:103BC0004746C87880B58007830F1800012B61D065
:103BD0008B780A799C464B797F211B0213435B0546
:103BE0005E0D63461940DC094B001A191F0063463D
:103BF0002F4D5201AA189370012363405370002384
:103C00001683D370D076B146CA00012C31D0294E2C
:103C100092198E01B446AC446646B2601360002926
:103C200031D0254BC900C91871604B463F339B0901
:103C3000022836D09B0121483919026849016918C8
:103C40000E00CA601E49D31803608B422BD83B1963
:103C50005B01ED18EB7E1B499B064A401343802213
:103C6000120613436A6813600120C0BCB946B0460F
:103C7000F8BD154E92198E01B446AC446646B26248
:103C80001360002908D1002364012C1963600F4BD5
:103C9000E360E9E70020E8E70A4BC900C918716250
:103CA000C3E7DB01C7E7FEF737FFF268CFE7C0469F
:103CB000581A00208400105004001050601E00208C
:103CC000FF0F1050000010508000105000011050E5
:103CD00010B505F019FF10BD7F2010B50840400059
:103CE000C90940181100044A400180181A0000F068
:103CF0005BF8012010BDC046581A00207F23180031
:103D000000B5084083B00B4204D14B424B41084AF6
:103D1000013393668022C9094000064B40184001D8
:103D20000021C018120105F007FF03B000BDC04616
:103D300000201150581A00207F22130010B50B40AC
:103D40000A4200D110BDC9095B005B1804485B0141
:103D5000C018002300220349C37005F0EDFEF1E70F
:103D6000581A0020FFF7FFFF80220A4B520410B5BB
:103D70001A60094B09491A6010000B689843FBD17F
:103D80008022002152010648FFF702FB0922054B61
:103D90005A6710BD00E0004000F0004008C000403D
:103DA0000000105000001150002310B5C3820133F1
:103DB000828283760161040005F0B6FE002804D0FB
:103DC00080219023074A8902D150200005F0A4FEEB
:103DD000002802D00123237710BD200005F08CFEBF
:103DE000FAE7C04600201150002070477047C046D7
:103DF0007047C04600207047002070470020704781
:103E00007047C0467047C0467047C0467047C046BE
:103E1000024B5878431E9841C0B27047F0170020FB
:103E2000024B18784007C00F7047C046F0170020BB
:103E3000F0B5D6464F464646C0B52E4B814698460D
:103E40001B788A46FF2B4ED100293ED000215422F8
:103E50002948FFF79DFA0022284C294B20001A70B0
:103E6000FEF76AF8274B1C60274C2000143CFEF735
:103E700071F8200001F0ECFD244B254D1C60254B12
:103E8000002B04D0280000E000BF234B1860002462
:103E900000232A78214F204E0FE0336862019B18DF
:103EA000002B12D05B68002B0FD098472A78013482
:103EB000E4B2511C2300A14209DBA242EDD89B1AB7
:103EC0005B01DB195B68002BEFD100200CE0424660
:103ED0004B46514648461370FFF7FCFD0028F4D0CE
:103EE0004846FFF73FFE0120E0BCBA46B146A8466F
:103EF000F0BDC04614100020F0170020E817002085
:103F0000CDA90020441800200C10002048180020E3
:103F1000C4A90020000000004C140020E4A0001000
:103F2000F0B5DE4657464E464546E0B5C64B91B025
:103F300002931B78FF2B00D13BE1C44BC44E1F0002
:103F4000C44B0DAC0193C44B009335686A69EFF321
:103F5000108172B61368002BFCD0BFF35F8FA9618C
:103F60002800210001F0AAFB6A69AB69BFF35F8FEB
:103F70000021116083F31088002800D119E16378D3
:103F8000082BE2D89B00FB589F466368002BDCD0CF
:103F9000A0689847D9E77F222179AE4D0A405300A7
:103FA000EB189846C8098044404601233030057913
:103FB0009D430571057903339D430571002A00D1A6
:103FC000FEE04346A54A1B7D1278934200D3EDE004
:103FD000A34A5B011568ED18002D00D1E9E0A36844
:103FE00062792078AD69A847AFE79E4B1A78002A1E
:103FF00000D1DEE01A78013A1A701B78002BA4D1A8
:104000000122944D01212B78042013432B7034237B
:10401000EA5C8A43EA54EA5C8243EA540133EA5C8C
:104020008A43EA54EA5C8243EA54237800209B46A0
:1040300000F0A0FC602223791A40602A00D1EEE053
:10404000402A00D1F4E0DB06DB0E012B00D111E1A8
:10405000022B00D1C6E0002B00D0E0E0202A00D1E6
:104060001CE2002A00D0DAE06379092B00D9D6E0FF
:104070007D4A9B00D3589F46764D2B78DB0700D4B2
:1040800063E7FFF7C3FE60E7019BDB78DB0700D443
:104090005BE76068FFF7ACFE57E76E4D2B78DB07F8
:1040A00000D452E728780007C00FFFF7ADFE4CE7B9
:1040B0002378694999468B46684B694998468A46F0
:1040C00039001A7847460023B04600254E468946F7
:1040D00010E053461B686A019B18002B00D175E065
:1040E000DB68300098473A780135EDB2511C2B005F
:1040F0008D4243DC9542ECD39B1A5B015B44EFE7B6
:10410000237857499946554B8A4698463100BB4615
:104110004E461A7800250023474689460FE053464D
:104120001B686A019B18002B54D0DB68300098474D
:104130003A780135EDB2511C2B008D4206DC9542D8
:10414000EDD39B1A009A5B01D318EEE7019D542230
:1041500000212800FFF71CF91022FF214348FFF738
:1041600017F928002022FF2114304E465F46FFF742
:104170000FF900F0F5FBFFF745FEE6E6354D54225A
:1041800000212800FFF704F91022FF21281DFFF766
:10419000FFF828002022FF21143046464F46FFF743
:1041A000F7F800F0DDFB2379AB70CEE6501C9842A7
:1041B00013DA11B0F0BCBB46B246A946A046F0BD2A
:1041C000A3686279207800F0E9FBBEE646464F46D8
:1041D000204DE6E74E465F46CBE71F4D9B1A5B013D
:1041E0005D19FCE67023217A0B4218D1C80982467A
:1041F0000F330B405B0098461848EB1853441B7D67
:1042000000789946834268D215485B010068814670
:104210009944002A00D163E14B46002B6AD12078F3
:104220000021FFF76BFD80212078FFF767FD8CE60A
:104230000F4800F09FFB012158460EAAFFF7D4FD5E
:10424000002800D081E6EAE7141000203CA000100E
:1042500048180020F0170020E4A00010C4A9002096
:104260004C140020CDA9002060A00010F4170020FD
:10427000E93D0010237A22890F2BD0D8FF23134069
:10428000CF4AEB181B791578AB423ED3691C994293
:10429000C5DB5D1BCB4B6D01ED18686900F06AFB57
:1042A000012158466B690EAA9847002800D04CE6B9
:1042B0006022150023791D401A42B0D163790A3B70
:1042C000012BACD800F056FB63790A2B00D199E1A1
:1042D00058460EA900F0DEFA37E6431C4B4500DADB
:1042E000F9E04B461B1A5B019946B6488144002A07
:1042F00000D1F5E04B46586900F03CFB4B460121EC
:1043000058465B690EAA98479AE7AF4A5B01156861
:10431000ED18002DC1D182E7A37999466B789945B4
:10432000D6D06B78002B00D035E14B466B70002B5C
:1043300000D12DE148460138C0B2FCF729FB002826
:1043400000D17EE143780593022B00D079E1012270
:10435000C179B1468B11491113400A403021120135
:104360005B0113432A78A8468A4313432B70092321
:104370009A4682445646BA46C37882781B02134353
:10438000C31806938E4B04938E4B08938E4B099360
:104390008E4B0A93069BB34200D855E173780122F5
:1043A0000B2B03D13378F278F6187378042B00D0F6
:1043B00044E1069B00279B1B9BB20793049B0B9237
:1043C0001D78002303931BE0099A7B011568ED1803
:1043D000002D00D132E1310058462B69079A9847E9
:1043E0008446082803D9079A824200D313E1049B2C
:1043F00001371D78FFB26B1C03979F4200DD1DE162
:10440000BD42E1D8039B5D1B089B6D015D19E2E78E
:104410006B780CAA02321370584601230EA900F0E3
:104420004FFA92E5E088030AC0B20F2B00D9F6E6F6
:1044300067499A008A5897460EA800F0A1FA584694
:10444000A179FFF795FB02222B7813432B707CE5B3
:10445000E388012B00D0E2E608222B7858469343EC
:104460000EA92B7000F016FA6FE5022029780CAB2C
:104470009A1C8B068908DB0F01400B4313805846BA
:1044800002230EA900F01CFA5FE5E388012B00D09F
:10449000C5E608222B7813432B7019E7237A22896B
:1044A0000F2B00D9BBE6FF231340EB181D79444BBB
:1044B0001B789D4228D2444B6D011B685D19002D6D
:1044C00000D1ACE6686900F055FA012158466B69E5
:1044D0000EAA9847B4E6002A00D0A0E60023994629
:1044E00062790220130003928343012B15D0002A26
:1044F00000D094E62B004344534430331B790CAA7C
:104500009B07DB0F0232B9E75A1CAA4200DA86E6A3
:10451000ED1A2C4B6D01ED18D4E7E388002B12D176
:10452000029B1878039B012B23D0FFF7E7FB434640
:104530000221EB18534430331A790A4301211A71CE
:104540001A790A431A714B46002B00D1FDE45869D1
:1045500000F010FA4B4601215B690EAA58469847B5
:10456000002000F007FA3523EB5CDB0700D5ECE414
:10457000AEE6FFF7E1FB43460221EB18534430332C
:104580001A798A431A711A7903998A431A71DAE7F8
:10459000FFF738FC9CE600215846FFF7F3FA58462F
:1045A000FFF796FBAB7807490393054B04919846B8
:1045B0001A7800230449AA4605911D001BE0C04655
:1045C000C4A90020E4A000104C140020041800200E
:1045D00088A00010059B6A011B689B18002B4CD01B
:1045E000DB685846984743461A780135EDB2511CAE
:1045F0002B008D422DDC9542ECD39B1A049A5B0173
:10460000D318EDE70CAB9A1C584601230EA9157080
:1046100000F056F999E40B9A012A4ED0002A3CD0BA
:104620000023B07804E00133DBB20F71934234D23F
:10463000C118C9B241440D79FF2DF4D04E4645460C
:10464000574600236B70EAE54E465746FFF7D8FB06
:104650003EE65546542200212800FEF799FE10221E
:10466000FF21281DFEF794FE28002022FF21143090
:10467000FEF78EFE039BAB7057E65546FAE7FFF751
:10468000B9FB021E00D1CAE5D37891781B020B4317
:1046900058460EA900F014F9D2E565463B002A0001
:1046A00031000A9800F086FF049B039A1B78761964
:1046B0000133934200DB6DE6C0E72B6918498B425A
:1046C0002CD018498B42ABD1059AA9E7FFF794FB90
:1046D000021E00D1A3E5584613780EA900F0F0F8A9
:1046E000AEE5022B0FD0FFF789FB021ECCD196E579
:1046F000FCF74AF9021E00D191E5122358460EA993
:1047000000F0DEF89CE5FCF743F9021EBCD186E51B
:104710002189FCF741F9021EDDD180E5059AD0E739
:10472000514C001049520010F0B54F464646D6464F
:10473000C0B50C0016001F0082B0002A3AD07023CA
:1047400098461D4B002599461C4B9A461AE04B464D
:104750001B78200001935346997800F0F1FE002861
:104760001CD021000198FFF729FA002816D0A37861
:10477000DA09012A19D00A9A01351370B54219DAFB
:104780002378E4186378052B08D1E3789B079B0F07
:10479000BB4203D14246A3781A42D8D0002002B0CF
:1047A000E0BCBA46B146A846F0BD0B9A013513707D
:1047B000B542E5DB0120F2E714100020F0170020DD
:1047C000702270B58B780C001A4201D0002070BDA9
:1047D000064B20001D78064B997800F0B1FE0028AA
:1047E000F4D021002800FFF7E9F9F0E714100020C9
:1047F000F01700207F20074B10B51A680840CB093E
:1048000034334000C018044B1100C01800F054FEAF
:1048100010BDC04644180020F01700207F20074B31
:1048200010B51A680840CB0934334000C018044B57
:104830001100C01800F068FE10BDC04644180020EA
:10484000F017002070B57F24C80984460C400F483B
:1048500064000419644430342079C00701D5002075
:1048600070BD0B48012500788446207928432071CB
:104870006046FFF731FA0028F2D1012223799343F1
:1048800023712379033293432371E8E7F017002063
:104890001410002070B5094C0600082220000D00FD
:1048A000FEF77CFD00238021E360A3602B783000BD
:1048B000994300220023FFF7C5FF70BD14150020A7
:1048C000F0B5C646244C170080460822200000B5EB
:1048D0000D001E00FEF762FD0023A760E381EB7967
:1048E000AA791B0213431A1CB34200D9321C96B298
:1048F000A281002B0CD0002E15D0002F2AD0402EE4
:104900001AD8237896B27F2B1BD80021134A0EE0C9
:1049100080212B780022994340460023FFF792FF25
:1049200080BCB846F0BD7F23002221789943330034
:104930004046FFF787FFF3E74022237896B27F2BAC
:10494000E3D9064C320039002000FEF727FD802114
:104950002200ECE70020E3E714150020D414002027
:1049600010B5142200210248FEF712FD10BDC0460A
:1049700014150020014B18617047C0461415002023
:1049800010B5054C010008222000FEF707FD0023AA
:10499000A360E36010BDC0461415002070B5374C0D
:1049A0001D0023780600DA09C9098A4210D00020C8
:1049B000002D00D070BD21003000FFF7F1F8236911
:1049C000002B03D022000321300098470120F1E79B
:1049D0007F2B06D8A0680028ECD02A002849FEF7D3
:1049E000DDFCE289A1685219E38892B24919E2819B
:1049F000A160934214D03F2D12D9A389981A051CA7
:104A000080B2402828D82078ADB27F2826D800214F
:104A10009A4230D01A4A2B003000FFF713FFC9E743
:104A20002369002B05D0220002213000984700287E
:104A300008D0802123780022994330000023FFF71B
:104A400001FFB7E700213000FFF758F9300080215F
:104A5000FFF754F90120ADE74025D4E79A4207D08B
:104A6000074C2A002000FEF799FC80212200D2E7A3
:104A700080210022CFE70022CDE7C0461415002098
:104A8000D414002070B50400FFF7C2F9002800D14B
:104A900070BDFFF7C5F90028FAD1C8236343124A55
:104AA0002500D418E1780029F2D010339E18300088
:104AB00000F0EEFD3F28EBD90020E178FFF79AFEE9
:104AC0000028E5D0300000F0E3FDE1783F2807D969
:104AD000064BEA01D21800204023FFF7B3FED7E7C8
:104AE0000020FFF79BFED3E7281000205014002081
:104AF000F8B50400FFF78CF9002801D10020F8BDBB
:104B0000FFF78EF90028F9D1C82325005D432B005B
:104B1000134E2433F718380000F09CFD0028EDD028
:104B200075190020A978FFF765FE0028E6D00D4A28
:104B3000E3019C1821004022380000F00DFEA97806
:104B40000300051E07D022000020FFF77BFE00288F
:104B5000D4D02800D3E70020FFF760FECEE7C046A0
:104B60002810002090140020F0B50025184C83B0C8
:104B7000C82200212000FEF70BFC164B21001D70FF
:104B8000FF236371E1235B02A3602000082340221E
:104B9000A37338310095073B103000F025FD270046
:104BA0000123210020002600402278310093B837ED
:104BB000243000F019FDC0363800FDF7BDF9300093
:104BC000FDF7BAF9E56127622663656303B0F0BDBE
:104BD00028100020D01400200A4B196B1A6A0029F3
:104BE0000CD0002A07D00022DA615A631A6300222F
:104BF0001A62012070475A631A63FAE7002AF8D054
:104C0000D961F4E72810002070B5052200210D4875
:104C1000FEF7BEFB0C4D2B78DA0707D50B4C9B0734
:104C20000CD50121200000F033FF70BD0548103085
:104C300000F00EFF2B78054C9B07F2D4200000F00B
:104C400007FFEEE728100020D01400204C100020B1
:104C5000F0B54B79070083B0022B02D18B79022B80
:104C600003D00024200003B0F0BD214B1E009B7830
:104C7000002BF6D18B78092433700D784D196B78A1
:104C8000242B07D00CE02B78ED181C196B78A4B2FC
:104C9000242B05D1A242F6D20020FFF7F3FEE1E774
:104CA0001A00052B15D0042AF6D16B790A2BF3D103
:104CB000104B2E7801930133009338000223A91979
:104CC000023AFFF731FD0028CBD00E34A419A4B26C
:104CD000E2E729003800FFF773FD0028C1D0AB7868
:104CE00073702B781C19ED186A78A4B2DBE7C04604
:104CF000281000202A10002060238C461100127812
:104D000070B513400022202B08D1324C4B7926007D
:104D10000D7924781B022B439C4201D0100070BDFA
:104D20004B78222B1CD008D8202B39D0212BF5D141
:104D30006346012B43D00122F0E7232BEED16346DB
:104D4000012B42D0032BF6D1234B002BF3D08B78D1
:104D5000C97800200902194300E000BF0122DDE705
:104D60006346012B31D0032BE5D10125CB788A781E
:104D70001B0213431C001D40330001212433180083
:104D80006940347100F084FE144B002BD3D0012312
:104D900062081A402900002000E000BF0122BDE7A0
:104DA0006346012B0BD0032BC5D10D4B002BC2D07A
:104DB00031000020083100E000BF0122AEE7094ABF
:104DC0000723FFF77DFD0122A8E7FFF763FD01221E
:104DD000A4E7C046281000200000000000000000EA
:104DE0000000000030100020F8B54746CE4680B5E0
:104DF000344C1F00E37880460D008B423BD0A378F3
:104E000000208B4211D0C0BCB946B046F8BD2E4B35
:104E1000002B04D02D4800F033FC00284FD0002098
:104E2000FFF730FEA378AB420AD1294B002B02D00A
:104E3000002000E000BF0020FFF75AFE002801D04C
:104E40000120E0E7234C200000F004FC0028F7D10B
:104E5000002FF5D0BB06F3D1243C4046A178FFF7E4
:104E6000C9FC0028ECD0002300224046A178FFF7BF
:104E7000E9FC0120C7E7184E14483100BAB200F02F
:104E800033FD164B002BC2D06379FF2BBFD0002F10
:104E9000BDD0BC46B444E14603E001364E45B6D031
:104EA000637932789A42F8D1084800F0E9FB00288B
:104EB000F3D1064B103B597900E000BFEDE700E06D
:104EC00000BFACE7281000200000000038100020D0
:104ED000000000004C1000205014002000000000D2
:104EE000F8B5C82444432500144E2435AD190700F5
:104EF000280000F0AFFB002801D10020F8BD3619D2
:104F000000207178FFF776FC0028F6D00C4BFC01EE
:104F1000E41821002800402200F01EFC7178051ED4
:104F200008D0030022000020FFF78CFC0028E4D00A
:104F30002800E3E70020FFF771FCDEE7F010002017
:104F40006417002070B5C82545432800054C103073
:104F5000001900F07FFB6419A37B627B9B1ADBB214
:104F6000181870BDF0100020F8B5C8234343194A43
:104F70000500D418A07806000020002E00D1F8BD4E
:104F800010339E183000042200F0E6FB07003000CA
:104F900000F07EFB3F2805D90020A178FFF72AFC0E
:104FA000002804D1381F43425841C0B2E7E730001F
:104FB00000F06EFBA1783F2807D9074BEA01D21811
:104FC00000204023FFF73EFCECE70020FFF726FC23
:104FD000E8E7C046F0100020A4170020F0B5DE4638
:104FE0004E4645465746E0B51E00C82343438B4610
:104FF00068499046CC18627885B001900091002AEB
:1050000000D19EE0002E53D01F002437CF19B246A6
:1050100000253E000333CA1803930292300000F0CB
:1050200037FB032800D88EE043465A5DE37901350B
:10503000002B2AD10221E0780F33E1712271034065
:10504000042B48D09E2301271009DB01C340BC4636
:105050001F40B94667461F4236D103000C3B012B67
:1050600068D90F2800D174E05B460F221B0113435F
:10507000E3704B466371A371C823019A0220534326
:10508000009AD31802221A723FE0032B14D8E118B9
:10509000CA70E178581C0F000F21C0B2E07139408E
:1050A000042928D0237A83422DD0AA45B6D156466A
:1050B0000198FFF715FF3500280005B0F0BCBB468E
:1050C000B246A946A046F0BD5B461B010343E37010
:1050D00004232372E9E7F72AFBD15B4605221B0173
:1050E0001343E370C823019A02205343009AD31854
:1050F00002221A7209E0F72AD4D15A460433120167
:105100001343E3702072042809D00422039B121A6F
:10511000C018009B0021D2B21818FEF739F90422FA
:105120003000029900F0E0FB00232372E3710428B1
:10513000BBD0C1E75B461B010343E370032323722B
:10514000B3E70025B8E72E000198FFF7C9FE350048
:10515000B2E7F02A08D013008B43F12B17D0F22AC4
:1051600012D00522022101E004220421C823019863
:1051700043430098C3185846000102431972DA707D
:10518000022992D10220C0E703220421EEE7022285
:105190000321EBE7F0100020F0B5154C83B0C822D6
:1051A00000212000FEF7F4F8002521002000012353
:1051B000402238310095103000F016FA2700210007
:1051C00020002600012340227831B8370095243092
:1051D00000F00AFAC0363800FCF7AEFE3000FCF7EB
:1051E000ABFEE56127622663656303B0F0BDC04690
:1051F000F01000200A4B196B1A6A00290CD0002A03
:1052000007D00022DA615A631A6300221A62012071
:1052100070475A631A63FAE7002AF8D0D961F4E7B5
:10522000F010002010B5074C102200212000FEF7DE
:10523000AFF82000103000F00BFC2000243000F00C
:1052400007FC10BDF0100020F0B54646D6464F468C
:10525000C0B54B7980461500012B02D18B79012B0B
:1052600006D000242000E0BCBA46B146A846F0BDF6
:10527000CB79002BF5D10B78CE187278242A07D081
:1052800009E03278B618D31872789BB2242A02D17A
:105290009D42F6D2E5E7042AE3D17279012AE0D1F2
:1052A000B279032ADDD1F279002ADAD12C494A7881
:1052B0008A46002AD5D18A789146002AD1D1514612
:1052C000B2780A7032783179D3189CB2002925D08F
:1052D000B71807E0BC463A78141994446746A4B25C
:1052E00049451BD9A54219D37B78052BF2D139004A
:1052F0004046FFF765FA0028B3D0BB78DA09012AE7
:1053000026D052469370BC463B7831799C441C1998
:105310004B460133DBB267469946DBE7114D280067
:1053200000F0B6F93F289DD92E00103E0020B1783C
:10533000FFF760FA002895D0280000F0A9F9B178AD
:105340003F2808D94023084A0020FFF77BFA89E765
:1053500052465370D7E70020FFF760FA82E7C04655
:10536000F010002000110020A4170020002070473A
:10537000F8B5384C0700A0781E0088422CD0607821
:10538000884201D00020F8BD334800F063F90028BE
:105390000BD1314C200000F05DF9002803D1002E24
:1053A00001D0B3063FD00120EDE700206178FFF780
:1053B00021FA0028EDD029494022274800F0CCF9F5
:1053C0006178002843D00300244A0020FFF73AFA0E
:1053D0000028DED00120D6E7200021499AB2103003
:1053E0000D0000F081FA1F4B002B02D0002000E0DE
:1053F00000BF1D4800F04CF93F28D4D9154B0020C0
:105400009978FFF7F7F90028CDD0174800F040F958
:10541000104B99783F2815D940232A000020FFF728
:1054200011FA0120AFE7243C38006178FFF7E2F978
:105430000028B8D0002338001A006178FFF702FA7C
:105440000120A0E70020FFF7E9F901209BE7FFF723
:10545000E5F99EE7F01000201411002064170020E9
:10546000A4170020000000000011002000B5030078
:1054700083B0002910D00020012B07D80A78002A19
:1054800004D00C48C2540120012A01D003B000BD51
:105490001800FEF7CDFCF9E701236A46002001A9B8
:1054A0009380FEF7C5FC0028F0D00122014B1A7052
:1054B000ECE7C046E417002070B50400237808002C
:1054C000DB070E00DD0F002B16D123785B0701D51B
:1054D000280070BD0121494204F0FEFA2378DB0761
:1054E000DD0F002B0AD123785B0708D40422237830
:1054F00001251343237002E00025E9E70025300071
:1055000004F0D2FAE4E7C04670B50D0001210400B2
:105510004942280004F0E0FA23785B07DE0F002BF5
:1055200004DB280004F0C0FA300070BD2378DB07EC
:1055300004D40422237893432370F2E70026F0E793
:10554000437902791B021343C2785B0592075B0D16
:10555000920F022A1AD0032A0BD00020012A07D169
:1055600002394A425141104A891899424041C0B219
:10557000704702394A1E91410C4A4942114080222B
:105580000020D200891899424041F1E7022904D055
:10559000002040229A424041EAE7054A98184342D7
:1055A0005841C0B2E4E7C046FF03000040FCFFFFE3
:1055B00000FEFFFF8446881830B51C00814206D2E9
:1055C0004A78052A04D00A7889188842F8D830BD6C
:1055D0007F228B781A4052006244DB09D4540A7847
:1055E00089188842ECD8F2E7F0B5C64600B598466F
:1055F0006B461E7E802304000F0015001B029A429A
:1056000026D8C068002803D00121494204F064FA7A
:105610002069002803D00121494204F05DFA424686
:105620005204F303520C1343E3800023E0686381C8
:105630002760A5802381002801D004F035FA206975
:10564000002801D004F030FA012080BCB846F0BD3B
:105650000020FAE7038941899C4682889BB288B280
:105660008C4507D31B1A9BB2101C9A4200D9181CF8
:1056700080B270475100091A5B189BB2F4E7C0462C
:1056800003894089181A43425841C0B27047C04646
:10569000038941899C4682889BB288B28C4507D396
:1056A0001B1A9BB200209A4201D9D21A90B27047BD
:1056B0005100091A5B189BB2F4E7C04670B50400AC
:1056C00000690D00002803D00121494204F004FACA
:1056D000238962899C4698B291B2A388944532D3BB
:1056E000421A92B2002A27D0934208D298422FD36E
:1056F000C01A81B261818B4203D8C91A89B28B4228
:10570000FBD9E28823685204520C514328005918EF
:10571000FDF744FE618901254A1C92B2A38891429B
:105720000DD900225B00D21A20696281002801D0C5
:1057300004F0BAF9280070BD0025628992B25B00BE
:105740009A42F1DBEFE75A00521A821892B2C9E787
:10575000C01881B26181CEE7F0B54646D6464F46C5
:10576000C0B5060000698A46904682B0002803D082
:105770000121494204F0B0F931897289B5888BB2B0
:1057800094B2914255D31F1BBFB2002F4BD0BD42E4
:1057900005D2AB4252D25B199CB22F0074814346B2
:1057A000B8453ED89FB2A54203D8641BA4B2A54217
:1057B000FBD9F28831685204500C020062432B1B63
:1057C0009BB28918019002009F4225D943439BB2A6
:1057D0001A0050469946FDF7E1FD5046019A7D1B9F
:1057E0006419544331684844A2B2FDF7D7FD71896A
:1057F000B588CB199BB26A00994216D99B1A3069B9
:105800007381002801D004F04FF9380002B0E0BCE9
:10581000BA46B146A846F0BD50467A43FDF7BEFDF4
:10582000E5E73B1CBEE773899BB26A009342E6DB67
:10583000E4E76F003F1BDF19BFB2A6E75B1B9CB21A
:10584000ABE7C046F8B50400C0680F00002803D0DD
:105850000121494204F040F9258920896189A28803
:10586000ADB283B28EB2884228D39B1B9BB29A42C0
:1058700009D8E679F60906D1E068002801D004F0DD
:1058800013F93000F8BD2B0095421CD39B1A9BB234
:105890009342FBD2E28820685204520C53433900F1
:1058A000C018FDF77BFD6B1C9BB2A2889D4216D9E8
:1058B000002352009B1A01262381DDE75100891B3A
:1058C0005B189BB2D3E7E28820685204520C534322
:1058D0003900C018FDF762FD0135A288ABB2520055
:1058E0009342E8DBE6E7C046F0B54E464546DE4665
:1058F0005746E0B589460500160083B0002A6BD0F4
:10590000C068002803D00121494204F0E5F82F893E
:10591000EA79BBB298466B89AF889BB2D2093DD178
:10592000984562D27A00D31A43449BB2BB4261D2FB
:10593000FB1A1A1C9BB2B34200D9321C96B2F31B5D
:1059400001934346F3189BB29B46EA884446B84508
:1059500003D3E41BA4B2BC42FBD252043B1B570C42
:105960003A00624328689BB28018B34256D33A008B
:1059700049467243FDF712FDAB885B00D84501D85C
:105980009B4502DB5A46D31A9B465B4637002B8168
:10599000E868002821D004F087F81EE0BE422BD230
:1059A00098454CD34246D21A92B27900F01B921914
:1059B00001908A42C5DBDA1992B29346921B92B2E9
:1059C0009046934240D94346591A8BB29846F318F1
:1059D0009BB29B46EA88B9E70027380003B0F0BCC9
:1059E000BB46B246A946A046F0BD4246D31A9BB27A
:1059F000BB429DD30027CBE7002FC9D0CC46EA8815
:105A0000F61B5104490C714398468C44D919002364
:105A100089B2E1468B463E00019397E77B439BB2F8
:105A20001A0049469A46FDF7B9FC4946019B286889
:105A3000E2187A43514492B2FDF7B0FC9CE779003A
:105A4000CA1A424492B2B1E79142BCDDC2E7C046F5
:105A500010B50400C068002803D00121494204F0B9
:105A60003BF82069002803D00121494204F034F8B2
:105A70000023E06863812381002801D004F014F83A
:105A80002069002801D004F00FF8012010BDC046A5
:105A900070B50400C0680D00002803D00121494200
:105AA00004F01AF82069002803D00121494204F0CB
:105AB00013F87F21E279EB011140E0681943E171AD
:105AC000002801D003F0F0FF2069002801D003F086
:105AD000EBFF012070BDC046000000000000000088
