:020000041000EA
:1000000000B5324B212058609868022188439860DF
:10001000D860186158612E4B002199600421596104
:100020000121F02299502B49196001219960352056
:1000300000F044F80222904214D00621196600F024
:1000400034F8196E01211966002018661A6600F04E
:100050002CF8196E196E196E052000F02FF8012189
:100060000842F9D1002199601B49196000215960AB
:100070001A491B48016001219960EB211966A021F2
:10008000196600F012F800219960164914480160C1
:100090000121996001BC002800D000471248134993
:1000A000086003C880F30888084703B5996A0420EC
:1000B0000142FBD001200142F8D103BD02B5186610
:1000C0001866FFF7F2FF186E186E02BD00000240BE
:1000D000000000180000070000035F00212200005C
:1000E000F4000018222000A00001001008ED00E03C
:1000F000000000000000000000000000070B8FD58A
:1001000000200420F7010010CB010010CD010010E9
:10011000C9010010C9010010C9010010C901001077
:10012000C9010010C9010010C9010010CF01001061
:10013000C9010010C9010010D1010010D301001045
:10014000C1010010C1010010C1010010C101001067
:10015000C1010010C1010010C1010010C101001057
:10016000C1010010C1010010C1010010C101001047
:10017000C1010010C1010010C1010010C101001037
:10018000C1010010C1010010C1010010C101001027
:10019000C1010010C1010010C1010010C101001017
:1001A000C1010010C1010010C1010010C101001007
:1001B000C1010010C1010010C1010010C1010010F7
:1001C000EFF30580103800BE00BE00BE00BE00BECA
:1001D00000BE00BEF2EB88718CD30010B4D30010C7
:1001E0003802001090A31AE71E481F49086006C88D
:1001F00081F3088810471D480068002801D019487D
:10020000F3E70DA40ECC002902D000F012F8F9E7B4
:100210001749184A002000E001C19142FCD116495B
:100220008847164988471649884700BEFDE701C937
:1002300001C29A42FBD37047B4D30010C000002023
:10024000381000202CE300100000042000000420DF
:100250002CE3001000100420001004200000000017
:10026000704700000000000008ED00E0000000D032
:100270003810002078AA00201563001065030010D4
:100280000D630010F8B5C04606480749091A8B10DF
:10029000C90FC91810B5491003D0044B002B00D06A
:1002A000984710BD381000203810002000000000D2
:1002B000054B10B5002B03D00449054800E000BFF2
:1002C000FFF7E2FF10BDC046000000006C1E0020DA
:1002D00028C9001010B504001D480BF013FC002CB9
:1002E00008D0DC23E058002804D0642109F0FCFB8E
:1002F000012803D000200BF089FA10BD06F0D6FDCE
:100300005323A074E35C002B0DD1002813D02000F0
:100310000B2210492B3004F019FC20000C220E494E
:100320003F3004F013FCDC230022E05800210023BE
:1003300009F02CF8DEE720000C2208492B3004F0ED
:1003400005FC2000102206493F3004F0FFFBEAE7DD
:10035000DC05000028C9001034C9001040C9001095
:100360004CC90010F0B587B002AC06F0FDF800F003
:1003700093F82200D0270126354B3F0623CB23C21A
:100380001B68136020CC280002F0F6FC3300AB4061
:100390000022BB620121280002F0CAFC06AB9C428D
:1003A000F0D1012009F08EF900284ED0294C2A4BBB
:1003B00000252360DC23FF22E050893BE654013313
:1003C000E5520233E254254A7933E6540133E250D0
:1003D000802204331201E25029000433782220489D
:1003E000E554A580A571A560E5602582A57404F09B
:1003F000A7FB17221B491C480CF074F92A230E2274
:100400001A491B48E55404F0A1FB0D2219491A486A
:1004100004F09CFB01F0DCFF200001F0A5FB2000B4
:1004200001F00EFF200001F04BFD200000F01CFB4E
:10043000A8420BD023008022104911480195009654
:100440000BF014F90BF048F9FEE7FEE7FEE7C046B3
:100450008CCD0010681F0020580F0020001078007D
:10046000BF1F00205CC900107B1F002060C9001066
:10047000931F002070C90010A71F002080C9001022
:10048000D50200100123D02283401206002901D09A
:10049000536170479361FCE7F0B585B06A46D0269A
:1004A0006C460127094B360623CB23C21B68136019
:1004B00020CC280002F060FC3B00AB407362B361CB
:1004C00004AB9C42F4D105B0F0BDC0469CCD0010F9
:1004D00010B5024806F098F810BDC04688C9001053
:1004E000F0B557464E46DE464546E0B5D84B99B086
:1004F0001A8810A98A819B7806008B7315AB9846E1
:100500004246D44B370013CB13C2D34BD0240993AC
:100510002B239C46B444634607933F239C46B44434
:1005200063460893CD4B24060A93CD4B9946CD4B99
:100530009B46CD4B109313239C46B44463460F93C4
:10054000CA4B0E93CA4B1193CA4B0C93CA4B0B93D5
:10055000DC239A465B46CB46994602E005300BF019
:10056000D1FA002F00D131E15346F85800280FD0BE
:10057000052109F0B9FA012800D1F1E15346F858F4
:10058000002805D00A2109F0AFFA012800D102E2C3
:1005900006F08CFC0023039005935346F85800287E
:1005A00005D0052109F0A0FA012800D19DE063687B
:1005B0001B0700D5B5E1012501210C20FFF762FFE3
:1005C0001023626813400122D906C90F5140C9B2F5
:1005D000002B01D102231D430820FFF753FF2023E6
:1005E0006268134001229906C90F5140C9B2002B1D
:1005F00001D104231D430920FFF744FF002F00D041
:1006000090E0039B002B00D1A4E0059B002B00D1C0
:10061000ECE04346196801238B4062681A40531E80
:100620009A414B461B68934200D1A4E15B46934933
:100630001B888B4200D1A8E1594601339BB20B8045
:100640009900CB18132B00D99FE143465968012329
:100650008B4062681A40531E9A414B465B689A422F
:1006600000D1AFE05B4685495B888B4200D186E1D3
:10067000594601339BB24B809900CB18132B00D9FC
:100680007DE14246916801228A40636813405A1E08
:1006900093414A4692689A4200D1A3E05A4677496C
:1006A00092888A4200D12CE15946013292B28A8066
:1006B00091008A18132A00D923E1002F09D053464C
:1006C000F858002805D00A2109F00EFA012800D1B7
:1006D0002FE10021002007F083FC002800D13DE736
:1006E00014A9002007F08EFCF3E7D823FE5C5346E4
:1006F0000021F8580022002308F048FE0123656815
:100700002D07ED0F5D40EDB22900002E00D154E71A
:100710006368DB0601D402231D4363689B0601D492
:1007200004231D435346F858002800D169E70521EA
:1007300009F0DAF9012800D063E7D723FD545346C6
:100740000022F8580021002308F020FE039B002B14
:1007500000D05AE74246116801228A40636813407C
:100760005A1E93414A461268934200D1CFE05A463E
:10077000424912888A4200D1CDE05946013292B2F4
:100780000A8091008A18132A00D9C4E042465168B1
:1007900001228A40636813405A1E93414A465268B8
:1007A00093420FD05A46354952888A4208D059465A
:1007B000013292B24A8091008A18132A00D860E769
:1007C0004A46536000235A4653805AE706F06EFBB0
:1007D000636803901B0700D4A6E0002300250021D6
:1007E0000593EAE600235A46938066E74D4646465F
:1007F000B9465F4613AA0492029606950121029B10
:1008000062681B6899400A401000431E984129689D
:100810001600884219D03B88184A934232D00133DF
:100820009BB29A003B809B18132B2BD8029B04355C
:1008300004330293049B023701330493104B9D420F
:10084000DCD1069B4F46994637E700233B80EDE716
:100850001CCA0010ACCD0010E8C90010F4C900108B
:10086000581F00205C0F002004CA001028C9001087
:1008700010CA001040C900104CC90010FFFF000052
:10088000680F0020002328603B80012900D1BCE0D4
:100890000029CBD1002EC9D010AA80331374049B39
:1008A00000201B7853740D9300239374032314AA20
:1008B00007F0E2FB4B46002BB8D0DC22985800280A
:1008C000B4D00A2109F010F90128AFD10D9B109E78
:1008D000320018210F9805F0DBFC0E990B220798C7
:1008E00004F034F932000D9B1421089805F0D0FC77
:1008F000DC26002348461A001900805908F046FDFE
:1009000094E74A46936000235A469380D5E65B46B7
:10091000039A1A803AE74A46136000235A46138026
:1009200034E70025002148E6002301250121059335
:1009300043E63A686368002A02D05B07DB0F136066
:10094000039BBB74002B03D1059B002B00D180E0DF
:1009500053460022F8580021002308F017FDB8E69E
:10096000D623FA5C002A24D153460021F8580023EC
:1009700008F00CFD02E600235A46138065E64B465C
:100980005A6000235A4653807BE64B461A60002388
:100990005A46138059E65323FB5C002205935346C5
:1009A0000021F858002308F0F1FC06F07FFA0390CC
:1009B000F3E5D022BE5C013ABD5C00221421FA545A
:1009C00007983300099A009505F062FC0D220A99F8
:1009D000089804F0BBF8534600220021F858002381
:1009E00008F0D4FC06F062FA002800D1C6E54023E6
:1009F000013D5B4210AA2B4313745674022300215D
:100A000014AA002007F038FBB8E5002E00D00DE74F
:100A1000902310AA1374049B00211B7800205374A8
:100A20000D9364239374613B14AA07F025FB4B4696
:100A3000002B00D1FAE6DC229858B04200D1F5E64E
:100A40000A2109F051F8012800D0EFE60D9B119E14
:100A50003EE70C990C22079804F078F810220B99C5
:100A6000089804F073F873E710B584B003AC002263
:100A7000019405240392803203000449009452003B
:100A800003480AF0F3FD039804B010BD20CA00101B
:100A9000E1040010F0B55746DE4645464E460023B9
:100AA0005722E0B589B083541432835414328354EE
:100AB000143283541432835414328354974B984F16
:100AC00007931B7805005C019A463B59142101935A
:100AD0000E23944A0093573005F0DAFB924B1B78B3
:100AE000022B00D18DE0914B914A984611781B78EA
:100AF00093468B4267D219001370181DFF22834260
:100B000000D2A9E056233C19EA54237F00249946D9
:100B1000884B2E000593884B091906932B006B36E2
:100B2000C9B235003E001F00894521D943461A78D5
:100B30000134059BE4B28A4200D1804B5246D20078
:100B400052189200B2185268142102920D22280005
:100B500001920092069A05F09BFB0023AB73042CD4
:100B600006D05B46197814350919C9B28945DDD814
:100B700049463D0004290ED95B461878800003F0F1
:100B80000DFC0422032864D993009B1823229B00A8
:100B9000EB1864331A70079B1B78002B20D0012BB5
:100BA00000D188E0022B00D176E043461B78552225
:100BB000AB545423543AEA5409B0F0BCBB46B24695
:100BC000A946A046F0BD081DC2B2934296D35A462C
:100BD000D91EC9B21170FF228B4293D3081D8DE735
:100BE000FF21E87AAB88019028891B0900090B4096
:100BF000014028000091524A1421BB3005F048FB07
:100C0000D3E75622AB54079B1A78002A27D0474BCC
:100C100098461B78012A5CD0022AC8D1002B6AD0E2
:100C2000012BC4D10922474928006B3003F08EFF05
:100C3000454B464A1B78280014217F3005F028FBDD
:100C400028000B224249BB3003F080FF43461B784B
:100C5000ADE70130C2B297E701335A1A52E72800D4
:100C60003C490C326B3003F071FF2800364B1421E5
:100C70001B78394A7F3005F00BFB28000B223449E2
:100C8000A73003F063FF28000C223449BB3003F087
:100C90005DFF264B1B788AE72800D233EB5CBB3024
:100CA000002B14D02E4BD521695C2E4A00911421C3
:100CB00005F0EEFA79E7CF212800695CD033EB5CD0
:100CC000294A0091BB30142105F0E2FA6DE7274B69
:100CD000E9E7002B05D0012B00D068E70A22244960
:100CE000A2E72800093223496B3003F02FFF164B8F
:100CF000194A1B789FE728001F490A326B3003F01E
:100D000025FF2800104B7F301B78002B03D01B4B96
:100D100014211B4A92E7154BFAE7C04672AA00203D
:100D2000CCCD00103CCA00106A0F002076AA00202B
:100D300071AA002034CA0010B0CA001030CA0010D6
:100D4000BCCA0010A4CA001070AA002088CA0010F3
:100D500058CA001044CA001050CA001064CA0010DB
:100D600038CA0010D8CA0010CCCA00102CCA001013
:100D70007CCA001070CA001090CA001028CA001067
:100D80009CCA00100121094B094A197000231370F5
:100D9000084A1370084A1370084A1370084A13600F
:100DA000002801D05333C1547047C0466A0F002059
:100DB00072AA002076AA002071AA002070AA002042
:100DC000641F002070B5041E1CD000291AD05320C7
:100DD000225C0B78002A16D0B84802789446B84AAC
:100DE0001578022D4CD0012B2BD0032B1FD0022BBA
:100DF00008D16346002B00D170E0012B00D1DBE06D
:100E0000022B5AD070BD032BFCD10121AC4B2154D5
:100E10001970AA4B20001A70AA4B1A70AA4B1A70AC
:100E2000AA4B1A70AA4B1A60FFF734FEEAE7634632
:100E3000002BE7D00023A34A03701370A24A13705B
:100E4000E0E70123CB56002BDCD09E499E480A7870
:100E50000478D21800D5BEE065469E4B6D015B1943
:100E60001B7F013B934200DD1300DBB20B709C4201
:100E700004D80434E4B2A342C4D3033B0370C1E7F3
:100E8000012B7BD0022B0CD0032BBBD16346002B54
:100E900000D0D7E0904B1978D023E1540123137090
:100EA000B0E76346002B00D09DE0884B1978D02333
:100EB000E15401210633E154F0E782490B78022B1B
:100EC00000D1E8E002211170002B00D0C8E0D4333B
:100ED000E35C824A13707D4A137093E779490B787B
:100EE000042B00D98EE77E4D9B00EB589F460223D2
:100EF00003700023744A0B70137083E709F0D4FB6E
:100F0000734B060019681D0000290CD081420AD2DB
:100F1000411A0A00734B963A9A4204D8724803F079
:100F20003DFAD223E0522000D2232E601421E35A4E
:100F30006E4A2B3005F0ACF920000A226C493F3094
:100F400003F004FE5EE70123D2E702231370CE33E1
:100F5000E35C614A13705D4A137053E75323002228
:100F60002000E25463490B322B3003F0EFFD2000E8
:100F70000A2261493F3003F0E9FD43E70123CB56E4
:100F8000002B00D13EE76246002A4CD0012A46D011
:100F9000022A00D036E74B4A1278002A70D14B491A
:100FA0000A78D318002B02DD01230B702AE7DA43FD
:100FB000D21713400B7025E742490B78022B23D040
:100FC00002211170002B36D1D133E35C4B4A1370F0
:100FD0003E4A137016E700230B70002C00D111E776
:100FE000002303700EE7012B41D0022B00D055E700
:100FF000344B1B78002B00D08FE0344B1B78591EEC
:101000008B41D421635449E70023012203702E4B06
:101010000A701978012900D8F4E61A70F2E6294A14
:101020001278002A2CD129490A78D3187F2BBEDDEB
:101030007F230B70E6E6CF23314AE35C1370234A2B
:101040001370DFE6012B5FD0022B00D026E71D4B8B
:101050001B78002B71D1214B1978D423E1541DE763
:10106000D523284AE35C1370184A1370CAE6154B5F
:101070001B78002B1AD1154B1978D123E1540DE7B9
:10108000012A00D0BEE611490A78D318102B5CDD86
:1010900010230B70B6E60023032203700A4B0A707C
:1010A0001978032900D8ADE61A70ABE6012B00D001
:1010B000F4E6064B1978CF23E154EFE672AA00203C
:1010C0006A0F002076AA002071AA002070AA0020D2
:1010D000641F0020CCCD001075AA002073AA002048
:1010E000B8CD00103A07000060EA0000E4CA001022
:1010F000F0CA001028C90010FCCA001074AA002011
:10110000690F0020680F0020124B1B78002B0CD1B8
:10111000114B1978D123E154C0E6012B00D0BDE674
:101120000E4B1978D523E154B8E6012B00D0B5E673
:101130000B4B1978CF23E154B0E6012B00D0ADE67C
:10114000084B1978D523E154A8E6002B00DC2BE7E7
:101150000B7057E676AA002074AA002070AA00201F
:10116000690F0020680F002010B5002801D0FFF79C
:1011700091FC10BDF0B5DE464E4645465746E0B5FB
:101180000022050095B00221082008F0AFF8060003
:1011900009F08AFA83462800FFF7F4FD002D00D1FC
:1011A0001BE3DC27E859002806D0642108F09CFCEA
:1011B000012801D100F0A2FC5B46069300239A4669
:1011C000089309930A931093013B0B930023C64A9B
:1011D000DC271192C54A0C930F925A469B4613ACDA
:1011E000079202F0C1FC002924D0FA2200239200C9
:1011F00003F012F953468046022B23D0032B73D001
:101200000422D02311001B065B68194089461A424C
:1012100000D026E15B46002B00D019E2DC23E85821
:1012200043460C93002800D0DEE159460730FFF713
:1012300029F9FDE1FA21890003F0B0F85346804610
:10124000022BDBD1E859002805D00A2108F04CFC1C
:10125000012800D161E24346099A9B1A312B00D93B
:1012600006E2D0231B065B685B0756D55B46002B66
:101270005AD000210820FFF705F900210920FFF7C7
:1012800001F900210C20FFF7FDF807200021FFF7EE
:10129000F9F843460C9AE8599B1A9846002800D161
:1012A00081E20A2108F020FC012801D100F034FC81
:1012B0004346132B00D88BE296239B00984501D31D
:1012C00003239A4653462370002300222100300056
:1012D000637008F05BF800239B4659460720FFF730
:1012E000D1F800239A461FE0E859002805D00A21CA
:1012F00008F0FAFB012800D1E1E14346099A9B1A64
:10130000FA229200934200D33CE1D0231B065B6893
:101310005B0700D529E103239A465B46002B03D1E6
:1013200043460C9301239B46E859002805D00A2127
:1013300008F0DAFB012800D1DAE0002221003000B9
:1013400008F084FA012822D1E8590028F5D01421A8
:1013500008F0CAFB0128F0D121002800FFF732FD78
:101360005323EB5C002B6DD12378012B02D1EB686A
:101370000133EB60002200210023E85908F006F851
:1013800000222100300008F061FA0128DCD009F0C9
:101390008BF9079A8046831A069A9946831AFA228D
:1013A0009200934249D3E85900284FD00A2108F00F
:1013B0009BFB012800D1C6E0FA235B00994500D2CF
:1013C000CEE04346069300230A93E85900282ED026
:1013D0000A2108F089FB012829D1D723EB5C0E9361
:1013E000AB79A9889C46EB7A2A8907932B8A994680
:1013F000EB680D930E9B18403030C0B203909807F5
:10140000C00F303004900D985B0702904846DB0F08
:1014100030330593079B019000930F98634605F0C6
:1014200075F9002300220021E85907F0AFFF434679
:10143000079332200AF066FBD3E6FA235B00994556
:10144000C3D2F6E72800FFF78FFE8DE7FA235B0093
:10145000994500D284E043460693079300230A93FC
:10146000E7E75B46002B36D0089B002B31D1534673
:10147000012B00D02FE743460C9A00219B1A08202D
:101480009846FEF7FFFF00210920FEF7FBFF0C2026
:101490000021FEF7F7FFE859002805D00A2108F0DF
:1014A00023FB012800D11BE34346132B00D812E78E
:1014B00000229623110040469B00984251418B1C0C
:1014C0002370210013003000627007F05FFF0023DB
:1014D00002E7002308935346002B00D1FCE60123CA
:1014E0009A4600239B461FE72CCE001050CB0010DD
:1014F000AB7A0B9A9846002A00DAB6E05323EB5CED
:10150000002B00D136E7424500D1AEE009F0CCF81F
:1015100010998146431A3B2B00D8A6E00A9B0B9AF0
:1015200001330A93119B904500DC4FE11B88238017
:10153000002321001A00300007F028FF4B461093CB
:1015400043460B9316E70A9B00222B8200210023BF
:10155000E85907F01BFFFA235B00994500D330E7F9
:101560004346069300230A9363E701235A465A40F1
:101570001300089A1340DBB2089303239A46002312
:101580009B46D1E600210720FEF77CFF00210820C2
:10159000FEF778FF00210920FEF774FF0C200021E0
:1015A000FEF770FFFEF794FFE859002800D190E0A5
:1015B0000A2108F099FA8246012800D1D6E00422D7
:1015C000D02311001B065B68194089461A4200D0DF
:1015D0008BE05B46002B00D0C6E043460C93012312
:1015E000E859089300281BD00A2108F07DFA012849
:1015F00000D1A5E200210720FEF744FFC94B994521
:1016000000D993E0FA239B00994511D3FA230121D5
:101610000820DB0099450DD3FEF734FF01210CE0D3
:1016200000210720FEF72EFF43460C930123089369
:1016300000210820FEF726FF00210920FEF722FFE7
:1016400000210C20FEF71EFF01239A469B466BE605
:101650005346012B00D040E643460C9A9B1A99460C
:10166000DC23E8580028BFD1C4E743460B9381E64A
:1016700000210820FEF706FF00210920FEF702FFE7
:1016800000210C20FEF7FEFE01210720FEF7FAFEE6
:1016900001210820FEF7F6FE01210920FEF7F2FEE7
:1016A0000C200121FEF7EEFEE859002824D00A2183
:1016B00008F01AFA43460993012800D025E6D823FA
:1016C00001220021EA54E8590023002207F05EFEBF
:1016D00013E6D0231B065B685B0706D45B46002B32
:1016E0009ED001239B460893F7E501235A465A40B2
:1016F000002308929B46F0E5D0231B065B685B073E
:1017000027D45B46002B03D143460C9301239B4611
:101710004346099303239A460FE6D8230022E85450
:1017200000210023E85907F031FE94E5012108204B
:10173000FEF7A8FE01210920FEF7A4FE01210C20DE
:10174000FEF7A0FE4346099302239A46013B9B46BF
:10175000EAE55B46002BDBD04346099300239B461A
:10176000089303339A46E8E50893B6E50022D823A8
:101770000021EA54E859002307F008FE0422D02390
:1017800011001B065B68194089461A4216D15B4658
:10179000002BA6D1E859584500D1DBE143460C9314
:1017A0000123089320E7132B00D985E501000720CA
:1017B000FEF768FE00239B469A46B5E55A46534617
:1017C0005340DBB2089300239B4686E59B88AEE638
:1017D00000210720FEF756FEECE7FA239B00DA46CD
:1017E0002F00A846994607950695089513AC02F078
:1017F000BBF900293AD1FA21890002F0CFFD05009A
:10180000022F3BD0032F69D0D0231B065B685B07F8
:1018100000D489E04346002B7DD0079B002B78D174
:10182000012F00D135E10023984641460720FEF7FD
:1018300029FE002700222100300008F007F80128C7
:10184000F8D008F031FF5B46C21A5346C31A4B4525
:101850003ED3FA2382465B009A4200D3834632206D
:101860000AF050F902F080F90029C4D0FA220023CE
:10187000920002F0D1FD0500022FC3D1069BEB1AA6
:10188000312B00D9A9E0D0231B065B685B0739D553
:101890004346002BCED000210820FEF7F3FD0021A7
:1018A0000920FEF7EFFD00210C20FEF7EBFD0021E3
:1018B0000720FEF7E7FD089BED1A132D00D9C6E0BF
:1018C00000210720FEF7DEFD002398461F00B1E748
:1018D000FA235B009A42C2D38346C0E7069BEB1A09
:1018E0004B455ED2D0231B065B685B070AD50123FC
:1018F00042465A401300079A1340DBB20793002375
:10190000984697E74346002B94D1013398460895B3
:1019100090E70023079300239846002F85D00127E6
:1019200088E7C046B70B00004346002B13D11900CF
:101930000720FEF7A7FD012700210820FEF7A2FDE2
:1019400000210920FEF79EFD00210C20FEF79AFDE4
:10195000B84608956EE7012F00D066E7089B002186
:10196000EB1A07200993FEF78DFD7E4B099A9A42E8
:101970007DD8FA23099A9B009A4200D2EFE0FA231D
:1019800001210820DB009A4200D2B3E0FEF77AFD85
:1019900001210920FEF776FD00210C20FEF772FDE3
:1019A00048E700210720FEF76DFD00210820FEF723
:1019B00069FD00210920FEF765FD00210C20FEF7DE
:1019C00061FDFEF785FDD0231B065B685B0734D500
:1019D000012342465A40079225E700210820FEF7DE
:1019E00051FD00210920FEF74DFD00210C20FEF7DE
:1019F00049FD01210720FEF745FD01210820FEF7E2
:101A000041FD01210920FEF73DFD01210C20FEF7DB
:101A100039FDD0231B065B685B0708D54346069556
:101A2000002B08D0002303279846079302E743467C
:101A3000002B4FD006950327FCE64346002B25D10B
:101A400041460720FEF71EFD0123079373E7962307
:101A50009B009D4200D30327002521002B002A0074
:101A600030002770657007F091FCA846DDE6012183
:101A70000820FEF707FD01210920FEF703FD0121E3
:101A80000C20FEF7FFFC02270695D3E6434607939A
:101A9000CBE6089B00210820ED1AFEF7F3FC00219D
:101AA0000920FEF7EFFC00210C20FEF7EBFC132DC4
:101AB00000D8B8E6079A962311009B009D42514139
:101AC0008B1C23700023627021001A00300007F085
:101AD0005DFCA8E601230327984608950695A9E62C
:101AE000D823089AE859EA5400231A00190007F08D
:101AF0004DFCD9E4FEF7C6FC00214AE70024D823B8
:101B00002800EC54FFF730FB230022002100E859A5
:101B100007F03CFCFFF750FB002399464A46D833B8
:101B2000EA5449464B46E85907F030FC4346132B2C
:101B300001D9FFF7C1FB49460720FEF7A3FC39E6B0
:101B4000D823E8540023DB301A001900285807F086
:101B50001DFC4FE559460720FEF794FC64E5089DFF
:101B6000E9E6C046B70B000010B50024802282B021
:101B7000019402340300044900949200034809F0E0
:101B800075FD02B010BDC04694CB00107511001059
:101B9000F0B5DE46574645464E46E0B5EBB004008C
:101BA0001422002110A802F0CBFF1422002115A856
:101BB00002F0C6FF782200212EA802F0C1FF0F23F9
:101BC0000E220B210A200093023B00F015FC372067
:101BD00000F096FDFF220B920792B44A0023904634
:101BE000FF220A92B24A0592B24A06922B229446EA
:101BF000A44462460D923F229446A44462460E924B
:101C000057229446A44462460F92AB4A0C92AB4AC8
:101C10009246DC22934642469846049266E05B4632
:101C2000E058002805D0322107F05EFF06000128A9
:101C30006FD0002300931421059A24A804F028FBF8
:101C40002E23142101930093069A29A804F020FB67
:101C5000002300270025039310A91AA80AF072FD9B
:101C6000002809D115A91FA80AF06CFD002803D18E
:101C7000049BAB4200D100E113221AA910A80AF07C
:101C800031FD13221FA915A80AF02CFD00F0EEFD6E
:101C90000021002000F0CAFE0C9800F0D1FE0121C6
:101CA000002000F0C3FE24A800F0CAFE022100209C
:101CB00000F0BCFE29A800F0C3FE0321002000F0C4
:101CC000B5FE1AA800F0BCFE0421002000F0AEFE14
:101CD0001FA800F0B5FE00F0DDFD039B0B970793F6
:101CE000002398460495C82009F00CFF53461022A3
:101CF00000211BA81A9302F023FF53461022002153
:101D000020A81F9302F01CFF002C88D10023009410
:101D100091E7D723002513220D991AA8E75C0AF052
:101D2000E1FC0EAB433313220E991FA81D700AF07D
:101D3000D9FC0EAB57331D70A3797822039353233C
:101D4000E15C01330891E35C0F9909935623E05C51
:101D5000A58881464CA802F0F9FE584600230022CF
:101D60000021205807F012FB039A14212B00009247
:101D700024A8059A3E4004F08BFA73427341022274
:101D80003A4051424A4103207907C91781439200E2
:101D90002A322E319B00019100921421069A2A3397
:101DA00029A804F075FA0899002900D154E7099B85
:101DB000002B37D000F05AFD00274CAEF9B20020BE
:101DC00000F034FE0137300000F03AFE1436062FE2
:101DD000F4D14B46052B21D900F05CFD78224CA9AB
:101DE0002EA802F0B3FE5B46E058002804D0322152
:101DF00007F07AFE01284ED013221AA910A80AF083
:101E000071FC13221FA915A80AF06CFC089B04950D
:101E10009846039B07934B460A9364E7484600F0B5
:101E20005FFFD9E72EA94CA80AF08CFC0028C1D18D
:101E300033A951A80AF086FC0028BBD138A956A8BE
:101E40000AF080FC0028B5D13DA95BA80AF07AFC15
:101E50000028AFD142A960A80AF074FC0028A9D1DB
:101E600047A965A80AF06EFC0028A3D1089B9846F4
:101E70000A9B4B4500D136E79CE7079B039A9342A8
:101E800000D0F9E64346002B00D0F5E60B9BBB42A1
:101E900000D0F1E627E754230022E2545B460021FC
:101EA000E058002307F072FAA6E7C046FFFF0000E3
:101EB00098CB0010A8CB0010B4CB00102D2D2D0016
:101EC00010B50024802282B001940134030004493B
:101ED00000945200034809F0C9FB02B010BDC0468F
:101EE000C0CB0010911B0010F0B5DE4657464E46A1
:101EF0004546E0B587B0019008F0D6FB039004F0AA
:101F000005FD1F211D2000F0FBFE002200211D20E9
:101F100000F00EFF00211D2000F01CFF0023002612
:101F200004279A46BC4BBD4C9B46BD4B0293C02335
:101F30009B019946E023DB019846BA4B802204219D
:101F400000259C46520048462368434040460340D3
:101F500060460360B44B1F6023681342FCD0636883
:101F600001391B041B0CED180029ECD15B46AD08B0
:101F70001A682B041B0CA9B288469946002A07D080
:101F80009B1A9B109B181A04120C91469AB2904609
:101F90005A46136008F088FB5346002B05D0039B7C
:101FA000C01AFA235B0098423FD24B461B0A0F2B04
:101FB00037D8D801C01A0F21DEB202F0EFF9C3B250
:101FC0009A46019B002B09D0DC229858002805D0A6
:101FD0000A2107F089FD012800D1E2E004F066FF44
:101FE00000281AD0029B1B78534510D08F4B04AAAF
:101FF00093801300524600219A710020032305AA02
:1020000006F03AF8002802D05246029B1A7032209D
:1020100009F078FD01239A4689E7FF23029A13709D
:10202000F5E77F230F269A46CBE732021300711C97
:102030005C339BB20F2900D99BE0A43292B2424597
:1020400000D3DFE0B01CC0B2102800D18FE0C9B2CD
:102050000B021A00A43292B2904500D8CAE0F21CDA
:10206000D2B2102A00D182E003021900A43189B251
:10207000414500D3C9E0311DC9B2102977D0130200
:102080001800A43080B2404500D3B7E0721DD2B230
:10209000102A6CD00B021800A43080B2404500D347
:1020A000A8E0B11DC9B2102961D013021800A430F4
:1020B00080B2404500D3A1E0F21DD2B2102A56D022
:1020C0000B021800A43080B2404500D392E03100EA
:1020D0000831C9B210294AD013021800A43080B2C6
:1020E000804500D88AE032000932D2B2102A3ED0B0
:1020F0000B021800A43080B280457BD931000A3130
:10210000C9B2102933D013021800A43080B2804520
:1021100074D932000B32D2B2102A28D00B02180028
:10212000A43080B2804565D931000C31C9B2102984
:102130001DD013021800A43080B280455ED9320051
:102140000D32D2B2102A12D00B021800A43080B285
:1021500080454FD9022E0AD013021900A43189B24A
:1021600088454BD9002E02D1314B984551D90F26C5
:10217000304B3202A43A404692B207E0013E511E73
:10218000F6B21300FF39002E30D08AB28342F5D860
:102190008046F0010F21801B02F000F9C3B29A467D
:1021A0000FE7019B24499D801D0043462B814B4630
:1021B000D801C01A80231B01C01802F0EFF83302C7
:1021C00033436B8153232A00A871ED5C8933D058C7
:1021D00000210023002207F0D9F804F067FE002850
:1021E00000D11AE7002D00D011E7FBE6804600235E
:1021F0009A46E6E65C330E009BB2BAE75C33160003
:102200009BB2B6E7002EB4D1F1E75C3306009BB277
:10221000AFE70A4B0E36ACE7601F002000C0044059
:102220006B0F002000D0044000E00440B01000001C
:10223000A40E00005C0F0000FF0F00005C0E000009
:1022400010B50024802282B00194013403000449B7
:1022500000945200034809F009FA02B010BDC046CC
:10226000C8CB0010E91E001000487047DCCE0010FB
:102270000048704734CE001010B5022800D16AE043
:1022800019D8002811D052233E4843803E4B43606A
:102290003E4B83603E4BC3603E4B03613E4B43610C
:1022A000692303833D4B038010BD3D4B354843807C
:1022B000063BFF3BF7E703285FD13A4C2378002B1E
:1022C00056D020000AF082FA031E58D02D482278FA
:1022D0004280012B39D062788280022B35D0A278DF
:1022E000C280032B31D0E2780281042B2DD02279D9
:1022F0004281052B29D062798281062B25D0A279D3
:10230000C281072B21D0E2790282082B1DD0227ACC
:102310004282092B19D0627A82820A2B15D0A27AC6
:10232000C2820B2B11D0E27A02830C2B0DD0227BC0
:1023300042830D2B09D0627B82830E2B05D0A27BBA
:10234000C283102B01D1E27B0284C02201335B00E7
:1023500092001343A7E70B48134A0400831C26345A
:102360001178013219800233A342F9D10F4B9AE759
:102370001121200004F0EEFAA3E7002094E70C4BB3
:10238000004890E73815002061007300700062007B
:102390006500720072007900200050001A030000EE
:1023A0000904000048140020CCCB001026030000D4
:1023B000020300000021002010B506F0A5F801205E
:1023C0000021404204F0FAFD012009F09BFBF6E7F2
:1023D0000023802200B583B00193073300930449A2
:1023E00000235200034809F041F903B000BDC04684
:1023F000E0CB0010B5230010F8B5DE4657464E4638
:102400004546E0B5B64D0AAC2970B64926788946EE
:102410000A70B54AB54C1370B54B90469A461E707B
:10242000207000F0A9FC287800F0A6FC4B46187834
:1024300000F0A2FC4346187800F09EFC53460127AA
:10244000187800F099FC3A002378D0269A40360696
:1024500072623A002B7839009A404B4672623A0019
:102460001B780A209A40434672623A001B789A40D1
:10247000534672621B78994071627261B16101F0DA
:10248000B3FB53463A001B780A209A40726101F070
:10249000ABFB4B463A001B789A404346B2611B782F
:1024A0009F4007239A461A33B7619B46012710E0E5
:1024B00073610120002101F061FB3A0023780120C3
:1024C0009A400021726101F059FB5346013B0FD342
:1024D0009A463A00237851469A40B2613A002B78E6
:1024E0009A4013005A460A411742E1D1B361E0E72E
:1024F00043461A780123190091400A00D0210906A9
:102500004A618A464946097807278B4051468B61C4
:10251000142301269B468A6111E052465361012033
:10252000002101F02BFB3200237801209A40130098
:1025300052460021536101F021FB013F10D33200CC
:1025400023789A4013005246936132002B789A40C8
:1025500013005A463A411642DFD152469361DEE7F4
:1025600043461A780123190091400A00D021090638
:102570004A618A464946097807278B4051468B6154
:10258000B52301269B468A6111E052465361012022
:10259000002101F0F3FA3200237801209A40130061
:1025A00052460021536101F0E9FA013F10D3320095
:1025B00023789A4013005246936132002B789A4058
:1025C00013005A463A411642DFD152469361DEE784
:1025D00043461A780123190091400A00D0210906C8
:1025E0004A618A464946097807278B4051468B61E4
:1025F000202301269B468A6111E052465361012047
:10260000002101F0BBFA3200237801209A40130028
:1026100052460021536101F0B1FA013F10D332005C
:1026200023789A4013005246936132002B789A40E7
:1026300013005A463A411642DFD152469361DEE713
:1026400043461A780123190091400A00D021090657
:102650004A618A464946097807278B4051468B6173
:102660000C23012699468A6111E0524653610120EC
:10267000002101F083FA3200237801209A401300F0
:1026800052460021536101F079FA013F10D3320024
:1026900023789A4013005246936132002B789A4077
:1026A00013004A463A411642DFD152469361DEE7B3
:1026B00043461A7801239340D02212065361FC222C
:1026C000002152000B4802F03BFA00220A4B1A701C
:1026D0000A4B1A70F0BCBB46B246A946A046F8BDEC
:1026E00069AA002068AA002065AA00206BAA002021
:1026F0006AAA00207C15002066AA002067AA002094
:10270000F0B557464E464546DE46E0B5534BD0271A
:102710001A789B4601231900914083B0504A3F0626
:102720000190B9619246127807269340BB614D4BE8
:102730000125984621234C4C99460EE07B610120EF
:10274000002101F01BFA2A00237801209A40002181
:102750007A6101F013FA013E0ED32A0023789A40E1
:102760004346BA612A001B789A4013004A46324118
:102770001542E3D1BB61E2E753461A780123190001
:10278000D02791403F0679610A005946097807260B
:102790008B40BB618023BA61019A01251A4391469F
:1027A0000EE07B610120002101F0E8F92A00237886
:1027B00001209A4000217A6101F0E0F9013E0ED338
:1027C0002A0023789A404346BA612A001B789A402F
:1027D00013004A4632411542E3D1BB61E2E753465A
:1027E0001A7801231900D02791403F0679610A0029
:1027F0005946097807268B40BB612023012599465D
:10280000BA610EE07B610120002101F0B7F92A00D6
:10281000237801209A4000217A6101F0AFF9013E4E
:102820000ED32A0023789A404346BA612A001B78C7
:102830009A4013004A4632411542E3D1BB61E2E7B8
:1028400053461A7801239340D0221206536103B0F5
:10285000F0BCBB46B246A946A046F0BD68AA00201F
:1028600065AA002069AA00206BAA0020FC2210B5EE
:1028700052000021044802F063F90022034B1A7051
:10288000034B1A7010BDC0467C15002066AA0020BC
:1028900067AA0020F0B54E46DE4657464546E0B5ED
:1028A0005D4A85B00192002203925C4AD0260292D2
:1028B0005B4A012491465B4B5B4F9B461B78360677
:1028C0002100039A07259246029A1278914022002D
:1028D0009A408023B1619846B2610EE07361012095
:1028E000002101F04BF922003B7801209A400021A1
:1028F000726101F043F9013D0ED322003B789A400A
:102900004B46B26122001B789A40130042462A418E
:102910001442E3D1B361E2E75B4622001B78210059
:102920009A4072611300029A07251278914052462C
:10293000B161B36140231A43D3B298460EE073618C
:102940000120002101F01AF922003B7801209A4071
:102950000021726101F012F9013D0ED322003B7893
:102960009A404B46B26122001B789A4013004246BF
:102970002A411442E3D1B361E2E75B4622001B78AF
:1029800054219A407261019A494252189246524625
:102990002100127807259046029A12789140220071
:1029A0009A407161B2610EE073610120002101F073
:1029B000E5F822003B7801209A400021726101F085
:1029C000DDF8013D0ED322003B789A404B46B261C0
:1029D00022001B789A40130042462A411442E3D158
:1029E000B361E2E75B4622001B789A4072610122E4
:1029F0009244019A5245CAD11100039A54310132CE
:102A000003920191062A00D05AE705B0F0BCBB46FC
:102A1000B246A946A046F0BDD015002068AA002005
:102A200069AA002065AA00206BAA0020024B18703A
:102A3000024B19707047C04666AA002067AA0020A2
:102A4000F0B5DE4657464E464546E0B5017885B0BE
:102A5000002932D000259E4C0195A14623780C0018
:102A60009C4D9D4A02959D4D9246127803950A2CE5
:102A70002DD10132D2B2052A00D8B4E04278431CED
:102A8000002A00D101E10A2A00D077E084780230E0
:102A9000002C00D1FFE00A2C16D1012344780193C9
:102AA000013002220023002CE1D101994C46D4468A
:102AB000002901D061460A70237005B0F0BCBB4606
:102AC000B246A946A046F0BD0023093A019200266D
:102AD00000273A25203CE1B28D427E4171422140DF
:102AE00054245443A4465C1CE4B2532B19D9532CF0
:102AF00031D8FC24FF236400A44500DAA7E0DC1CE5
:102B0000E4B2542C00D091E051230633DBB2447878
:102B10000130002CABD101994C46D4460029C9D1D3
:102B2000CAE71D00FC2665442F007600B54251DB44
:102B3000542C31D11C1DE4B2532CE6D8FC2564443E
:102B40006D00AC42E1DA039D8E00711869180979B5
:102B5000029D2955D9E765469C1CE4B26619532CA1
:102B600000D99FE0FC235B009E4255DB63465E1C60
:102B7000FC235B009E427DDBFA3BC6E7203AD1B2E4
:102B80003A291ED90021534A18001170002301224E
:102B9000012401929C4600226444A046FC24640067
:102BA000A04524DA8D00AB4645464C4C8B445C4432
:102BB0006478484E74559C1CE4B2542C1BD15223AB
:102BC000A3E71100180001220023019201249C4672
:102BD000002200278D00A846884445463F4EAE5D42
:102BE0003C4DEE55A4E70123019300238FE79C1C85
:102BF000E4B2542CE3D06444A046FC246400A04515
:102C000000DB7CE78D00AB464546344C8B445C448E
:102C1000304EA478745572E78D00A8462F4B884437
:102C200043442C4C9B78A3550124FE236444A046C6
:102C3000FC246400A04500DB7CE78D00AB464546E4
:102C4000264C8B445C44234EE478745572E78D0027
:102C5000A846224B884443445D781E4E2F006546AB
:102C6000775501256544A54201DA9B787355022406
:102C7000FF23DBE78D00A846184B88444344154CDE
:102C8000DB78A355FE23022458E7D44661464C4620
:102C900000230A7010E7D446012261464C46002307
:102CA0000A7009E7DC1CE4B26619532C00D941E72D
:102CB000FC235B009E4201DBFB3B26E705254D43E1
:102CC000064B044C5B19DB78A355FD23012435E743
:102CD00066AA00207C15002067AA0020F0CE001014
:102CE00005280AD8542343430448181802005432D4
:102CF0000368DB4308C09042FAD170477C1500207E
:102D000010B54024074A83009A181268C000544046
:102D1000C0222240044C1B191A60044BC0184160A9
:102D200010BDC04604C0014004D001400040014035
:102D3000064B8000C3181B68C90092000A435A4022
:102D40000C231340024A80180360704704C00140FE
:102D500004D001408000002904D0054BC018402356
:102D600003607047034BC01840230360F9E7C04677
:102D700004E0014004F001400123D0228340120608
:102D800093629361084A83009A1811684022514067
:102D900080320A400549C0005B181A60044BC01815
:102DA000052343607047C04604C0014004D0014081
:102DB000004001408023DB051868000F7047C046C3
:102DC0000FB400B5084883B003F01EFC049B002B31
:102DD00007D005A91800019103F07EFA034803F01B
:102DE00013FC012003F090FAE4CB0010F4CB0010A8
:102DF00010B50148FFF7E4FFF8CB001070B58C4622
:102E00001600EFF3108472B60F490B68002BFCD04C
:102E1000BFF35F8F6346DB08C5180722C05C6346BB
:102E20001A40012393401A000240034207D118437D
:102E30002870BFF35F8F0A6084F3108870BD61460D
:102E40003000FFF7BDFFC0462C0100D0F8B5CE46DC
:102E500047468C4680B51C00EFF3108872B61C49BB
:102E60000B68002BFCD0BFF35F8FA24221D8072351
:102E7000994602E00132944218D349460126114096
:102E80008E40D308C718C35C1E42F3D110003343F1
:102E90003B70BFF35F8F00220D4B1A6088F31088E0
:102EA00000280EDBC0BCB946B046F8BD0120404248
:102EB000EFE7BFF35F8F00230B6088F310880120DA
:102EC00040426346002BEDD00898FFF779FFC046DB
:102ED0002C0100D0044A1078431CDBB2172B00D918
:102EE000102313707047C0466C0F002010B501000E
:102EF000024A0348FFF782FF10BDC04608CC00100D
:102F0000241A002000B5054B83B00100009318225D
:102F10001F230348FFF79AFF03B000BD28CC001021
:102F2000241A00200021044B044ABFF35F8F02C320
:102F30009342FAD17047C046000100D0800100D012
:102F4000084B094A1360094A1360094A1360094A89
:102F50001360094A1360094A1360094A1360094A59
:102F6000136070478080808000E400E004E400E0AB
:102F700008E400E00CE400E010E400E014E400E009
:102F800018E400E01CE400E01F2318401E3B8340CF
:102F9000002905D0C021044A4900535013607047EE
:102FA000802201498B50FAE700E100E001228240D3
:102FB000034B1B6813405A1E9341D8B27047C0465A
:102FC00000E100E070B50D00EFF3108672B60F4A15
:102FD0001368002BFCD0BFF35F8F0D4B10309B6844
:102FE00084001B590B4A934203D09D4201D001F04B
:102FF0006DF8074B9B681D51BFF35F8FBFF35F8F69
:103000000022024B1A6086F3108870BD240100D0A4
:1030100000ED00E0C1010010F0B5DE4657464E4617
:103020004546E0B5824683B08B461700EFF3108823
:1030300072B6604A1368002BFCD0BFF35F8F002587
:103040005D4B5D579946002D00DA9AE04A466B00C9
:103050005A4C5E19B6000193A31900939B79137023
:10306000574B9A68534610339B00D15899460B1B17
:103070002F2B32D9534B994200D098E0019B023656
:10308000ED18514BAD006353504BA619043B9B1BED
:103090004F4A1B055B0D651913436B804D4B012196
:1030A000AB80FF23AB715B46AB60009BEF710B43C2
:1030B00019004A46424B9B689950BFF35F8FBFF39C
:1030C0005F8F00223B4B1A6088F3108803B0F0BC7E
:1030D000BB46B246A946A046F0BD01200A00824385
:1030E000D379B446BB422DD83B4BB51C1900130015
:1030F0001B1B5B415943090D8C46334B6519A35388
:10310000324B0099043B5B1B1B05314D5B0D2B4380
:1031100004364B80A619131F9B1B1B055B0D1D431B
:1031200063468B715B468B602C4B8D80CF71136037
:103130000143BEE75800C01880002018C679BE427F
:1031400025D902000623D356002BF3DA9A46131D25
:103150009C4623486346009E9571043EF61A360548
:103160001B4B760D1E43019B96805A1953469200C5
:10317000A418A3715B46194AA0802260E771A3607E
:1031800097E700F0A3FF00254B465D575EE76646D4
:103190009A46131D9C469088043640050015A619D2
:1031A0006044801B00050A4E400D3043D2E700F01A
:1031B0008DFF63E7240100D06FAA0020700F00206C
:1031C00000ED00E0C101001000A1FFFFA00F0020F2
:1031D00000E0FFFF01BDFFFFAAAA000001488047F1
:1031E00001BD0000F0B54546DE4657464E46E0B507
:1031F0000D0083B0EFF3108872B6604A1368002B9D
:10320000FCD0BFF35F8F5E4B5E499A6803001033BA
:103210009F00D45999468C423ED0AC424FD05A4E72
:10322000A21B2F2A38D8594B1A689C46130001223A
:10323000824013401F22024001209A46904063467C
:10324000802283469850BFF35F8FEFF3058301938D
:10325000002B36D0994501D000F038FF0123220021
:103260009A439068854208D176E04B005B189B003A
:10327000F3189868854236D01A0006215156002965
:10328000F3DA854254D05346002B27D0C02259464A
:103290003E4B520099501960394B9B68DC51BFF38B
:1032A0005F8FBFF35F8F0022344B1A6088F3108862
:1032B00003B0F0BCBB46B246A946A046F0BD0C0028
:1032C000EAE7220001339A4390688542D5D106206F
:1032D0001056130000280ADA0C0031E0802359460A
:1032E0002A4AD150D8E706201856002821DB420090
:1032F0001118890075188946A9689960E979D9710A
:10330000062169569971002924DBAD88F11A6D05F3
:103310002D154D44491909051D4D490D2943998025
:1033200013181C4A9B001178F31899711070AAE7C2
:1033300013000199002914D1FF3191711649918030
:1033400014490A789A71154A9B1B5B415A43120D26
:103350000A7098E71049E2E706201056130000288B
:10336000C5DA0F4A0F49D21A083A5002400D0143FC
:1033700099800D4952080A43DA8084E7240100D07D
:1033800000ED00E0C1010010700F002000E100E03E
:1033900000E0FFFF6FAA002001BDFFFFAAAA000006
:1033A000AA0F002000F0FFFF00F8FFFF084A830883
:1033B0009B009B181A6810B5140003221040C0002F
:1033C000FC3282409443220081400A431A6010BDBF
:1033D00000E400E00123034370B59C46EFF3058150
:1033E000EFF3108572B6214A1368002BFCD0BFF3AF
:1033F0005F8F1F4B04001F4AE41A64416243120DA1
:103400001D4C8900A66852B2765866451CD006212C
:10341000595691421CD012215956914222D01E2158
:103420005956914220D02A2159560324914210D056
:10343000124B19781A708171BFF35F8F00220B4B0A
:103440001A6085F3108870BDA3680D4C5C50EFE7DF
:1034500000246100091989005B18FF21997109494D
:103460009980E5E70124F4E70224F2E7240100D083
:10347000700F0020AAAA000000ED00E06FAA002053
:10348000C101001001BDFFFF024BC9188900016096
:103490007047C04640000034F8B5124C124DAC42A3
:1034A00012D20126002776422368002B0DD0FFF7A9
:1034B00011FD01002000FFF7E7FF66602772BFF3F0
:1034C0005F8F0C34AC42EFD3F8BDFFF703FD010072
:1034D0002000FFF7D9FF6660BFF35F8F0834AC426E
:1034E000E2D3F1E7281000203810002010B50400C6
:1034F000FFF7F0FC01002000FFF7C6FF01235B424D
:103500006360BFF35F8F10BD10B504000120FFF7AB
:10351000F9FC034BC01880002060BFF35F8F10BD23
:1035200040000034F0B5DE4657464E464546E0B50D
:1035300085B0EFF3058303221A40B34B91005F5827
:10354000012393409B4602925A468846AF4B1A602D
:10355000AF4B03935B46AF4843630823FE5E002EE8
:1035600037DABB881BB2002B00DBA4E0BB79002B51
:1035700000D0E5E00823F95E002920DB4B007A69E2
:103580005B18DB00D3189D68DC686B1C00D104E17C
:10359000A04801004144826A0B69AE1A9B1A9E4200
:1035A00015D30123026A029883401A420FD099482A
:1035B00000F0D2FA8C4202DCCCD18542CAD940BF9D
:1035C00005B0F0BCBB46B246A946A046F0BD0D61B1
:1035D000EDE77A69730091469B19DB0099444B46ED
:1035E0009C68DD6800F0B8FA8D42BADC00D1F6E0E4
:1035F000002D00DADBE04A464B4652691B699246D1
:10360000039A934200D1CCE04A460821785E528862
:103610000004514610439847009001910099019A87
:103620000B00134300D1C2E013000A00002B00DBA3
:10363000D9E020002900801A99414B469860D96052
:1036400000229B5E002B00DA8BE75D007C69EA18A4
:10365000D200A21800949468D268A2468A4200DD83
:103660007FE702D1844200D97BE70824A4463B814E
:10367000BC44009C00972F006546B4463E0006E01F
:103680005E00F218D200A2189768D268BA468A4241
:1036900007DC00D1B4E0F318DB00E518E35E002B93
:1036A000EEDA66464A46009F13802E80BB881BB226
:1036B000002B00DA5AE73A69EFF3108172B613680B
:1036C000002BFCD0BFF35F8F0123BE885B42BB8021
:1036D00036B23B69BFF35F8F00221A6081F3108816
:1036E000002E00DA42E73B0008333A0099467D6934
:1036F00073009B190824115FDB004846EB18002972
:1037000013DB9C680093A446DC6806E0A34240D02B
:103710000023F95E3800002906DB4F007F18FF0008
:10372000EF19FB68A342F1DD009B068000201E5EBE
:103730001980002EDCDA1700BB79002B00D119E7C5
:103740000023BB710823F95E4B1C00D137E73D0015
:103750000835AC467C6903E084464B1C00D109E780
:103760004B005B18DB00E0180A00E15E43881BB2E7
:10377000002BF1DA01256D42EE178560C660082541
:103780007B5F9342E9D0634619803B8903803A818D
:10379000E3E7BB686345BBD9C6E7631C00D0F7E627
:1037A00005E7534650461B699847002823D14B46EE
:1037B0001B883A693B81EFF3108372B611680029C8
:1037C000FCD0BFF35F8F49467A880A803A697E80D1
:1037D000BFF35F8F0021116083F31088C1E684423C
:1037E00000D805E7BDE60B4800F0B6F9009B019C48
:1037F000C018614121E753460CCB009201930DE7BD
:10380000824500D847E74CE7841E00203C70054005
:103810002535001000400540074810B50268EFF359
:10382000108172B61368002BFCD0BFF35F8F05F0D8
:10383000FBFA0020002110BD4C21002070B52D4C5A
:103840002569002D04D00A212B48FFF71DFE70BD0D
:103850002A4E0321294800F075F9E660FFF73AFB8C
:10386000274B0322C018D02322701B061B6801219E
:103870006370244B8000A3600F23206102206380CB
:1038800063694942A18019800231198647311D833D
:10389000585218315A5275325C39995218320131E6
:1038A0009952183201319952183201319952083522
:1038B00018329D5202311832995218320131995200
:1038C00018320131995218320131995218320131AE
:1038D00099521832013199520B4B0C49DC6001307E
:1038E0003562FFF76FFB01210320FFF74DFB084B0B
:1038F0001D60A8E7B80F00204C21002000400540C3
:1039000040000034FFFF1000841E00202535001009
:103910003860054070B582B00092019301000269E1
:10392000EFF3108472B61368002BFCD0BFF35F8FE7
:103930000223C85E0D6900283FDB4A694300160078
:103940001B18DB00D218F35A4B80BFF35F8F0023A4
:103950002B6084F31088069B1361079B5361009BC7
:10396000019C9360D460538801335B045B0C1D1C85
:10397000002B20D0ACB20304558023430D69EFF334
:10398000108C72B62C68002CFCD0BFF35F8F8C8833
:10399000148088800A69BFF35F8F002010608CF369
:1039A00010880A7801309040CA680849521810609F
:1039B000180002B070BD0125DCE7BFF35F8F002364
:1039C0002B6084F31088013BF2E7C0463C200000E6
:1039D00010B543890A1493421ADD53009B184269BB
:1039E000DB00D3180469EFF3108C72B62268002A4A
:1039F000FCD0BFF35F8F5A88090494B2090C8A4245
:103A000008D00369BFF35F8F00221A608CF310881F
:103A1000002010BD094A22435A80012302698371A4
:103A2000BFF35F8F002111608CF310880278044986
:103A30009340C268012052181360EAE70080FFFF3C
:103A40003C200000F0B5CE46474680B504000D008E
:103A500085B0EFF305868946002E10D03649002048
:103A60004B6AAB4206D38A6A5B1B591E8B41A2424A
:103A70004041184305B0C0BCB946B046F0BD2F4F19
:103A8000FB683A7898461800039200F065F8039AAC
:103A9000131D42469B009B5822001B1A9C462B007C
:103AA000121A8B419E4210DC0DD020BF224A00200A
:103AB000536A4B45DED3926A5B1B591E8B41A2426F
:103AC00040411843D6E79445EFD900F04DF8220065
:103AD0002B00121A8B41002B1BDB00230193184B88
:103AE0002200009338002B00FFF714FF002810DDA0
:103AF000114B5A6A4A451CD39B6AA34217D3010053
:103B00003800FFF765FF0C4A0020536A4B45B1D3DC
:103B1000D1E7094A0020536A4B45ABD30020926A93
:103B20005B1BA24240415A1E93411843A2E74A45FB
:103B3000E5D120BFE3E7C04600400540B80F0020B4
:103B40001938001010B5024A0248FFF757F910BDA6
:103B500044CC0010281A00200300416A0A00986A29
:103B6000596A8A42FAD17047034B596A0A00986A27
:103B7000596A9142FAD170470040054070B505007E
:103B80000E00184A536A1900946A536A8B42FAD19C
:103B9000200019002C00350024184D41AB4216D8E6
:103BA00013D0104B2A005B6A9D4203D90D494B6A22
:103BB0009342FCD3934207D10A4A02E0516A9942E8
:103BC00002D1916AA142F9D370BDA042E9D9054B57
:103BD0005B6A1C005A1CEFD0012201246442E517E5
:103BE0005242E3E700400540254B70B598420BD8A0
:103BF00043011B1A234A9B001818916AC000936A5C
:103C00005B1A9842FBD870BDFA2200239200002173
:103C100000F03EFF05000E001A4A536A1900946A2C
:103C2000536A8B42FAD1200019002C003500241869
:103C30004D41AB4219D9134B5B6A18005A1C0BD08B
:103C4000012301246442E5175B420E494A6A9A4205
:103C5000FCD39A42D7D120000A4A02E0516A994225
:103C6000D1D1916A8142F9D3CDE7AB4205D0054A63
:103C70002B00526A9542E8D8EBE7A042F7D9DAE781
:103C80009BC4200000400540F8B5040006200D004C
:103C900000F06EF9002843D0364B3749E3185A1E1E
:103CA000934180225B429B0D12049B059B18334A73
:103CB0001360334A136018000A689043FBD12D4B00
:103CC000304AE31859424B4180215B0049000620ED
:103CD000995200F04DF92900C00000F05FFB01305F
:103CE000C3091ED1402701226262A362266BF3073B
:103CF00022D4E36A244B0620E51800232B602663B8
:103D000000F036F93900800000F048FB7023E26AC9
:103D10005A400E3313402B601C4B23630323A364D0
:103D2000F8BD1B4A93421DD900231A4A1A4F6262FA
:103D3000A362266BF307DCD5184B144AE3181A600C
:103D4000656AA36A0620AD01ED1800F011F9144967
:103D500000F024FB0100A80200F020FB0021FFF787
:103D60000DFFC6E740069A01800E17181A000300DF
:103D7000BAE7C0460080FCBF08C0004000E0004039
:103D800000F00040502100202C1000000103000032
:103D9000FEFF0000FFFF0000C0FF3F0030300000CA
:103DA0004E0E0000F8B5DE464E4645465746E0B595
:103DB00005008B4618000A99914600F0EFFA0A9B1D
:103DC0006C001E026419304BA400E418636880463E
:103DD0009E4200D966602F1FFBB29A46012B2FD955
:103DE000C0238022294FAD009B0179591201E318AD
:103DF0001A6000291BD14B4622685B015340E02228
:103E0000134080225201A21813605346012B2FD970
:103E1000802380229B01E31812011A6043466660EA
:103E20007B51F0BCBB46B246A946A046F8BD7869B6
:103E300000F0B4FA013043001B18033BFDD2DAE76F
:103E40005B46012BCCD1C02303229B01E3181A60EF
:103E5000023AA3681A42FCD04A46236852015A40EB
:103E6000E023134080225201A218084F1360AD00D6
:103E700058460323216841400B40136001228240D1
:103E8000A3681A42FCD0C3E7008000402C1A00202F
:103E9000F0B5D6464F464646440098462418324B65
:103EA000A400E41863688A469146C0B5FF2B02D887
:103EB00080235B006360061FF6B2012E2FD9C0235A
:103EC00080222A4F85009B0179591201E3181A605C
:103ED00000291BD14B4622685B015340E02213406E
:103EE00080225201A2181360012E30D98023802233
:103EF0009B01E31812011A6080235B006360434654
:103F00007B51E0BCBA46B146A846F0BD786900F0E6
:103F100045FA013043001B18033BFDD2DAE7534654
:103F2000012BCCD1C02303229B01E3181A60023A73
:103F3000A3681A42FCD04A46236852015A40E02343
:103F4000134080225201A218084F1360850050468A
:103F50000323216841400B40136001228240A36883
:103F60001A42FCD0C2E7C046008000402C1A002054
:103F7000014B8000C05870472C1A0020F0B5C6468F
:103F8000040000B52348160098460D0000F006FA1C
:103F90000100300000F002FA4346069A1B041203A7
:103FA00013439C4623680600002B22DB1A4B1B4858
:103FB000E218531E9A4180235242120B9B011203B6
:103FC000D218174B1A60174B1A60130001688B4305
:103FD000FBD12122144B2560E318A6601A602268E9
:103FE000002AFCDA6246E26008221A6080BCB84609
:103FF000F0BD3F2322681340AB42D7D1A3681B0515
:104000001B0D8342D2D1EE22E368D20213406345F6
:10401000CCD1EBE7001BB7000040FDBF08C000405B
:1040200000E0004000F00040043000008023024A1D
:104030009B000B43D362704700800540002310B5FE
:104040000100988A1B8B984710BDC046162310B5F7
:10405000010018885B88984710BDC046F8B54746F0
:10406000CE4680B50F1E18D01423994604330400A1
:104070000025012698464B461888434621681B8830
:10408000984701C4431E984101350640AF42F2D122
:104090003000C0BCB946B046F8BD0126F8E7C046BE
:1040A000AA23064A1B0113608D235B00D3600449D9
:1040B000044B19605368002BFCDA70470040024043
:1040C00000B0FA00006002407047C04610B50148D9
:1040D000FEF776FE68CC001070B5074D074EB5426E
:1040E00009D20024013E761BB608013608CD013402
:1040F0009847B442FAD170BDE0C800101CC9001046
:1041000070B5074D074EB54209D20024013E761B1B
:10411000B608013608CD01349847B442FAD170BDD3
:1041200014C900101CC90010054B064A06491A6044
:10413000064A074B1A6010000B689843FBD1704782
:1041400000E00040BFCDFBFE08C00040FE7F3C0009
:1041500000F00040044BDB6C002B03D18022034BAA
:10416000D2021A607047C046000011504C20115016
:10417000044A054B1A60054A1368DB018033FBD102
:104180007047C046FFFFFF0100F0004008C000403C
:104190004022034B9A675A671A67DA667047C0462F
:1041A00000F0014010B5FEF7BDFE10BD70B5284906
:1041B000284D294E6D1AAC102200302C00D9302227
:1041C0003000920000F0C2FCBC2D3DD823002A3BF9
:1041D000224A052B1DD9302075196D07A446001BF6
:1041E000EB0F002D03DA611C8C46A1007250C01A3F
:1041F000E3189B004108F318C900C9181A605A60F7
:1042000008339942FAD1012303421DD098436044F8
:104210000400A300F250631C2F2C15D09B00F25019
:10422000A31C2E2C10D09B00F250E31C2D2C0BD085
:104230009B00F250231D2C2C06D09B00F250631DD6
:104240002B2C01D09B00F250054B9E6070BDC046E8
:1042500000010010C001001000000020C10100108A
:1042600000ED00E0002310B5294C82B0A367FFF7F2
:1042700017FF0122274B1A60636C012BFCD103222C
:10428000254B1A60224A936B012BFCD1013300931A
:104290000121224A22480433FFF770FE0523012141
:1042A0000093204A2048FFF769FE002202210420E3
:1042B0001E4BFFF7EDFD0022012105201C4BFFF7EF
:1042C000E7FD0022002107201A4BFFF7E1FD002245
:1042D00000210820174BFFF7DBFD8023DB00009354
:1042E000002200210920134BFFF75CFD0022104B38
:1042F00000210620FFF7CCFD0420FFF739FE0E4910
:1043000000F04CF801000020FFF790FE02B010BD55
:10431000008000403CB0004030B00040002F6859A1
:1043200000800240008C864700C00240001BB7009E
:1043300040597307006CDC0240420F000148042121
:10434000014B1847D00F00205D400010124A936FB8
:104350009B0815D29066D166002905D0FFE7FFE7DC
:10436000FFE7516F106F704704B580210906C2172F
:104370005140002800D0C84308F08AFA002104BD4B
:10438000F0B5146E556E576F166FFFF7E3FF1466A6
:10439000556657671667F0BD000000D0114A936F4D
:1043A0009B0813D210665166002905D0FFE7FFE78E
:1043B000FFE7516F106F704704B5002801D000204F
:1043C000C04308F065FA002104BDC046F0B5146E84
:1043D000556E576F166FFFF7E5FF14665566576702
:1043E0001667F0BD000000D094464A4A926F9208CA
:1043F000624601D228E0C046F0B5464E346E756E76
:10440000776F366F00F020F89446424A146655667E
:10441000576716676246F0BD94463E4A926F92080F
:10442000624601D254E0C046F0B53A4E346E756E25
:10443000776F366F00F04CF89446364A146655662E
:10444000576716676246F0BD002B24DB11D00029A8
:104450003EDA00B5C943404200D1013100F038F8DE
:10446000C943404200D10131DB43524200D1013304
:1044700000BD002AEBD1002801D1002905D0002081
:10448000C90FC90701D1C043410800B508F0F0F9D0
:104490000022002300BD00B500290ADBDB435242A5
:1044A00000D1013300F014F8C943404200D101317A
:1044B00000BDC943404200D10131DB43524200D12B
:1044C000013300F005F8DB43524200D1013300BD57
:1044D000002923D1002B18D1002A0CD0BC460D4F47
:1044E00038667A6600210023FFE7FFE7FFE77A6F6F
:1044F000386F67467047002801D00748010000B5B3
:1045000008F0B6F90022002300BD02000B000020D5
:1045100000217047000000D0FFFFFFFF002B00D0FC
:10452000BFE0130C28D1002AE7D080B4114F3966C0
:104530007A66FFE7FFE730B4040C7B6F396F1B042A
:1045400023433B667A66FFE7FFE7FFE7C04684B296
:104550007B6F3D6F1B0423433B667A66FFE7FFE7F3
:10456000C04600232C042D0C7A6F386F0019694166
:10457000B0BC7047000000D0F0B594460025140E82
:1045800001D112020835140F01D112010435940F24
:1045900001D192000235D40F01D152000135D40B64
:1045A0000134254F7C66254C3C660E0C93B2FFE728
:1045B000FFE7FFE73C6F6643360C7703BE46734365
:1045C000DF0B5B04C01AB941130C7343DB18C91A23
:1045D000CE086643360CB64493B273431F0F1B01DB
:1045E000C01AB941130C73431F0B1B05C01AB94104
:1045F000860D8F023E436643360C092D24DB520A9A
:104600007243801A7703460A6643360C16235B1BF7
:10461000DE40DF40BF1964466643821B70460435A6
:1046200006330100D940A840C01900D30131A2428D
:1046300006D20023F0BD0000000000D0FFFFFFFF06
:10464000121B0130F3D3F1E709277F1BFE406446BC
:10465000A2B27243801A00D20139220C7243130CA9
:104660001204821A99410B00704604351337010079
:10467000F940A840801900D30131002B02D1A24299
:104680000AD2F0BD013000D30131121BFAD2013B36
:10469000F8D1A24200D2F0BD013000D30131121B8B
:1046A000F7E7F0B51C0C00D080E00CB400251C0A24
:1046B00004D11B02160E3343120208351C0B04D121
:1046C0001B01160F3343120104359C0B04D19B00D0
:1046D000960F334392000235DC0B02D192185B41F6
:1046E00001351C00971864410134464F7C66464CE6
:1046F0003C660E0CFFE7FFE7FFE7C0463C6F6643F2
:10470000360C7703BE4697B27743C01B00D20139FF
:10471000C01B00D201399FB27743C91BC91B170CBC
:1047200077437E04FF0B801BB941CE086643360CED
:104730000C2D33DBB644120B1F053A431B0B97B20B
:104740007743C01B00D201399FB27743C91B170CB6
:1047500077433E043F0C801BB941860D8F023E43D8
:10476000664329277F1BFE400C3D7746AF40BF19AB
:1047700030BCA2B2ABB272437343801A9941220C8F
:104780007243130C1204801A994102000B00013786
:10479000001BA941F9D2781E0021F0BD0C277F1B18
:1047A000FE4077467F0BAF40FF19E0E700245D1C19
:1047B00007D0144F7D663966FFE7FFE7FFE7FFE7A5
:1047C0003C6F95B29EB265436643401BB141150CE8
:1047D0001E0C6543664336042F0C3E432D04401BDC
:1047E000B141994204D202000B0020000021F0BD2B
:1047F00001D19042F7D3801A994101349942F2D302
:10480000F6E70000000000D0FFFFFFFF48404140F6
:10481000484018B4134B5B68019308BD18B4114BA2
:104820001B68019308BD94460F4A926F920805D207
:10483000624618B40B4BDB68019308BD0A4AF0B519
:10484000146E556E576F166F6246FFF7F2FF064AF9
:104850001466556657671667F0BD18B4014B9B6820
:10486000019308BD48130020000000D0FFB5504060
:104870004240504059404B40594000E0FFB5154F71
:104880004C00640D03D0BC4204D10C0314D80020AA
:10489000090D09055C00640D03D0BC4204D11C0362
:1048A0000AD800221B0D1B0501264B4009D44B40A2
:1048B00003D58B4200D18242FFBD9942FCD1904288
:1048C000FFBD0B43DB1803431343F5D0C94349181D
:1048D000FFBD0000FF07000000B5FFF7CFFF8041DC
:1048E00000BDC04600B5FFF7C9FF01D9002000BDDB
:1048F000012000BD00B5FFF7B9FF01D9002000BDC0
:10490000012000BD00B5FFF7B1FF804100BD0120CF
:1049100040054A00121804D85A00121801D8002085
:1049200070470120704700000021002805D1704722
:10493000C1174840401AFAD0C90713B5064B1B6887
:1049400098470CBC441CA2401005120B0349091BDC
:1049500009051943114310BD482000201F04000021
:1049600010B54C00620D8023D218DB00D21A5B0513
:104970007E2A10DD9E3A13DACC1709034908194341
:104980005242D140640001341532202A05DAD04069
:104990000843604310BD002010BD0846604310BDB1
:1049A000C80FC018013810BD18B4024B5B6A0193E0
:1049B00008BD00004813002010B50148FEF700FABA
:1049C00074CC0010132370B51D78012D19D014DD9F
:1049D0001D48FFF73BFB06001C48FFF737FB1C4C4C
:1049E00080223100200000F0B1F8022D06D01948D5
:1049F000FFF724FB184B186070BD154C174BA364D0
:104A0000F5E7174B124C23606360A360E3602361FA
:104A10006361A361E36123626362A362E362236370
:104A20006363A363E36323646364A364E364236550
:104A30006365A365E36523666366A366E366236730
:104A40006367A367E367D9E7534400005346000058
:104A5000481300204C33000048200020654A001015
:104A6000B949001007B5604601880A0A0230DF2AFA
:104A7000FAD1C9B2820804D30288408800041043E6
:104A800000E00068014A5050039007BD4813002021
:104A900051434343C9188C46110C83B24B4310B4A5
:104AA000040C614392B280B2504362431C041B0C5D
:104AB000001910BC59411304120CC0185141614433
:104AC0007047000010B50148FEF77AF9E8CC0010F5
:104AD000132310B51C781148FFF7B8FA012C0BD03E
:104AE00004DD010080220E4800F030F80D48FFF789
:104AF000A5FA0D4B186010BD094C0100542220008E
:104B000000F024F822002000084980320368002BBE
:104B100000D1016004309042F8D1E7E7534600002D
:104B20004C2000204C33000048200020C54A0010D3
:104B300001480421014B1847E00F00205D400010A0
:104B4000014B1B6818470000E00F0020014B5B6819
:104B500018470000E00F00209A4200D288547047A6
:104B60007047C046F8B5DE4657464E464546E0B566
:104B700099460D9B0700884693469B0728D00B9BC0
:104B8000002B3CD016000B9C0A9D3619321B013CB1
:104B90004B464146285DB847002CF7D135000D9BA8
:104BA0009B070ED55B46EC1A0C9BA34209D91E004D
:104BB0002A004B46414620200134B8470135B44213
:104BC000F6D32800F0BCBB46B246A946A046F8BDC5
:104BD0000B9B0C9A934214D213005D460C000B9A67
:104BE0009E1A76192A004B46013521002020B8472D
:104BF000B542F7D10B9BA046002BC4D1E1E71500CD
:104C0000CDE75E46002BBED15D46DAE7F0B54F46F4
:104C1000D6464646C0B584B09C460EAB1F78129B64
:104C20009146BA460D9C109E119D9B074CD4002DB9
:104C300041D1B44248D20123129F1F40B8460C9B79
:104C40005F1E302303E001343B55A64201D9202CDE
:104C5000F9D14346002B00D187E00C9B5F1E302327
:104C6000A54204D830E001343B55AC422CD0202C76
:104C7000F9D1129BDB060DD5129B5B0557D4A642DA
:104C800067D0A54265D00F9B102B53D0022B5BD071
:104C9000202C36D12023129C01930C9B4A46009372
:104CA000039463460295FFF75DFF04B0E0BCBA468B
:104CB000B146A846F0BD0123129A1340984601233D
:104CC00013422DD1B442BAD3129BDB061ED5129BE0
:104CD0005B05D8D4002CD2D10F9B102B60D00F9B3A
:104CE000022B71D0302301240C9A13705346002BF1
:104CF00011D1129B5B0740D52B260C9A631C1655CD
:104D0000C9E72300013430260C9AD654202CC1D098
:104D10005346002BEDD02D260C9A631C1655BAE78E
:104D2000002F34D0013DB44200D288E795E70F9BB5
:104D3000102BAFD1129B9B063CD5202CAAD0582318
:104D40000C9A13550134A3E7202CA3D0230001347F
:104D500007E0631E012CBFD00F9A102A36D0022A1A
:104D6000D1D162260C9AD65492E7129BDB06CDD5A0
:104D7000129B5B0500D482E785E7129A2300160791
:104D800000D488E720260C9A0133165583E70C23BC
:104D900013405F1EBB41ED1AB44200D24FE75CE7FF
:104DA000129B9B060ED478230C9A02241370302396
:104DB00053709BE7202C00D16CE778230C9A135595
:104DC000013465E75823EFE76033EDE70C9AA61E40
:104DD000B618129A920602D55822327093E77822BA
:104DE000327090E710B5002800D110BD01F0C2FB71
:104DF000FBE7C04610B5002803D04A680B681100D5
:104E0000984710BDF0B54E46DE4657464546E0B5DC
:104E100095B083468946924698461E9A1F9B10007D
:104E20001900209EFFF773FD002800D0D2E11E98E4
:104E30001F990122C44B5242FFF74EFD002800D0BB
:104E400001E11E981F990122C04B5242FFF75AFD03
:104E5000002800D0D6E01E981F990022BC4BFFF717
:104E600051FD002800D0B5E01E981F990022B94BD3
:104E7000FFF732FD002800D0ACE01E981F990022F9
:104E80000023FFF729FD002800D0D1E000230B9379
:104E9000229B5B0500D406260024302306E006AAE8
:104EA000013417321355013E202C01D0092EF6D8BB
:104EB0001E981F99FFF754FDA74BF2009B180CCBCF
:104EC000050008920993FFF733FD02000B001E98BE
:104ED0001F99FFF79EFC089A099BFFF7BEFC0690FE
:104EE0000791FFF761FD0700FFF71EFD02000B00B1
:104EF00006980799FFF78DFC0022984B06900791C2
:104F0000FFF700FD002800D1E9E001373800FFF786
:104F10000BFD02000B0008980999FFF7E3FC00283D
:104F200001D000270135002E00D1B7E0069513E02F
:104F3000172306AA9B180A21380001341D19FFF710
:104F40002DFA3031297038000A21013EFFF726FA88
:104F5000092F00D8E1E00700202CE9D1069D20248C
:104F60000CAB0693172706ABFF180DE028000A21AB
:104F7000FFF7ECF901343031280039550A21FFF7E9
:104F8000E5F9051E00D1B7E0202CEFD10323229ACA
:104F90001340012B17D1219B002B14D00B9B002B0E
:104FA00000D1E3E0219B013B2193202B0BD930233F
:104FB000219A06E006A9013417310B55944200D31B
:104FC000A0E0202CF6D1229B01940393219B029315
:104FD000069B21E0229B52460493219B4946039362
:104FE00058461E9B1F9C029600930194434600F076
:104FF00043F90400200015B0F0BCBB46B246A946F8
:10500000A046F0BD229B5B070FD40322544B22998C
:1050100001920391219902910093524643464946D9
:105020005846FFF79FFD0400E4E704224D4BEEE7EE
:105030001E9A1F9B00200021FFF7EBFB01231E900F
:105040001F910B9324E70223229A54461A40229B75
:1050500006929B0700D1ACE02600434D08942F1F19
:105060003200E87843464946013DD8470136BD4203
:10507000F6D1089C069B0434002BBBD05746219ADE
:10508000E31B9A42B6D91500220043464946202028
:105090000134D847E31BAB42F6D3ABE72800FFF758
:1050A00047FC02000B001E981F99FFF7B2FB2B4B29
:1050B000002206000F00FFF70FFC0CAB0693002840
:1050C00000D04FE7002230003900244BFFF71AFCD4
:1050D000002800D046E7012301359D4342E7002226
:1050E000069807991D4BFFF7F7FB002800D01AE739
:1050F000002F59D1013716E70323229A1340012BC1
:1051000000D1A6E0202C00D15DE70B9B002B3AD00C
:105110002D23069A1355013455E7069D202C00D106
:105120001DE73023361906E006AA0134173213555D
:10513000202C00D113E7A642F6D12E230CAA01346D
:10514000069293550EE7C046FFFFEFFFFFFFEF7F8C
:1051500065CDCD4165CDCDC108D200100000E03F46
:10516000ECCC0010E4CC0010F4CC00100C23229AFC
:10517000134257D0219B013B2193A34200D916E74C
:10518000202C00D11FE7229B5B0704D52B23069A16
:105190001355013417E7229B1B0700D413E7202384
:1051A000069A135501340EE7FB0700D4BBE601371E
:1051B000B9E6219B042B00D84EE755464F46043CE8
:1051C000E4182A004346013539002020D847AC4274
:1051D000F7D141E70227229B55461F409B0726D067
:1051E00006975F46234EEC1C2A00B078434649469A
:1051F0000135B847013EAC42F6D1069F002F00D1E1
:10520000F8E65746219AE31B9A4200D8F2E61500C9
:1052100022004346494620200134D847E31BAB42D5
:10522000F6D3E7E6219BA34200D9C0E6CBE6219B5B
:10523000032BD5D9069754464F46033DED1822005F
:105240004346013439002020D847A542F7D1069FB4
:10525000C6E7219B002B00D154E70B9B002B85D088
:10526000219B013B21939C4200D2A0E6202C00D040
:105270004EE7A8E6F0CC0010F0B54546DE465746AE
:105280004E46E0B59BB0249C259D824688469346B9
:10529000994622002B0020002900FFF738FB002848
:1052A00000D0C1E00122200029007C4B5242FFF7D0
:1052B00029FB002800D0B7E0012220002900784B0C
:1052C0005242FFF709FB002800D0ADE00022002386
:1052D00020002900FFF700FB002800D0BBE1089464
:1052E0000995089809998023289ADB001A400F92A3
:1052F0008022289E1201164032000E96289E0F0032
:105300000A901E4200D0A4E00B00034300D0CBE083
:10531000002A00D012E23200063326930223134003
:105320000C930223134200D00AE2279B042B00D2E5
:1053300015E200270426043B0E93002200232000E0
:105340002900FFF7C9FA002800D0C8E1554B289A78
:10535000134004930E9B0393269B0293089B099C86
:105360000093019441464B465A465046FFF74AFD8A
:1053700002002020289B0025034059424B415B42FC
:105380001840531C089341464B464530D047FB1705
:10539000FC185C40FB0F1F270A93731E0E930AAB89
:1053A000FF1806E020000A21FEF7F8FF0400202D78
:1053B00008D00A212000FEF7F1FF01353031795580
:1053C000092CEFD8052306930E9B56460593002320
:1053D00004930A3303930A9B4146029312AB009352
:1053E00030004B46089A0195FFF710FC0C9B002BF0
:1053F00028D05F46279BC41BA34223D982461D00A9
:105400003A194B46414620200134B047A542F7D80F
:1054100050465946279C421A01320023944200D339
:1054200095E1013018180DE0289B00940195049334
:10543000279B0393269B02934B465A464146504670
:10544000FFF7E0FC1BB0F0BCBB46B246A946A04645
:10545000F0BD01432AD10E9B3200002B00D15DE745
:105460000027269B0026BB4200DD82E100220023AC
:1054700020002900FFF730FA002800D04BE1289BDC
:10548000084A02961A408023DB0013430493279BAB
:105490000393089B099C00930194CDE7FFFFEF7FE6
:1054A000FFFFEFFFFFF7FFFF06232693B24B7800C5
:1054B000400DC018FFF73CFAB04AB14BFFF7CDF9E9
:1054C000B04AB14BFFF7AAF93F03B04B3F0B3B4348
:1054D0000C900D9100220A981900AD4BFFF799F935
:1054E000AC4AAD4BFFF7B9F902000B000C980D99CF
:1054F000FFF794F9FFF734FA0700FFF719FAA74A04
:10550000A74B0A900B91FFF7A8F90022A54BFFF7D4
:1055100085F9FFF725FAA44A06000A980B99A34BD0
:10552000FFF79BF90A900B913000FFF701FAA04AB0
:10553000A04BFFF792F902000B000A980B99FFF7B6
:1055400068F902000B000A900B91FFF786F90C90A6
:105550000D910A980B9902000B00FFF75FF90022EA
:10556000109011910C980D99934BFFF75CF9002264
:10557000924BFFF753F902000B000C980D99FFF7BF
:1055800052F900228E4BFFF749F902000B000C98EC
:105590000D99FFF748F90A9A0B9B0C900D91802109
:1055A0000020C905FFF735F902000B000C980D9992
:1055B000FFF734F902000B0010981199FFF733F947
:1055C0000022724BFFF72AF97E4B0022F6183305B2
:1055D000FFF743F902000B000A900B910898099914
:1055E000FFF77AF9002808D00A980B990022734B2C
:1055F000FFF719F90A900B91013F0A990B9A0B00DA
:1056000011003A006332C62A12D8022228980426D2
:1056100010400E9A0C90002A26D1279B042B05D906
:10562000002800D0A1E0279B043B0E93042642E013
:105630000222289810400E9A0C90002A13D1279B22
:10564000052B00D889E0002800D084E0279B0526A0
:10565000053B0E9332E080231B069C46AC44634618
:10566000089409933DE605260B4300D1F9E6089816
:105670000999554A554BFFF73DF9002808D008987D
:1056800009990022524BFFF727F9002800D0E8E6DD
:10569000269B002B34D00F9B002B31D0269B013B47
:1056A0002693279BB34204D90C9B002B59D002238D
:1056B0000C9300230E93002F00D13EE60A9A0B9B19
:1056C00008980999FFF7AFF8002208900991002384
:1056D00020002900FFF700F9002800D136E6089CD9
:1056E000099D289A80203B4B00061340220004931A
:1056F0000E9B0393269B02932B180092019331E695
:10570000279BB342D5D90C9B002B2AD000230E93A4
:1057100002330C93CFE7289B2E4A8020089C099DDA
:105720001A408023DB00134322000493279B0006CA
:1057300003932B180092019302967DE6052695E6C9
:1057400000230E930233002704260C93F5E54B1E2D
:105750001B191B1A65E602230C930526AEE70423EA
:10576000E7E5279B9B1B0E93A5E7022304260C93DA
:10577000A1E7DB1B5E1E79E601FCFFFFFB799F5072
:105780001344D33FB3C8608B288AC63F0000F03F64
:105790000000F83F61436F63A787D23F71A3790987
:1057A0004F930A400000E03F1655B5BBB16B024075
:1057B000EF39FAFE422EE63F00002C400000244064
:1057C00000001840FF0300002D431CEBE2361A3F97
:1057D00080842E41FFF7FFFFF0B55746DE464E4668
:1057E0004546E0B5A3B01F002C9B92460C93C94AD6
:1057F000C94B8B460B901A60002900D1BFE10023F2
:1058000038789946002800D1C1E1C44B4C46099331
:10581000C34B0E935B460A9308E0220053460A9955
:105820000B9DA84701343878002876D00137252809
:10583000F3D110239B46083B9946043B9846033B13
:10584000002602259C463878791C0300203BDBB2F9
:10585000102B03D8099A9B00D3589F460300303B76
:10586000092B36D900252A2800D1A7E000230D9363
:105870002E283FD00300683BDBB2122B1BD80E9AB8
:105880009B00D3589F4663460F001E43DBE70F0083
:105890002E43D8E743460F001E43D4E75B460F0074
:1058A0001E43D0E74B460F001E43CCE78023787899
:1058B0005B001E4301310F00672845D82428ACD96E
:1058C0000300253BDBB2422BA7D896499B00CB585F
:1058D0009F460025AB005D196D002D1808780F005C
:1058E0000300303B303D0131092BF3D900230D93E8
:1058F0002E28BFD13022802052429046C00006435D
:1059000078780B0080444246092A00D851E12A28C1
:1059100000D15EE10F000131ACE70A9BA1469B4636
:10592000CA4503D801235B425344994653464A462D
:10593000594600200B9DA847200023B0F0BCBB4671
:10594000B246A946A046F0BD0300693BDBB20F2B6F
:1059500000D962E7012199408846734A11408B467D
:10596000110042460A4200D013E10A2B2FD0072B28
:1059700000D052E70C9D01CD002800D134E1212355
:105980001E43B0461F260D9A12ABF618A146944648
:105990005946340002E0000920290AD00F260640AB
:1059A00032003732092E00D8073A013162540F28ED
:1059B000F1D863464C468B460D9322E10C9B20CBDD
:1059C000002D52DB78780C930F0001314EE70C9BD1
:1059D0000D9904CB90469B46002900D128E143460F
:1059E00018784144002801D100F029FC0D9A944612
:1059F0000A0004E059780133002900D195E19A4268
:105A0000F8D163460D934346D31A0F93730500D420
:105A10006CE10F9B0D9A934200D90F9202231A005A
:105A200032400C92334200D191E20C930D9BB94667
:105A30001E1943461B1BA84622001F000B9D08E0B1
:105A4000541C53460A99A847385D002800D163E1E9
:105A500022009642F4D145464F4634000C9B002B61
:105A600000D097E15B460C93DDE60222787816437E
:105A70000F006D420C930131F8E678786C2800D164
:105A800059E180235B001E43013114E780239B0012
:105A900078781E4301310EE77878682800D150E10C
:105AA000802301311E4306E7672800D1C2E0472862
:105AB00000D134E1452800D134E107210C9B0D9A37
:105AC00007338B4319000496039502920CC90B9877
:105AD000009201930C91220053460A99FFF7CCFBE8
