:020000041000EA
:1000000000B5324B212058609868022188439860DF
:10001000D860186158612E4B002199600421596104
:100020000121F02299502B49196001219960352056
:1000300000F044F80222904214D00621196600F024
:1000400034F8196E01211966002018661A6600F04E
:100050002CF8196E196E196E052000F02FF8012189
:100060000842F9D1002199601B49196000215960AB
:100070001A491B48016001219960EB211966A021F2
:10008000196600F012F800219960164914480160C1
:100090000121996001BC002800D000471248134993
:1000A000086003C880F30888084703B5996A0420EC
:1000B0000142FBD001200142F8D103BD02B5186610
:1000C0001866FFF7F2FF186E186E02BD00000240BE
:1000D000000000180000070000035F00212200005C
:1000E000F4000018222000A00001001008ED00E03C
:1000F000000000000000000000000000070B8FD58A
:1001000000200420F7010010CB010010CD010010E9
:10011000C9010010C9010010C9010010C901001077
:10012000C9010010C9010010C9010010CF01001061
:10013000C9010010C9010010D1010010D301001045
:10014000C1010010C1010010C1010010C101001067
:10015000C1010010C1010010C1010010C101001057
:10016000C1010010C1010010C1010010C101001047
:10017000C1010010C1010010C1010010C101001037
:10018000C1010010C1010010C1010010C101001027
:10019000C1010010C1010010C1010010C101001017
:1001A000C1010010C1010010C1010010C101001007
:1001B000C1010010C1010010C1010010C1010010F7
:1001C000EFF30580103800BE00BE00BE00BE00BECA
:1001D00000BE00BEF2EB88711CCC001044CC0010B5
:1001E0003802001090A31AE71E481F49086006C88D
:1001F00081F3088810471D480068002801D019487D
:10020000F3E70DA40ECC002902D000F012F8F9E7B4
:100210001749184A002000E001C19142FCD116495B
:100220008847164988471649884700BEFDE701C937
:1002300001C29A42FBD3704744CC0010C00000209A
:1002400038100020BCDB0010000004200000042057
:10025000BCDB00100010042000100420000000008F
:10026000704700000000000008ED00E0000000D032
:100270003810002074AA0020015C001065030010F3
:10028000F95B0010F8B5C04606480749091A8B10FB
:10029000C90FC91810B5491003D0044B002B00D06A
:1002A000984710BD381000203810002000000000D2
:1002B000054B10B5002B03D00449054800E000BFF2
:1002C000FFF7E2FF10BDC046000000006C1E0020DA
:1002D00008C2001010B504001D480BF083F8002C74
:1002E00008D0D823E058002804D0642109F06CF825
:1002F000012803D000200AF0F9FE10BD06F04CFAE8
:100300005323A074E35C002B0DD1002813D02000F0
:100310000B2210492B3004F08FF820000C220E49DC
:100320003F3004F089F8D8230022E0580021002350
:1003300008F09CFCDEE720000C2208492B3004F07A
:100340007BF82000102206493F3004F075F8EAE7F8
:10035000DC05000008C2001014C2001020C200100A
:100360002CC20010F0B587B002AC05F073FD00F0B0
:1003700091F82200D0270126344B3F0623CB23C21D
:100380001B68136020CC280002F06CF93300AB40EE
:100390000022BB620121280002F040F906AB9C421A
:1003A000F0D1012008F0FEFD00284CD0284C294B4C
:1003B00000252360D823FF22E050853BE65401331B
:1003C000E5520233E254244A7933E6540133E250D1
:1003D000802204331201E250290078221F48A580B0
:1003E000A571A560E5602582A57404F01FF81722A9
:1003F0001B491C480BF0E6FD2A230E221A491B4814
:10040000E55404F019F80D2219491A4804F014F8BB
:1004100001F054FC200001F01DF8200001F086FBE3
:10042000200001F0C3F9200000F0C4FAA8420BD06C
:100430002300802210491148019500960AF086FD9C
:100440000AF0BAFDFEE7FEE7FEE7C0460CC6001064
:10045000681F0020580F002000107800BF1F0020E8
:100460003CC200107B1F002040C20010931F0020E0
:1004700050C20010A71F002060C20010D50200105B
:100480000123D02283401206002901D05361704716
:100490009361FCE7F0B585B06A46D0266C4601272B
:1004A000094B360623CB23C21B68136020CC2800DF
:1004B00002F0D8F83B00AB407362B36104AB9C42DE
:1004C000F4D105B0F0BDC0461CC60010F0B5DE4644
:1004D00057464E464546E0B5D04B9BB01A8810A90A
:1004E0000A819B7814AA8B72CD4B834613CB13C21F
:1004F00013CB13C2CB4B5F460A932B235B44089369
:100500003F235B440993C84B0B93C84B9946C84B98
:100510000493C84B109313235B440E93C64B0F9365
:10052000C64B1193C64B0D93C64B0C93002F13D0A3
:10053000D823F85800280FD0052108F045FF0128DE
:1005400000D18BE1D823F858002805D00A2108F003
:100550003BFF012800D1BAE10023079306F01CF904
:1005600014AB9B461D0000230393D0231B069A4621
:10057000012300249846069017AE414653462A6848
:100580005B6891400B4059425941C9B2002B04D1DC
:100590004346A340039A1A43039201CE0134FFF766
:1005A0006FFF0435032CE8D1002F09D0D823F85869
:1005B000002805D0052108F007FF012800D191E1AE
:1005C000069B002B00D0ADE0D0234A461B065B689B
:1005D00012681B07DB0F9A4200D11BE1049A9A496B
:1005E00012888A4200D133E10499013292B20A8022
:1005F00091008A18132A00D92AE1D0234A461B0603
:100600005B685268DB06DB0F934200D1BCE0049AC2
:100610008D4952888A4200D1B4E00499013292B2E5
:100620004A8091008A18132A00D9ABE0D0234A46A9
:100630001B065B6892689B06DB0F93426ED00498A2
:10064000814982888A4267D0013292B291008280C9
:100650008A18132A60D8002F09D0D823F858002808
:1006600005D00A2108F0B0FE012800D102E10021E6
:10067000002007F02BF9002803D105300AF0B2FE64
:1006800054E713A9002007F033F9F0E7D0234A46D6
:100690001B065B6812681B07DB0F934200D106E163
:1006A0000498694902888A4200D104E1013292B279
:1006B000910002808A18132A00D9FCE0D0234A4610
:1006C0001B065B685268DB06DB0F934200D1EAE051
:1006D00004985D4942888A4200D1F2E0013292B228
:1006E000910042808A18132A00D9EAE0D0234A46B2
:1006F0001B065B6892689B06DB0F9A420ED0049A39
:10070000514992888A4207D00499013292B28A8074
:1007100091008A18132A9ED94A4693600023049AAE
:10072000938098E7079B002BB0D1D0231B069A46F5
:10073000012312AE03964C465E469846BB46049D86
:10074000534641465A68336899400A401000431E98
:100750009841216888421BD02B883B4FBB421AD05E
:1007600001339BB29F002B80DB19132B13D8039B03
:10077000043401330393354B04360235A342DFD1F1
:100780005F4668E74A4653600023049A53804DE76A
:1007900000232B80EBE7002320602B80012900D170
:1007A000D8E00029E3D1002AE1D010AA80331373E6
:1007B000039B00201B78537305930023937303233B
:1007C00013AA07F0CFF85B46002BD0D0D822985858
:1007D0000028CCD00A2108F0F7FD0128C7D1059BDD
:1007E000109F3A0018210E9805F0C8F90F990B22B6
:1007F000089803F021FE3A00059B1421099805F0A2
:10080000BDF9D827002358461A001900C05908F02E
:100810002DFAACE7049B069A1A80EEE69CC2001003
:100820002CC6001068C2001074C200105C0F0020BB
:10083000581F002084C2001008C2001090C200108F
:1008400020C200102CC20010FFFF0000680F002023
:100850004A4613600023049A1380CEE6D623FB5C3D
:10086000002B4AD1D833F85800220023002108F089
:10087000FDF967E6D0233A681B065B68002A02D0C0
:100880005B07DB0F1360069BBB74002B03D1079B38
:10089000002B00D182E0D8230022F8580021002349
:1008A00008F0E4F9E3E60023049A53801EE70023EE
:1008B000049A138002E74A4613600023049A1380C7
:1008C000FCE64A4653600023049A53800EE7532304
:1008D000FB5C00220793D8230021F858002308F07E
:1008E000C5F93BE6D723039A0021FA540133F8589F
:1008F0000022002308F0BAF962E6D023FD5C013B38
:10090000FC5CD62200231421BB5408982B000A9AC1
:10091000009405F033F90D220B99099803F08CFD32
:10092000D82300220021F858002308F09FF905F091
:1009300033FF002800D105E64023013C5B4210AAAA
:100940002343137355730223002113AA002007F0D9
:1009500009F8F7E5002A00D009E7902310AA1373DD
:10096000039B00211B78002053730593642393732A
:10097000613B13AA06F0F6FF5B46002B00D1F6E6BA
:10098000D8229858002800D1F1E60A2108F01CFD71
:10099000012800D0EBE6059B119F22E70D990C2260
:1009A000089803F049FD10220C99099803F044FDC2
:1009B00071E7C04610B584B003AC00220194052451
:1009C00003928032030004490094520003480AF065
:1009D000BDFA039804B010BDA0C20010CD040010F1
:1009E000F0B55746DE4645464E4600235722E0B551
:1009F00089B0835414328354143283541432835490
:100A00001432835414328354974B984F07931B78B6
:100A100005005C019A463B59142101930E23944A28
:100A20000093573005F0AAF8924B1B78022B00D1A7
:100A30008DE0914B914A984611781B7893468B42F2
:100A400067D219001370181DFF22834200D2A9E05B
:100A500056233C19EA54237F00249946884B2E00E4
:100A60000593884B091906932B006B36C9B23500E4
:100A70003E001F00894521D943461A780134059B61
:100A8000E4B28A4200D1804B5246D2005218920002
:100A9000B2185268142102920D222800019200928D
:100AA000069A05F06BF80023AB73042C06D05B4666
:100AB000197814350919C9B28945DDD849463D0070
:100AC00004290ED95B461878800003F0DDF8042273
:100AD000032864D993009B1823229B00EB186433EE
:100AE0001A70079B1B78002B20D0012B00D188E0C7
:100AF000022B00D176E043461B785522AB54542399
:100B0000543AEA5409B0F0BCBB46B246A946A046E6
:100B1000F0BD081DC2B2934296D35A46D91EC9B23F
:100B20001170FF228B4293D3081D8DE7FF21E87AD5
:100B3000AB88019028891B0900090B40014028005F
:100B40000091524A1421BB3005F018F8D3E7562221
:100B5000AB54079B1A78002A27D0474B98461B783E
:100B6000012A5CD0022AC8D1002B6AD0012BC4D143
:100B70000922474928006B3003F05EFC454B464A8A
:100B80001B78280014217F3004F0F8FF28000B2286
:100B90004249BB3003F050FC43461B78ADE70130BF
:100BA000C2B297E701335A1A52E728003C490C3287
:100BB0006B3003F041FC2800364B14211B78394A76
:100BC0007F3004F0DBFF28000B223449A73003F00C
:100BD00033FC28000C223449BB3003F02DFC264B9B
:100BE0001B788AE72800D233EB5CBB30002B14D093
:100BF0002E4BD521695C2E4A0091142104F0BEFFD2
:100C000079E7CF212800695CD033EB5C294A009159
:100C1000BB30142104F0B2FF6DE7274BE9E7002B4E
:100C200005D0012B00D068E70A222449A2E728005A
:100C3000093223496B3003F0FFFB164B194A1B782E
:100C40009FE728001F490A326B3003F0F5FB2800AC
:100C5000104B7F301B78002B03D01B4B14211B4AF9
:100C600092E7154BFAE7C0466EAA002058C600105E
:100C7000BCC200106A0F002072AA00206DAA0020DA
:100C8000B4C2001030C30010B0C200103CC300104A
:100C900024C300106CAA002008C30010D8C20010A2
:100CA000C4C20010D0C20010E4C20010B8C20010CC
:100CB00058C300104CC30010ACC20010FCC200109E
:100CC000F0C2001010C30010A8C200101CC3001016
:100CD0000121094B094A197000231370084A137047
:100CE000084A1370084A1370084A1360002801D09C
:100CF0005333C1547047C0466A0F00206EAA0020CB
:100D000072AA00206DAA00206CAA0020641F002097
:100D100070B5041E1CD000291AD05320225C0B7819
:100D2000002A16D0B84802789446B84A1578022DA1
:100D30004CD0012B2BD0032B1FD0022B08D16346A4
:100D4000002B00D170E0012B00D1DBE0022B5AD048
:100D500070BD032BFCD10121AC4B21541970AA4B5F
:100D600020001A70AA4B1A70AA4B1A70AA4B1A705C
:100D7000AA4B1A60FFF734FEEAE76346002BE7D080
:100D80000023A34A03701370A24A1370E0E7012303
:100D9000CB56002BDCD09E499E480A780478D218A6
:100DA00000D5BEE065469E4B6D015B191B7F013B84
:100DB000934200DD1300DBB20B709C4204D8043474
:100DC000E4B2A342C4D3033B0370C1E7012B7BD041
:100DD000022B0CD0032BBBD16346002B00D0D7E0F5
:100DE000904B1978D023E15401231370B0E7634688
:100DF000002B00D09DE0884B1978D023E1540121CD
:100E00000633E154F0E782490B78022B00D1E8E089
:100E100002211170002B00D0C8E0D433E35C824A79
:100E200013707D4A137093E779490B78042B00D92E
:100E30008EE77E4D9B00EB589F46022303700023F4
:100E4000744A0B70137083E709F09EF8734B060029
:100E500019681D0000290CD081420AD2411A0A00EB
:100E6000734B963A9A4204D8724802F00DFFD2238F
:100E7000E0522000D2232E601421E35A6E4A2B3018
:100E800004F07CFE20000A226C493F3003F0D4FAC3
:100E90005EE70123D2E702231370CE33E35C614A9D
:100EA00013705D4A137053E7532300222000E2546D
:100EB00063490B322B3003F0BFFA20000A2261494C
:100EC0003F3003F0B9FA43E70123CB56002B00D1A2
:100ED0003EE76246002A4CD0012A46D0022A00D0C2
:100EE00036E74B4A1278002A70D14B490A78D3185A
:100EF000002B02DD01230B702AE7DA43D2171340DF
:100F00000B7025E742490B78022B23D00221117088
:100F1000002B36D1D133E35C4B4A13703E4A137039
:100F200016E700230B70002C00D111E7002303709B
:100F30000EE7012B41D0022B00D055E7344B1B7834
:100F4000002B00D08FE0344B1B78591E8B41D421ED
:100F5000635449E70023012203702E4B0A7019786D
:100F6000012900D8F4E61A70F2E6294A1278002A1C
:100F70002CD129490A78D3187F2BBEDD7F230B7033
:100F8000E6E6CF23314AE35C1370234A1370DFE6B1
:100F9000012B5FD0022B00D026E71D4B1B78002BC6
:100FA00071D1214B1978D423E1541DE7D523284A68
:100FB000E35C1370184A1370CAE6154B1B78002BBC
:100FC0001AD1154B1978D123E1540DE7012A00D02D
:100FD000BEE611490A78D318102B5CDD10230B7084
:100FE000B6E60023032203700A4B0A70197803291E
:100FF00000D8ADE61A70ABE6012B00D0F4E6064B44
:101000001978CF23E154EFE66EAA00206A0F002082
:1010100072AA00206DAA00206CAA0020641F002084
:1010200058C6001071AA00206FAA002044C6001004
:101030003A07000060EA000064C3001070C30010AB
:1010400008C200107CC3001070AA0020690F0020A5
:10105000680F0020124B1B78002B0CD1114B197814
:10106000D123E154C0E6012B00D0BDE60E4B197828
:10107000D523E154B8E6012B00D0B5E60B4B197827
:10108000CF23E154B0E6012B00D0ADE6084B197830
:10109000D523E154A8E6002B00DC2BE70B7057E6C4
:1010A00072AA002070AA00206CAA0020690F0020FC
:1010B000680F002010B5002801D0FFF791FC10BD8B
:1010C000F0B5DE46454657464E46E0B500220500DF
:1010D00093B00221082007F079FD804608F054FF04
:1010E00082462800FFF7F4FD002D00D139E1D82415
:1010F0002859002805D0642108F066F9012800D19C
:1011000099E153460793002309930E93013B0A93F9
:10111000002399460893CD4BD8270F93CC4BD34649
:10112000464611AC0D9302F095F9002900D180E0FC
:10113000FA220023920002F0E5FD8246D023042229
:101140001B065B6807201A40012390465107C90F10
:101150005940C9B2FFF794F94346002B00D09EE0F6
:101160004B46002B03D15346089301239946E85977
:10117000002805D00A2108F027F9012800D1B6E09F
:1011800000222100300007F0D1FF012823D1E859C7
:101190000028F5D0142108F017F90128F0D121001A
:1011A0002800FFF7B5FD5323EB5C002B00D08BE04C
:1011B0002378012B02D1EB680133EB600022002180
:1011C0000023E85907F052FD00222100300007F00B
:1011D000ADFF0128DBD008F0D7FE5A46831A079AE4
:1011E0009A46831AFA2280469200934252D3E859D3
:1011F00000286DD00A2108F0E7F8012800D1A5E009
:10120000FA235B009A456DD3434607930023099365
:10121000E859002804D00A2108F0D6F801280ED099
:10122000C34632200AF0DEF802F014F9002900D09B
:101230007EE7FA21890002F027FD82467EE7D72368
:10124000EB5C0C93AB79A9889C46EB7A2A890B93CB
:101250002B8A9A46EB689B460C9B18403030C0B2F4
:1012600003909807C00F30300490584602905046C3
:101270005B07DB0F303305930B9B019000930D98B8
:10128000634604F0B9FE002300220021E85907F06C
:10129000EDFCC5E7FA235B009A45B9D2C1E74B469E
:1012A000002B0ED05346089A9B1A96229200934226
:1012B00044D303232380002300222100300007F0C1
:1012C000D5FC0023994652E72800FFF7F3FE6FE7AD
:1012D000FA235B009A4505D3434607930023C34690
:1012E00009939EE7434607930023099399E7AB7A56
:1012F0000A9A9846002A26DB5323EB5C002B00D188
:101300005CE742451FD008F03FFE0E998246431A23
:101310003B2B18D9099B0A9A013309930F9B9045DF
:101320001DDD1B882380002321001A00300007F0F8
:101330009DFC53460E9343460A933FE702222280C8
:10134000132BBED9B7E743460A9337E7099B002220
:101350002B8200210023E85907F088FC50E79B8886
:10136000E0E7D0222F001206079591464546D34666
:10137000B84611AC02F06EF8002935D1FA21890087
:1013800002F082FC07004B4604265B6807201E40E3
:1013900001237107C90F5940C9B2FFF771F84346DD
:1013A000002E2ED0002B32D100239846002221009F
:1013B000280007F0BBFE0128F8D008F0E5FD5346F1
:1013C000FA21C21A5B468900C31A8B4213D3FA234F
:1013D00083465B009A4200D3824632200AF002F82C
:1013E00002F038F80029C9D0FA220023920002F056
:1013F00089FC0700C7E7FA235B009A42EDD38246D7
:10140000EBE7002BD2D1013398460797CEE7079B35
:10141000FF1A96239B009F4208D3032323800023B7
:1014200000222100280007F021FCBDE702232380D1
:10143000132FB9D9F3E72800FFF73CFE0023285902
:101440001A00190007F012FC5BE6C046B8C600108F
:10145000D0C3001010B50024C02282B00194023421
:101460000300044900945200034809F06FFD02B0E4
:1014700010BDC04614C40010C1100010F0B5DE4607
:10148000574645464E46E0B5EBB004001422002115
:1014900010A802F0CBFF1422002115A802F0C6FF0D
:1014A000782200212EA802F0C1FF0F230E220B216B
:1014B0000A200093023B00F015FC372000F096FD57
:1014C000FF220B920792B44A00239046FF220A9211
:1014D000B24A0592B24A06922B229446A44462462E
:1014E0000D923F229446A44462460E92572294469F
:1014F000A44462460F92AB4A0C92AB4A9246D82261
:10150000934642469846049266E05B46E0580028BF
:1015100005D0322107F058FF060001286FD00023C4
:1015200000931421059A24A804F028FB2E231421EB
:1015300001930093069A29A804F020FB00230027BA
:101540000025039310A91AA80AF06CFD002809D100
:1015500015A91FA80AF066FD002803D1049BAB4221
:1015600000D100E113221AA910A80AF02BFD1322C2
:101570001FA915A80AF026FD00F0EEFD00210020AD
:1015800000F0CAFE0C9800F0D1FE0121002000F00E
:10159000C3FE24A800F0CAFE0221002000F0BCFE19
:1015A00029A800F0C3FE0321002000F0B5FE1AA810
:1015B00000F0BCFE0421002000F0AEFE1FA800F0E9
:1015C000B5FE00F0DDFD039B0B97079300239846C3
:1015D0000495C82009F006FF5346102200211BA8DD
:1015E0001A9302F023FF53461022002120A81F93D4
:1015F00002F01CFF002C88D10023009491E7D72330
:10160000002513220D991AA8E75C0AF0DBFC0EAB4B
:10161000433313220E991FA81D700AF0D3FC0EABA2
:1016200057331D70A379782203935323E15C013370
:101630000891E35C0F9909935623E05CA5888146E5
:101640004CA802F0F9FE5846002300220021205841
:1016500007F00CFB039A14212B00009224A8059A92
:101660003E4004F08BFA7342734102223A405142E9
:101670004A4103207907C917814392002A322E314B
:101680009B00019100921421069A2A3329A804F0A4
:1016900075FA0899002900D154E7099B002B37D02F
:1016A00000F05AFD00274CAEF9B2002000F034FEE5
:1016B0000137300000F03AFE1436062FF4D14B46C5
:1016C000052B21D900F05CFD78224CA92EA802F050
:1016D000B3FE5B46E058002804D0322107F074FEC8
:1016E00001284ED013221AA910A80AF06BFC13226D
:1016F0001FA915A80AF066FC089B04959846039B51
:1017000007934B460A9364E7484600F05FFFD9E72A
:101710002EA94CA80AF086FC0028C1D133A951A8F3
:101720000AF080FC0028BBD138A956A80AF07AFC40
:101730000028B5D13DA95BA80AF074FC0028AFD100
:1017400042A960A80AF06EFC0028A9D147A965A8A3
:101750000AF068FC0028A3D1089B98460A9B4B45D9
:1017600000D136E79CE7079B039A934200D0F9E645
:101770004346002B00D0F5E60B9BBB4200D0F1E6C0
:1017800027E754230022E2545B460021E05800235F
:1017900007F06CFAA6E7C046FFFF000018C400106F
:1017A00028C4001034C400102D2D2D0010B50024C5
:1017B000802282B001940134030004490094520055
:1017C000034809F0C3FB02B010BDC04640C400107E
:1017D0007D140010F0B5DE4657464E464546E0B54E
:1017E00087B0019008F0D0FB039004F005FD1F21A5
:1017F0001D2000F0FBFE002200211D2000F00EFF46
:1018000000211D2000F01CFF0023002604279A461B
:10181000BC4BBD4C9B46BD4B0293C0239B019946DC
:10182000E023DB019846BA4B8022042100259C4628
:1018300052004846236843404046034060460360E8
:10184000B44B1F6023681342FCD0636801391B044A
:101850001B0CED180029ECD15B46AD081A682B046F
:101860001B0CA9B288469946002A07D09B1A9B10E8
:101870009B181A04120C91469AB290465A4613606D
:1018800008F082FB5346002B05D0039BC01AFA23B5
:101890005B0098423FD24B461B0A0F2B37D8D8012A
:1018A000C01A0F21DEB202F0EFF9C3B29A46019BD3
:1018B000002B09D0D8229858002805D00A2107F01B
:1018C00083FD012800D1E2E004F066FF00281AD071
:1018D000029B1B78534510D08F4B04AA93801300B2
:1018E000524600219A710020032305AA06F03AF817
:1018F000002802D05246029B1A70322009F072FD75
:1019000001239A4689E7FF23029A1370F5E77F23A4
:101910000F269A46CBE732021300711C5C339BB250
:101920000F2900D99BE0A43292B2424500D3DFE0F8
:10193000B01CC0B2102800D18FE0C9B20B021A004F
:10194000A43292B2904500D8CAE0F21CD2B2102A5A
:1019500000D182E003021900A43189B2414500D3CD
:10196000C9E0311DC9B2102977D013021800A43084
:1019700080B2404500D3B7E0721DD2B2102A6CD0BD
:101980000B021800A43080B2404500D3A8E0B11D7E
:10199000C9B2102961D013021800A43080B24045AA
:1019A00000D3A1E0F21DD2B2102A56D00B021800CB
:1019B000A43080B2404500D392E031000831C9B272
:1019C00010294AD013021800A43080B2804500D8F4
:1019D0008AE032000932D2B2102A3ED00B0218003F
:1019E000A43080B280457BD931000A31C9B21029B8
:1019F00033D013021800A43080B2804574D932006D
:101A00000B32D2B2102A28D00B021800A43080B2B8
:101A1000804565D931000C31C9B210291DD013029F
:101A20001800A43080B280455ED932000D32D2B2A7
:101A3000102A12D00B021800A43080B280454FD972
:101A4000022E0AD013021900A43189B288454BD95D
:101A5000002E02D1314B984551D90F26304B32021E
:101A6000A43A404692B207E0013E511EF6B213007E
:101A7000FF39002E30D08AB28342F5D88046F0017B
:101A80000F21801B02F000F9C3B29A460FE7019BB9
:101A900024499D801D0043462B814B46D801C01A26
:101AA00080231B01C01802F0EFF8330233436B812F
:101AB00053232A00A871ED5C8533D0580021002300
:101AC000002207F0D3F804F067FE002800D11AE7DF
:101AD000002D00D011E7FBE6804600239A46E6E69B
:101AE0005C330E009BB2BAE75C3316009BB2B6E7DC
:101AF000002EB4D1F1E75C3306009BB2AFE70A4B8E
:101B00000E36ACE7601F002000C004406B0F0020C1
:101B100000D0044000E00440B0100000A40E00001B
:101B20005C0F0000FF0F00005C0E000010B50024E9
:101B3000802282B0019401340300044900945200D1
:101B4000034809F003FA02B010BDC04648C40010B3
:101B5000D51700100048704768C70010004870474C
:101B6000C0C6001010B5022800D16AE019D80028BC
:101B700011D052233E4843803E4B43603E4B83602E
:101B80003E4BC3603E4B03613E4B4361692303837D
:101B90003D4B038010BD3D4B35484380063BFF3B2A
:101BA000F7E703285FD13A4C2378002B56D020006A
:101BB0000AF07CFA031E58D02D4822784280012B6F
:101BC00039D062788280022B35D0A278C280032B74
:101BD00031D0E2780281042B2DD022794281052B6D
:101BE00029D062798281062B25D0A279C281072B68
:101BF00021D0E2790282082B1DD0227A4282092B61
:101C000019D0627A82820A2B15D0A27AC2820B2B5B
:101C100011D0E27A02830C2B0DD0227B42830D2B54
:101C200009D0627B82830E2B05D0A27BC283102B4E
:101C300001D1E27B0284C02201335B009200134396
:101C4000A7E70B48134A0400831C2634117801329D
:101C500019800233A342F9D10F4B9AE711212000DA
:101C600004F0EEFAA3E7002094E70C4B004890E75D
:101C7000381500206100730070006200650072007A
:101C800072007900200050001A03000009040000CF
:101C9000481400204CC4001026030000020300007A
:101CA0000021002010B506F0A5F8012000214042D7
:101CB00004F0FAFD012009F095FBF6E700238022ED
:101CC00000B583B001930733009304490023520009
:101CD000034809F03BF903B000BDC04660C40010E2
:101CE000A11C0010F8B5DE4657464E464546E0B505
:101CF000B64D0AAC2970B649267889460A70B54AAD
:101D0000B54C1370B54B90469A461E70207000F08B
:101D1000A9FC287800F0A6FC4B46187800F0A2FC3D
:101D20004346187800F09EFC53460127187800F0CF
:101D300099FC3A002378D0269A40360672623A001F
:101D40002B7839009A404B4672623A001B780A2081
:101D50009A40434672623A001B789A405346726238
:101D60001B78994071627261B16101F0B3FB534617
:101D70003A001B780A209A40726101F0ABFB4B4697
:101D80003A001B789A404346B2611B789F40072374
:101D90009A461A33B7619B46012710E07361012010
:101DA000002101F061FB3A00237801209A400021D4
:101DB000726101F059FB5346013B0FD39A463A003A
:101DC000237851469A40B2613A002B789A4013002A
:101DD0005A460A411742E1D1B361E0E743461A7817
:101DE0000123190091400A00D02109064A618A4660
:101DF0004946097807278B4051468B6114230126F9
:101E00009B468A6111E0524653610120002101F096
:101E10002BFB3200237801209A4013005246002108
:101E2000536101F021FB013F10D3320023789A4027
:101E300013005246936132002B789A4013005A46A1
:101E40003A411642DFD152469361DEE743461A78A3
:101E50000123190091400A00D02109064A618A46EF
:101E60004946097807278B4051468B61B5230126E7
:101E70009B468A6111E0524653610120002101F026
:101E8000F3FA3200237801209A40130052460021D1
:101E9000536101F0E9FA013F10D3320023789A40F0
:101EA00013005246936132002B789A4013005A4631
:101EB0003A411642DFD152469361DEE743461A7833
:101EC0000123190091400A00D02109064A618A467F
:101ED0004946097807278B4051468B61202301260C
:101EE0009B468A6111E0524653610120002101F0B6
:101EF000BBFA3200237801209A4013005246002199
:101F0000536101F0B1FA013F10D3320023789A40B7
:101F100013005246936132002B789A4013005A46C0
:101F20003A411642DFD152469361DEE743461A78C2
:101F30000123190091400A00D02109064A618A460E
:101F40004946097807278B4051468B610C230126AF
:101F500099468A6111E0524653610120002101F047
:101F600083FA3200237801209A4013005246002160
:101F7000536101F079FA013F10D3320023789A407F
:101F800013005246936132002B789A4013004A4660
:101F90003A411642DFD152469361DEE743461A7852
:101FA00001239340D02212065361FC2200215200EB
:101FB0000B4802F03BFA00220A4B1A700A4B1A70C7
:101FC000F0BCBB46B246A946A046F8BD65AA0020B3
:101FD00064AA002061AA002067AA002066AA002047
:101FE0007C15002062AA002063AA0020F0B55746A5
:101FF0004E464546DE46E0B5534BD0271A789B4601
:1020000001231900914083B0504A3F060190B96105
:102010009246127807269340BB614D4B01259846A6
:1020200021234C4C99460EE07B610120002101F0F8
:102030001BFA2A00237801209A4000217A6101F0DE
:1020400013FA013E0ED32A0023789A404346BA6120
:102050002A001B789A4013004A4632411542E3D1C8
:10206000BB61E2E753461A7801231900D02791405B
:102070003F0679610A005946097807268B40BB6103
:102080008023BA61019A01251A4391460EE07B61D3
:102090000120002101F0E8F92A00237801209A406C
:1020A00000217A6101F0E0F9013E0ED32A00237885
:1020B0009A404346BA612A001B789A4013004A4668
:1020C00032411542E3D1BB61E2E753461A7801235E
:1020D0001900D02791403F0679610A0059460978D6
:1020E00007268B40BB61202301259946BA610EE08B
:1020F0007B610120002101F0B7F92A00237801203B
:102100009A4000217A6101F0AFF9013E0ED32A0016
:1021100023789A404346BA612A001B789A401300FC
:102120004A4632411542E3D1BB61E2E753461A7891
:1021300001239340D0221206536103B0F0BCBB468A
:10214000B246A946A046F0BD64AA002061AA0020BC
:1021500065AA002067AA0020FC2210B552000021C9
:10216000044802F063F90022034B1A70034B1A7003
:1021700010BDC0467C15002062AA002063AA002082
:10218000F0B54E46DE4657464546E0B55D4A85B059
:102190000192002203925C4AD02602925B4A0124FB
:1021A00091465B4B5B4F9B461B7836062100039A9A
:1021B00007259246029A1278914022009A40802385
:1021C000B1619846B2610EE073610120002101F017
:1021D0004BF922003B7801209A400021726101F006
:1021E00043F9013D0ED322003B789A404B46B26141
:1021F00022001B789A40130042462A411442E3D140
:10220000B361E2E75B4622001B7821009A407261CD
:102210001300029A0725127891405246B161B361CA
:1022200040231A43D3B298460EE073610120002187
:1022300001F01AF922003B7801209A4000217261D6
:1022400001F012F9013D0ED322003B789A404B4633
:10225000B26122001B789A40130042462A41144280
:10226000E3D1B361E2E75B4622001B7854219A4038
:102270007261019A494252189246524621001278E0
:1022800007259046029A1278914022009A40716187
:10229000B2610EE073610120002101F0E5F8220037
:1022A0003B7801209A400021726101F0DDF8013D88
:1022B0000ED322003B789A404B46B26122001B7835
:1022C0009A40130042462A411442E3D1B361E2E747
:1022D0005B4622001B789A40726101229244019A67
:1022E0005245CAD11100039A54310132039201912F
:1022F000062A00D05AE705B0F0BCBB46B246A94654
:10230000A046F0BDD015002064AA002065AA0020D8
:1023100061AA002067AA0020024B1870024B1970B6
:102320007047C04662AA002063AA0020F0B5DE46CE
:1023300057464E464546E0B5017885B0002932D073
:1023400000259E4C0195A14623780C009C4D9D4A8A
:1023500002959D4D9246127803950A2C2DD101329B
:10236000D2B2052A00D8B4E04278431C002A00D13A
:1023700001E10A2A00D077E084780230002C00D1F5
:10238000FFE00A2C16D10123447801930130022288
:102390000023002CE1D101994C46D446002901D0FC
:1023A00061460A70237005B0F0BCBB46B246A94630
:1023B000A046F0BD0023093A0192002600273A25E5
:1023C000203CE1B28D427E4171422140542454436D
:1023D000A4465C1CE4B2532B19D9532C31D8FC24ED
:1023E000FF236400A44500DAA7E0DC1CE4B2542C0F
:1023F00000D091E051230633DBB244780130002C49
:10240000ABD101994C46D4460029C9D1CAE71D0079
:10241000FC2665442F007600B54251DB542C31D1A7
:102420001C1DE4B2532CE6D8FC2564446D00AC427C
:10243000E1DA039D8E00711869180979029D29550A
:10244000D9E765469C1CE4B26619532C00D99FE07D
:10245000FC235B009E4255DB63465E1CFC235B0055
:102460009E427DDBFA3BC6E7203AD1B23A291ED91B
:102470000021534A18001170002301220124019207
:102480009C4600226444A046FC246400A04524DA53
:102490008D00AB4645464C4C8B445C446478484EBA
:1024A00074559C1CE4B2542C1BD15223A3E7110099
:1024B000180001220023019201249C4600220027DB
:1024C0008D00A846884445463F4EAE5D3C4DEE55D6
:1024D000A4E70123019300238FE79C1CE4B2542C52
:1024E000E3D06444A046FC246400A04500DB7CE704
:1024F0008D00AB464546344C8B445C44304EA4784A
:10250000745572E78D00A8462F4B884443442C4CE9
:102510009B78A3550124FE236444A046FC24640058
:10252000A04500DB7CE78D00AB464546264C8B443E
:102530005C44234EE478745572E78D00A846224B24
:10254000884443445D781E4E2F006546775501252B
:102550006544A54201DA9B7873550224FF23DBE72B
:102560008D00A846184B88444344154CDB78A3558E
:10257000FE23022458E7D44661464C4600230A70E5
:1025800010E7D446012261464C4600230A7009E751
:10259000DC1CE4B26619532C00D941E7FC235B0034
:1025A0009E4201DBFB3B26E705254D43064B044CD1
:1025B0005B19DB78A355FD23012435E762AA0020CF
:1025C0007C15002063AA00207CC7001005280AD8CB
:1025D0005423434304481818020054320368DB4371
:1025E00008C09042FAD170477C15002010B54024F5
:1025F000074A83009A181268C0005440C022224043
:10260000044C1B191A60044BC018416010BDC04631
:1026100004C0014004D0014000400140064B80004E
:10262000C3181B68C90092000A435A400C23134088
:10263000024A80180360704704C0014004D0014082
:102640008000002904D0054BC01840230360704768
:10265000034BC01840230360F9E7C04604E0014083
:1026600004F001400123D02283401206936293615B
:10267000084A83009A1811684022514080320A406B
:102680000549C0005B181A60044BC018052343605D
:102690007047C04604C0014004D0014000400140E2
:1026A0008023DB051868000F7047C0460FB400B5E3
:1026B000084883B003F01EFC049B002B07D005A93B
:1026C0001800019103F07EFA034803F013FC012087
:1026D00003F090FA64C4001074C4001010B50148EF
:1026E000FFF7E4FF78C4001070B58C461600EFF3D6
:1026F000108472B60F490B68002BFCD0BFF35F8FBC
:102700006346DB08C5180722C05C63461A400123F4
:1027100093401A000240034207D118432870BFF3C8
:102720005F8F0A6084F3108870BD61463000FFF748
:10273000BDFFC0462C0100D0F8B5CE4647468C46BA
:1027400080B51C00EFF3108872B61C490B68002B93
:10275000FCD0BFF35F8FA24221D80723994602E045
:102760000132944218D34946012611408E40D308C5
:10277000C718C35C1E42F3D1100033433B70BFF354
:102780005F8F00220D4B1A6088F3108800280EDB43
:10279000C0BCB946B046F8BD01204042EFE7BFF3E8
:1027A0005F8F00230B6088F310880120404263464E
:1027B000002BEDD00898FFF779FFC0462C0100D020
:1027C000044A1078431CDBB2172B00D91023137076
:1027D0007047C0466C0F002010B50100024A034844
:1027E000FFF782FF10BDC04688C40010241A0020E5
:1027F00000B5054B83B00100009318221F23034846
:10280000FFF79AFF03B000BDA8C40010241A0020EF
:102810000021044B044ABFF35F8F02C39342FAD1F5
:102820007047C046000100D0800100D0084B094A23
:102830001360094A1360094A1360094A1360094A80
:102840001360094A1360094A1360094A136070470C
:102850008080808000E400E004E400E008E400E020
:102860000CE400E010E400E014E400E018E400E010
:102870001CE400E01F2318401E3B8340002905D0C4
:10288000C021044A49005350136070478022014917
:102890008B50FAE700E100E001228240034B1B6805
:1028A00013405A1E9341D8B27047C04600E100E081
:1028B00070B50D00EFF3108672B60F4A1368002B47
:1028C000FCD0BFF35F8F0D4B10309B6884001B5909
:1028D0000B4A934203D09D4201D001F06DF8074BA3
:1028E0009B681D51BFF35F8FBFF35F8F0022024BC8
:1028F0001A6086F3108870BD240100D000ED00E05E
:10290000C1010010F0B5DE4657464E464546E0B5DB
:10291000824683B08B461700EFF3108872B6604A88
:102920001368002BFCD0BFF35F8F00255D4B5D5714
:102930009946002D00DA9AE04A466B005A4C5E191F
:10294000B6000193A31900939B791370574B9A68B3
:10295000534610339B00D15899460B1B2F2B32D96D
:10296000534B994200D098E0019B0236ED18514B31
:10297000AD006353504BA619043B9B1B4F4A1B05EC
:102980005B0D651913436B804D4B0121AB80FF2319
:10299000AB715B46AB60009BEF710B4319004A467D
:1029A000424B9B689950BFF35F8FBFF35F8F00224C
:1029B0003B4B1A6088F3108803B0F0BCBB46B246AC
:1029C000A946A046F0BD01200A008243D379B4464F
:1029D000BB422DD83B4BB51C190013001B1B5B41A0
:1029E0005943090D8C46334B6519A353324B00995B
:1029F000043B5B1B1B05314D5B0D2B4304364B80A9
:102A0000A619131F9B1B1B055B0D1D4363468B7192
:102A10005B468B602C4B8D80CF7113600143BEE70A
:102A20005800C01880002018C679BE4225D902007F
:102A30000623D356002BF3DA9A46131D9C462348EF
:102A40006346009E9571043EF61A36051B4B760DC3
:102A50001E43019B96805A1953469200A418A371F5
:102A60005B46194AA0802260E771A36097E700F0F7
:102A7000A3FF00254B465D575EE766469A46131D49
:102A80009C469088043640050015A6196044801BBA
:102A900000050A4E400D3043D2E700F08DFF63E79A
:102AA000240100D06BAA0020700F002000ED00E090
:102AB000C101001000A1FFFFA00F002000E0FFFFF8
:102AC00001BDFFFFAAAA00000148804701BD000028
:102AD000F0B54546DE4657464E46E0B50D0083B09C
:102AE000EFF3108872B6604A1368002BFCD0BFF376
:102AF0005F8F5E4B5E499A68030010339F00D45984
:102B000099468C423ED0AC424FD05A4EA21B2F2A3F
:102B100038D8594B1A689C46130001228240134052
:102B20001F22024001209A4690406346802283463D
:102B30009850BFF35F8FEFF305830193002B36D0DE
:102B4000994501D000F038FF012322009A43906894
:102B5000854208D176E04B005B189B00F31898681B
:102B6000854236D01A00062151560029F3DA8542F3
:102B700054D05346002B27D0C02259463E4B52001A
:102B800099501960394B9B68DC51BFF35F8FBFF3DD
:102B90005F8F0022344B1A6088F3108803B0F0BCBA
:102BA000BB46B246A946A046F0BD0C00EAE72200AB
:102BB00001339A4390688542D5D106201056130000
:102BC00000280ADA0C0031E0802359462A4AD15005
:102BD000D8E706201856002821DB4200111889008A
:102BE00075188946A9689960E979D97106216956ED
:102BF0009971002924DBAD88F11A6D052D154D441E
:102C0000491909051D4D490D2943998013181C4A7E
:102C10009B001178F31899711070AAE713000199BD
:102C2000002914D1FF3191711649918014490A7815
:102C30009A71154A9B1B5B415A43120D0A7098E723
:102C40001049E2E70620105613000028C5DA0F4AA3
:102C50000F49D21A083A5002400D014399800D499C
:102C600052080A43DA8084E7240100D000ED00E036
:102C7000C1010010700F002000E100E000E0FFFF44
:102C80006BAA002001BDFFFFAAAA0000AA0F002026
:102C900000F0FFFF00F8FFFF084A83089B009B1825
:102CA0001A6810B5140003221040C000FC328240A4
:102CB0009443220081400A431A6010BD00E400E002
:102CC0000123034370B59C46EFF30581EFF31085B4
:102CD00072B6214A1368002BFCD0BFF35F8F1F4BE5
:102CE00004001F4AE41A64416243120D1D4C89001E
:102CF000A66852B2765866451CD0062159569142B4
:102D00001CD012215956914222D01E21595691426F
:102D100020D02A2159560324914210D0124B197801
:102D20001A708171BFF35F8F00220B4B1A6085F31D
:102D3000108870BDA3680D4C5C50EFE70024610063
:102D4000091989005B18FF21997109499980E5E704
:102D50000124F4E70224F2E7240100D0700F0020E0
:102D6000AAAA000000ED00E06BAA0020C10100103B
:102D700001BDFFFF024BC918890001607047C046C2
:102D800040000034F8B5124C124DAC4212D201266C
:102D9000002776422368002B0DD0FFF711FD0100BC
:102DA0002000FFF7E7FF66602772BFF35F8F0C34E8
:102DB000AC42EFD3F8BDFFF703FD01002000FFF7A1
:102DC000D9FF6660BFF35F8F0834AC42E2D3F1E70E
:102DD000281000203810002010B50400FFF7F0FC88
:102DE00001002000FFF7C6FF01235B426360BFF3D1
:102DF0005F8F10BD10B504000120FFF7F9FC034BF5
:102E0000C01880002060BFF35F8F10BD4000003409
:102E1000F0B5DE4657464E464546E0B585B0EFF381
:102E2000058303221A40B34B91005F58012393405E
:102E30009B4602925A468846AF4B1A60AF4B0393AB
:102E40005B46AF4843630823FE5E002E37DABB883B
:102E50001BB2002B00DBA4E0BB79002B00D0E5E027
:102E60000823F95E002920DB4B007A695B18DB0040
:102E7000D3189D68DC686B1C00D104E1A0480100F8
:102E80004144826A0B69AE1A9B1A9E4215D30123F4
:102E9000026A029883401A420FD0994800F0D2FA91
:102EA0008C4202DCCCD18542CAD940BF05B0F0BC0F
:102EB000BB46B246A946A046F0BD0D61EDE77A6972
:102EC000730091469B19DB0099444B469C68DD6872
:102ED00000F0B8FA8D42BADC00D1F6E0002D00DA3D
:102EE000DBE04A464B4652691B699246039A93427D
:102EF00000D1CCE04A460821785E52880004514651
:102F000010439847009001910099019A0B001343D8
:102F100000D1C2E013000A00002B00DBD9E0200042
:102F20002900801A99414B469860D96000229B5E27
:102F3000002B00DA8BE75D007C69EA18D200A2184A
:102F400000949468D268A2468A4200DD7FE702D1ED
:102F5000844200D97BE70824A4463B81BC44009C02
:102F600000972F006546B4463E0006E05E00F2186A
:102F7000D200A2189768D268BA468A4207DC00D10C
:102F8000B4E0F318DB00E518E35E002BEEDA6646EA
:102F90004A46009F13802E80BB881BB2002B00DAAC
:102FA0005AE73A69EFF3108172B61368002BFCD030
:102FB000BFF35F8F0123BE885B42BB8036B23B69A3
:102FC000BFF35F8F00221A6081F31088002E00DAB1
:102FD00042E73B0008333A0099467D6973009B192C
:102FE0000824115FDB004846EB18002913DB9C68BE
:102FF0000093A446DC6806E0A34240D00023F95EBB
:103000003800002906DB4F007F18FF00EF19FB682E
:10301000A342F1DD009B068000201E5E1980002E79
:10302000DCDA1700BB79002B00D119E70023BB7154
:103030000823F95E4B1C00D137E73D000835AC464C
:103040007C6903E084464B1C00D109E74B005B1808
:10305000DB00E0180A00E15E43881BB2002BF1DAC6
:1030600001256D42EE178560C66008257B5F93429F
:10307000E9D0634619803B8903803A81E3E7BB6866
:103080006345BBD9C6E7631C00D0F7E605E75346A6
:1030900050461B699847002823D14B461B883A6944
:1030A0003B81EFF3108372B611680029FCD0BFF3A7
:1030B0005F8F49467A880A803A697E80BFF35F8FC6
:1030C0000021116083F31088C1E6844200D805E72F
:1030D000BDE60B4800F0B6F9009B019CC0186141A9
:1030E00021E753460CCB009201930DE7824500D8AF
:1030F00047E74CE7841E00203C700540112E00106D
:1031000000400540074810B50268EFF3108172B621
:103110001368002BFCD0BFF35F8F05F0F5FA002099
:10312000002110BD4821002070B52D4C2569002DCF
:1031300004D00A212B48FFF71DFE70BD2A4E032143
:10314000294800F075F9E660FFF73AFB274B0322A8
:10315000C018D02322701B061B6801216370244B0A
:103160008000A3600F2320610220638063694942CD
:10317000A18019800231198647311D8358521831B8
:103180005A5275325C3999521832013199521832BB
:1031900001319952183201319952083518329D5235
:1031A00002311832995218320131995218320131D4
:1031B000995218320131995218320131995218320C
:1031C000013199520B4B0C49DC6001303562FFF73D
:1031D0006FFB01210320FFF74DFB084B1D60A8E7A3
:1031E000B80F002048210020004005404000003476
:1031F000FFFF1000841E0020112E001038600540D3
:1032000070B582B00092019301000269EFF310845F
:1032100072B61368002BFCD0BFF35F8F0223C85E29
:103220000D6900283FDB4A69430016001B18DB00CC
:10323000D218F35A4B80BFF35F8F00232B6084F3C7
:103240001088069B1361079B5361009B019C936050
:10325000D460538801335B045B0C1D1C002B20D011
:10326000ACB20304558023430D69EFF3108C72B6A2
:103270002C68002CFCD0BFF35F8F8C881480888072
:103280000A69BFF35F8F002010608CF310880A7802
:1032900001309040CA68084952181060180002B006
:1032A00070BD0125DCE7BFF35F8F00232B6084F343
:1032B0001088013BF2E7C0463C20000010B543896E
:1032C0000A1493421ADD53009B184269DB00D3189D
:1032D0000469EFF3108C72B62268002AFCD0BFF3A9
:1032E0005F8F5A88090494B2090C8A4208D0036996
:1032F000BFF35F8F00221A608CF31088002010BD8E
:10330000094A22435A80012302698371BFF35F8F08
:10331000002111608CF31088027804499340C26840
:10332000012052181360EAE70080FFFF3C200000F4
:10333000F0B5CE46474680B504000D0085B0EFF3EA
:1033400005868946002E10D0364900204B6AAB42D4
:1033500006D38A6A5B1B591E8B41A2424041184327
:1033600005B0C0BCB946B046F0BD2F4FFB683A78F7
:1033700098461800039200F065F8039A131D424620
:103380009B009B5822001B1A9C462B00121A8B4153
:103390009E4210DC0DD020BF224A0020536A4B45CC
:1033A000DED3926A5B1B591E8B41A24240411843F7
:1033B000D6E79445EFD900F04DF822002B00121A01
:1033C0008B41002B1BDB00230193184B2200009341
:1033D00038002B00FFF714FF002810DD114B5A6A4C
:1033E0004A451CD39B6AA34217D301003800FFF75C
:1033F00065FF0C4A0020536A4B45B1D3D1E7094A17
:103400000020536A4B45ABD30020926A5B1BA2425B
:1034100040415A1E93411843A2E74A45E5D120BFD7
:10342000E3E7C04600400540B80F0020053100101A
:1034300010B5024A0248FFF757F910BDC4C4001086
:10344000281A00200300416A0A00986A596A8A42D1
:10345000FAD17047034B596A0A00986A596A914237
:10346000FAD170470040054070B505000E00184ABB
:10347000536A1900946A536A8B42FAD120001900EA
:103480002C00350024184D41AB4216D813D0104BF8
:103490002A005B6A9D4203D90D494B6A9342FCD3D3
:1034A000934207D10A4A02E0516A994202D1916AD5
:1034B000A142F9D370BDA042E9D9054B5B6A1C005B
:1034C0005A1CEFD0012201246442E5175242E3E77F
:1034D00000400540254B70B598420BD843011B1A9C
:1034E000234A9B001818916AC000936A5B1A98429D
:1034F000FBD870BDFA2200239200002100F03EFFAD
:1035000005000E001A4A536A1900946A536A8B42E6
:10351000FAD1200019002C00350024184D41AB428F
:1035200019D9134B5B6A18005A1C0BD001230124D4
:103530006442E5175B420E494A6A9A42FCD39A42BA
:10354000D7D120000A4A02E0516A9942D1D1916A4A
:103550008142F9D3CDE7AB4205D0054A2B00526A30
:103560009542E8D8EBE7A042F7D9DAE79BC4200000
:1035700000400540F8B5040006200D0000F06EF98B
:10358000002843D0364B3749E3185A1E9341802216
:103590005B429B0D12049B059B18334A1360334A10
:1035A000136018000A689043FBD12D4B304AE31892
:1035B00059424B4180215B0049000620995200F09E
:1035C0004DF92900C00000F05FFB0130C3091ED196
:1035D000402701226262A362266BF30722D4E36ACA
:1035E000244B0620E51800232B60266300F036F9F3
:1035F0003900800000F048FB7023E26A5A400E3325
:1036000013402B601C4B23630323A364F8BD1B4AA8
:1036100093421DD900231A4A1A4F6262A362266B95
:10362000F307DCD5184B144AE3181A60656AA36ADD
:103630000620AD01ED1800F011F9144900F024FB4B
:103640000100A80200F020FB0021FFF70DFFC6E7F4
:1036500040069A01800E17181A000300BAE7C04608
:103660000080FCBF08C0004000E0004000F00040C7
:103670004C2100202C10000001030000FEFF000080
:10368000FFFF0000C0FF3F00303000004E0E000082
:10369000F8B5DE464E4645465746E0B505008B4632
:1036A00018000A99914600F0EFFA0A9B6C001E027E
:1036B0006419304BA400E418636880469E4200D928
:1036C00066602F1FFBB29A46012B2FD9C0238022A0
:1036D000294FAD009B0179591201E3181A600029A6
:1036E0001BD14B4622685B015340E02213408022ED
:1036F0005201A21813605346012B2FD98023802238
:103700009B01E31812011A60434666607B51F0BCCE
:10371000BB46B246A946A046F8BD786900F0B4FAA7
:10372000013043001B18033BFDD2DAE75B46012B57
:10373000CCD1C02303229B01E3181A60023AA3688C
:103740001A42FCD04A46236852015A40E0231340F3
:1037500080225201A218084F1360AD00584603237F
:10376000216841400B40136001228240A3681A4245
:10377000FCD0C3E7008000402C1A0020F0B5D646EC
:103780004F464646440098462418324BA400E4189D
:1037900063688A469146C0B5FF2B02D880235B0040
:1037A0006360061FF6B2012E2FD9C02380222A4F54
:1037B00085009B0179591201E3181A6000291BD179
:1037C0004B4622685B015340E022134080225201A5
:1037D000A2181360012E30D9802380229B01E318A8
:1037E00012011A6080235B00636043467B51E0BC9A
:1037F000BA46B146A846F0BD786900F045FA0130F6
:1038000043001B18033BFDD2DAE75346012BCCD112
:10381000C02303229B01E3181A60023AA3681A42EC
:10382000FCD04A46236852015A40E02313408022CC
:103830005201A218084F13608500504603232168E7
:1038400041400B40136001228240A3681A42FCD021
:10385000C2E7C046008000402C1A0020014B8000C7
:10386000C05870472C1A0020F0B5C646040000B5B9
:103870002348160098460D0000F006FA01003000BB
:1038800000F002FA4346069A1B04120313439C46B7
:1038900023680600002B22DB1A4B1B48E218531E3C
:1038A0009A4180235242120B9B011203D218174BEC
:1038B0001A60174B1A60130001688B43FBD1212259
:1038C000144B2560E318A6601A602268002AFCDA0F
:1038D0006246E26008221A6080BCB846F0BD3F2311
:1038E00022681340AB42D7D1A3681B051B0D83424E
:1038F000D2D1EE22E368D20213406345CCD1EBE78C
:10390000001BB7000040FDBF08C0004000E00040C1
:1039100000F00040043000008023024A9B000B436B
:10392000D362704700800540002310B50100988ADB
:103930001B8B984710BDC046162310B50100188890
:103940005B88984710BDC046F8B54746CE4680B55F
:103950000F1E18D0142399460433040000250126B5
:1039600098464B461888434621681B88984701C4EF
:10397000431E984101350640AF42F2D13000C0BC31
:10398000B946B046F8BD0126F8E7C046AA23064A64
:103990001B0113608D235B00D3600449044B196045
:1039A0005368002BFCDA70470040024000B0FA0078
:1039B000006002407047C04610B50148FEF776FE31
:1039C000E8C4001070B5074D074EB54209D2002477
:1039D000013E761BB608013608CD01349847B44243
:1039E000FAD170BDC0C10010FCC1001070B5074D08
:1039F000074EB54209D20024013E761BB6080136B7
:103A000008CD01349847B442FAD170BDF4C100101A
:103A1000FCC10010054B064A06491A60064A074BCE
:103A20001A6010000B689843FBD1704700E000401B
:103A3000BFCDFBFE08C00040FE7F3C0000F0004010
:103A4000044BDB6C002B03D18022034BD2021A60A3
:103A50007047C046000011504C201150044A054BDD
:103A60001A60054A1368DB018033FBD17047C046FA
:103A7000FFFFFF0100F0004008C000404022034B60
:103A80009A675A671A67DA667047C04600F00140C5
:103A900010B5FEF7BDFE10BD70B52849284D294E62
:103AA0006D1AAC102200302C00D930223000920068
:103AB00000F0C2FCBC2D3DD823002A3B224A052B36
:103AC0001DD9302075196D07A446001BEB0F002D82
:103AD00003DA611C8C46A1007250C01AE3189B00E7
:103AE0004108F318C900C9181A605A60083399428E
:103AF000FAD1012303421DD0984360440400A3007F
:103B0000F250631C2F2C15D09B00F250A31C2E2CBE
:103B100010D09B00F250E31C2D2C0BD09B00F250D8
:103B2000231D2C2C06D09B00F250631D2B2C01D0A2
:103B30009B00F250054B9E6070BDC0460001001016
:103B4000C001001000000020C101001000ED00E0E5
:103B5000002310B5294C82B0A367FFF717FF01229D
:103B6000274B1A60636C012BFCD10322254B1A6092
:103B7000224A936B012BFCD1013300930121224A8D
:103B800022480433FFF770FE052301210093204AE9
:103B90002048FFF769FE0022022104201E4BFFF798
:103BA000EDFD0022012105201C4BFFF7E7FD00225F
:103BB000002107201A4BFFF7E1FD00220021082019
:103BC000174BFFF7DBFD8023DB0000930022002171
:103BD0000920134BFFF75CFD0022104B002106204B
:103BE000FFF7CCFD0420FFF739FE0E4900F04CF83A
:103BF00001000020FFF790FE02B010BD00800040E1
:103C00003CB0004030B00040002F685900800240B6
:103C1000008C864700C00240001BB7004059730764
:103C2000006CDC0240420F0001480421014B1847A0
:103C3000D00F002049390010124A936F9B0815D20B
:103C40009066D166002905D0FFE7FFE7FFE7516FD7
:103C5000106F704704B580210906C2175140002833
:103C600000D0C84308F07CFA002104BDF0B5146E02
:103C7000556E576F166FFFF7E3FF1466556657676B
:103C80001667F0BD000000D0114A936F9B0813D255
:103C900010665166002905D0FFE7FFE7FFE7516F87
:103CA000106F704704B5002801D00020C04308F011
:103CB00057FA002104BDC046F0B5146E556E576F1B
:103CC000166FFFF7E5FF1466556657671667F0BD78
:103CD000000000D094464A4A926F9208624601D290
:103CE00028E0C046F0B5464E346E756E776F366F7D
:103CF00000F020F89446424A1466556657671667E6
:103D00006246F0BD94463E4A926F9208624601D2E6
:103D100054E0C046F0B53A4E346E756E776F366F2C
:103D200000F04CF89446364A146655665767166795
:103D30006246F0BD002B24DB11D000293EDA00B52D
:103D4000C943404200D1013100F038F8C943404234
:103D500000D10131DB43524200D1013300BD002AC2
:103D6000EBD1002801D1002905D00020C90FC907D7
:103D700001D1C043410800B508F0EAF90022002350
:103D800000BD00B500290ADBDB43524200D10133FC
:103D900000F014F8C943404200D1013100BDC943CD
:103DA000404200D10131DB43524200D1013300F0E7
:103DB00005F8DB43524200D1013300BD002923D175
:103DC000002B18D1002A0CD0BC460D4F38667A66FD
:103DD00000210023FFE7FFE7FFE77A6F386F6746B0
:103DE0007047002801D00748010000B508F0B0F97D
:103DF0000022002300BD02000B00002000217047BC
:103E0000000000D0FFFFFFFF002B00D0BFE0130C2D
:103E100028D1002AE7D080B4114F39667A66FFE7CF
:103E2000FFE730B4040C7B6F396F1B0423433B6600
:103E30007A66FFE7FFE7FFE7C04684B27B6F3D6F1E
:103E40001B0423433B667A66FFE7FFE7C046002377
:103E50002C042D0C7A6F386F00196941B0BC704783
:103E6000000000D0F0B594460025140E01D11202D6
:103E70000835140F01D112010435940F01D19200BD
:103E80000235D40F01D152000135D40B0134254F36
:103E90007C66254C3C660E0C93B2FFE7FFE7FFE71C
:103EA0003C6F6643360C7703BE467343DF0B5B04FF
:103EB000C01AB941130C7343DB18C91ACE08664304
:103EC000360CB64493B273431F0F1B01C01AB9419D
:103ED000130C73431F0B1B05C01AB941860D8F02CB
:103EE0003E436643360C092D24DB520A7243801A86
:103EF0007703460A6643360C16235B1BDE40DF4021
:103F0000BF1964466643821B7046043506330100C0
:103F1000D940A840C01900D30131A24206D20023E3
:103F2000F0BD0000000000D0FFFFFFFF121B0130BA
:103F3000F3D3F1E709277F1BFE406446A2B2724328
:103F4000801A00D20139220C7243130C1204821A17
:103F500099410B007046043513370100F940A84021
:103F6000801900D30131002B02D1A2420AD2F0BD48
:103F7000013000D30131121BFAD2013BF8D1A24229
:103F800000D2F0BD013000D30131121BF7E7F0B5CC
:103F90001C0C00D080E00CB400251C0A04D11B02CC
:103FA000160E3343120208351C0B04D11B01160FE9
:103FB0003343120104359C0B04D19B00960F33430D
:103FC00092000235DC0B02D192185B4101351C00D6
:103FD000971864410134464F7C66464C3C660E0C93
:103FE000FFE7FFE7FFE7C0463C6F6643360C770309
:103FF000BE4697B27743C01B00D20139C01B00D226
:1040000001399FB27743C91BC91B170C77437E0444
:10401000FF0B801BB941CE086643360C0C2D33DBF9
:10402000B644120B1F053A431B0B97B27743C01BD4
:1040300000D201399FB27743C91B170C77433E0466
:104040003F0C801BB941860D8F023E4366432927F2
:104050007F1BFE400C3D7746AF40BF1930BCA2B27B
:10406000ABB272437343801A9941220C7243130C12
:104070001204801A994102000B000137001BA9416C
:10408000F9D2781E0021F0BD0C277F1BFE40774639
:104090007F0BAF40FF19E0E700245D1C07D0144FF1
:1040A0007D663966FFE7FFE7FFE7FFE73C6F95B204
:1040B0009EB265436643401BB141150C1E0C65431F
:1040C000664336042F0C3E432D04401BB1419942F8
:1040D00004D202000B0020000021F0BD01D190426B
:1040E000F7D3801A994101349942F2D3F6E70000E0
:1040F000000000D0FFFFFFFF48404140484018B497
:10410000134B5B68019308BD18B4114B1B680193F6
:1041100008BD94460F4A926F920805D2624618B4C1
:104120000B4BDB68019308BD0A4AF0B5146E556E5F
:10413000576F166F6246FFF7F2FF064A1466556620
:1041400057671667F0BD18B4014B9B68019308BD13
:1041500048130020000000D0FFB5504042405040BE
:1041600059404B40594000E0FFB5154F4C00640DDD
:1041700003D0BC4204D10C0314D80020090D09055A
:104180005C00640D03D0BC4204D11C030AD8002299
:104190001B0D1B0501264B4009D44B4003D58B4218
:1041A00000D18242FFBD9942FCD19042FFBD0B433A
:1041B000DB1803431343F5D0C9434918FFBD000082
:1041C000FF07000000B5FFF7CFFF804100BDC046EC
:1041D00000B5FFF7C9FF01D9002000BD012000BDD7
:1041E00000B5FFF7B9FF01D9002000BD012000BDD7
:1041F00000B5FFF7B1FF804100BD012040054A0036
:10420000121804D85A00121801D800207047012053
:10421000704700000021002805D17047C1174840B1
:10422000401AFAD0C90713B5064B1B6898470CBC57
:10423000441CA2401005120B0349091B0905194330
:10424000114310BD442000201F04000010B54C0095
:10425000620D8023D218DB00D21A5B057E2A10DDA6
:104260009E3A13DACC170903490819435242D14048
:10427000640001341532202A05DAD0400843604337
:1042800010BD002010BD0846604310BDC80FC01807
:10429000013810BD18B4024B5B6A019308BD0000E1
:1042A0004813002010B50148FEF700FAF4C40010CE
:1042B000132370B51D78012D19D014DD1D48FFF7AB
:1042C0003BFB06001C48FFF737FB1C4C80223100EB
:1042D000200000F0B1F8022D06D01948FFF724FBAA
:1042E000184B186070BD154C174BA364F5E7174BBE
:1042F000124C23606360A360E36023616361A36188
:10430000E36123626362A362E36223636363A36383
:10431000E36323646364A364E36423656365A36563
:10432000E36523666366A366E36623676367A36743
:10433000E367D9E7534400005346000048130020C8
:104340004C3300004420002051430010A5420010CF
:1043500007B5604601880A0A0230DF2AFAD1C9B2DD
:10436000820804D3028840880004104300E00068FB
:10437000014A5050039007BD481300205143434366
:10438000C9188C46110C83B24B4310B4040C614322
:1043900092B280B2504362431C041B0C001910BC43
:1043A00059411304120CC018514161447047000078
:1043B00010B50148FEF77AF968C50010132310B54F
:1043C0001C781148FFF7B8FA012C0BD004DD01006E
:1043D00080220E4800F030F80D48FFF7A5FA0D4B8B
:1043E000186010BD094C01005422200000F024F890
:1043F00022002000084980320368002B00D10160B0
:1044000004309042F8D1E7E75346000048200020EE
:104410004C33000044200020B14300100148042127
:10442000014B1847E00F002049390010014B1B6871
:1044300018470000E00F0020014B5B6818470000A0
:10444000E00F00209A4200D2885470477047C0465F
:10445000F8B5DE4657464E464546E0B599460D9BB3
:104460000700884693469B0728D00B9B002B3CD027
:1044700016000B9C0A9D3619321B013C4B464146E7
:10448000285DB847002CF7D135000D9B9B070ED552
:104490005B46EC1A0C9BA34209D91E002A004B462E
:1044A000414620200134B8470135B442F6D32800F4
:1044B000F0BCBB46B246A946A046F8BD0B9B0C9A81
:1044C000934214D213005D460C000B9A9E1A761983
:1044D0002A004B46013521002020B847B542F7D1CC
:1044E0000B9BA046002BC4D1E1E71500CDE75E464B
:1044F000002BBED15D46DAE7F0B54F46D6464646BC
:10450000C0B584B09C460EAB1F78129B9146BA464C
:104510000D9C109E119D9B074CD4002D41D1B4429F
:1045200048D20123129F1F40B8460C9B5F1E3023C8
:1045300003E001343B55A64201D9202CF9D1434672
:10454000002B00D187E00C9B5F1E3023A54204D8CE
:1045500030E001343B55AC422CD0202CF9D1129BD9
:10456000DB060DD5129B5B0557D4A64267D0A5424A
:1045700065D00F9B102B53D0022B5BD0202C36D153
:104580002023129C01930C9B4A460093039463469C
:104590000295FFF75DFF04B0E0BCBA46B146A846FD
:1045A000F0BD0123129A13409846012313422DD1E6
:1045B000B442BAD3129BDB061ED5129B5B05D8D43E
:1045C000002CD2D10F9B102B60D00F9B022B71D0EF
:1045D000302301240C9A13705346002B11D1129BE7
:1045E0005B0740D52B260C9A631C1655C9E72300A0
:1045F000013430260C9AD654202CC1D05346002BBF
:10460000EDD02D260C9A631C1655BAE7002F34D036
:10461000013DB44200D288E795E70F9B102BAFD144
:10462000129B9B063CD5202CAAD058230C9A1355DC
:104630000134A3E7202CA3D02300013407E0631E3C
:10464000012CBFD00F9A102A36D0022AD1D162266F
:104650000C9AD65492E7129BDB06CDD5129B5B05D4
:1046600000D482E785E7129A2300160700D488E772
:1046700020260C9A0133165583E70C2313405F1E46
:10468000BB41ED1AB44200D24FE75CE7129B9B0698
:104690000ED478230C9A02241370302353709BE7B6
:1046A000202C00D16CE778230C9A1355013465E770
:1046B0005823EFE76033EDE70C9AA61EB618129A5E
:1046C000920602D55822327093E77822327090E732
:1046D00010B5002800D110BD01F0C2FBFBE7C046B9
:1046E00010B5002803D04A680B681100984710BD28
:1046F000F0B54E46DE4657464546E0B595B0834692
:104700008946924698461E9A1F9B10001900209ECB
:10471000FFF773FD002800D0D2E11E981F990122F7
:10472000C44B5242FFF74EFD002800D001E11E9815
:104730001F990122C04B5242FFF75AFD002800D0BA
:10474000D6E01E981F990022BC4BFFF751FD0028B0
:1047500000D0B5E01E981F990022B94BFFF732FD3B
:10476000002800D0ACE01E981F9900220023FFF71C
:1047700029FD002800D0D1E000230B93229B5B058C
:1047800000D406260024302306E006AA013417329E
:104790001355013E202C01D0092EF6D81E981F99E2
:1047A000FFF754FDA74BF2009B180CCB05000892B5
:1047B0000993FFF733FD02000B001E981F99FFF7C6
:1047C0009EFC089A099BFFF7BEFC06900791FFF735
:1047D00061FD0700FFF71EFD02000B000698079918
:1047E000FFF78DFC0022984B06900791FFF700FD24
:1047F000002800D1E9E001373800FFF70BFD020087
:104800000B0008980999FFF7E3FC002801D0002766
:104810000135002E00D1B7E0069513E0172306AA54
:104820009B180A21380001341D19FFF72DFA303189
:10483000297038000A21013EFFF726FA092F00D817
:10484000E1E00700202CE9D1069D20240CAB069363
:10485000172706ABFF180DE028000A21FFF7ECF937
:1048600001343031280039550A21FFF7E5F9051EDA
:1048700000D1B7E0202CEFD10323229A1340012B63
:1048800017D1219B002B14D00B9B002B00D1E3E010
:10489000219B013B2193202B0BD93023219A06E049
:1048A00006A9013417310B55944200D3A0E0202C07
:1048B000F6D1229B01940393219B0293069B21E056
:1048C000229B52460493219B4946039358461E9BC4
:1048D0001F9C029600930194434600F043F90400A4
:1048E000200015B0F0BCBB46B246A946A046F0BDBC
:1048F000229B5B070FD40322544B22990192039110
:104900002199029100935246434649465846FFF783
:104910009FFD0400E4E704224D4BEEE71E9A1F9B27
:1049200000200021FFF7EBFB01231E901F910B934A
:1049300024E70223229A54461A40229B06929B07A0
:1049400000D1ACE02600434D08942F1F3200E878D8
:1049500043464946013DD8470136BD42F6D1089C41
:10496000069B0434002BBBD05746219AE31B9A4286
:10497000B6D9150022004346494620200134D847C5
:10498000E31BAB42F6D3ABE72800FFF747FC02007E
:104990000B001E981F99FFF7B2FB2B4B002206005D
:1049A0000F00FFF70FFC0CAB0693002800D04FE779
:1049B000002230003900244BFFF71AFC002800D0F9
:1049C00046E7012301359D4342E7002206980799F7
:1049D0001D4BFFF7F7FB002800D01AE7002F59D135
:1049E000013716E70323229A1340012B00D1A6E0DA
:1049F000202C00D15DE70B9B002B3AD02D23069A8B
:104A00001355013455E7069D202C00D11DE73023B6
:104A1000361906E006AA013417321355202C00D1AE
:104A200013E7A642F6D12E230CAA01340692935521
:104A30000EE7C046FFFFEFFFFFFFEF7F65CDCD41E3
:104A400065CDCDC198CA00100000E03F6CC50010D4
:104A500064C5001074C500100C23229A134257D06D
:104A6000219B013B2193A34200D916E7202C00D1C2
:104A70001FE7229B5B0704D52B23069A13550134AD
:104A800017E7229B1B0700D413E72023069A135530
:104A900001340EE7FB0700D4BBE60137B9E6219BE2
:104AA000042B00D84EE755464F46043CE4182A0034
:104AB0004346013539002020D847AC42F7D141E7C1
:104AC0000227229B55461F409B0726D006975F462C
:104AD000234EEC1C2A00B078434649460135B847BE
:104AE000013EAC42F6D1069F002F00D1F8E65746B2
:104AF000219AE31B9A4200D8F2E6150022004346B1
:104B0000494620200134D847E31BAB42F6D3E7E601
:104B1000219BA34200D9C0E6CBE6219B032BD5D92C
:104B2000069754464F46033DED1822004346013494
:104B300039002020D847A542F7D1069FC6E7219B20
:104B4000002B00D154E70B9B002B85D0219B013B10
:104B500021939C4200D2A0E6202C00D04EE7A8E68C
:104B600070C50010F0B54546DE4657464E46E0B5E6
:104B70009BB0249C259D82468846934699462200F8
:104B80002B0020002900FFF738FB002800D0C1E0EF
:104B90000122200029007C4B5242FFF729FB00280C
:104BA00000D0B7E0012220002900784B5242FFF7E5
:104BB00009FB002800D0ADE00022002320002900DE
:104BC000FFF700FB002800D0BBE108940995089886
:104BD00009998023289ADB001A400F928022289E90
:104BE0001201164032000E96289E0F000A901E42B7
:104BF00000D0A4E00B00034300D0CBE0002A00D09B
:104C000012E2320006332693022313400C93022350
:104C1000134200D00AE2279B042B00D215E20027A2
:104C20000426043B0E930022002320002900FFF7F6
:104C3000C9FA002800D0C8E1554B289A13400493C4
:104C40000E9B0393269B0293089B099C009301945F
:104C500041464B465A465046FFF74AFD0200202087
:104C6000289B0025034059424B415B421840531C8E
:104C7000089341464B464530D047FB17FC185C4033
:104C8000FB0F1F270A93731E0E930AABFF1806E053
:104C900020000A21FEF7F8FF0400202D08D00A2189
:104CA0002000FEF7F1FF013530317955092CEFD89E
:104CB000052306930E9B56460593002304930A335F
:104CC00003930A9B4146029312AB009330004B467C
:104CD000089A0195FFF710FC0C9B002B28D05F462B
:104CE000279BC41BA34223D982461D003A194B4679
:104CF000414620200134B047A542F7D850465946D6
:104D0000279C421A01320023944200D395E10130DE
:104D100018180DE0289B009401950493279B03939A
:104D2000269B02934B465A4641465046FFF7E0FC0D
:104D30001BB0F0BCBB46B246A946A046F0BD01433D
:104D40002AD10E9B3200002B00D15DE70027269B65
:104D50000026BB4200DD82E1002200232000290062
:104D6000FFF730FA002800D04BE1289B084A029652
:104D70001A408023DB0013430493279B0393089B73
:104D8000099C00930194CDE7FFFFEF7FFFFFEFFF4A
:104D9000FFF7FFFF06232693B24B7800400DC018A3
:104DA000FFF73CFAB04AB14BFFF7CDF9B04AB14B2F
:104DB000FFF7AAF93F03B04B3F0B3B430C900D911B
:104DC00000220A981900AD4BFFF799F9AC4AAD4B98
:104DD000FFF7B9F902000B000C980D99FFF794F951
:104DE000FFF734FA0700FFF719FAA74AA74B0A9012
:104DF0000B91FFF7A8F90022A54BFFF785F9FFF704
:104E000025FAA44A06000A980B99A34BFFF79BF9D1
:104E10000A900B913000FFF701FAA04AA04BFFF770
:104E200092F902000B000A980B99FFF768F902004B
:104E30000B000A900B91FFF786F90C900D910A98E0
:104E40000B9902000B00FFF75FF9002210901191FF
:104E50000C980D99934BFFF75CF90022924BFFF7EA
:104E600053F902000B000C980D99FFF752F900223C
:104E70008E4BFFF749F902000B000C980D99FFF7D4
:104E800048F90A9A0B9B0C900D9180210020C905CE
:104E9000FFF735F902000B000C980D99FFF734F974
:104EA00002000B0010981199FFF733F90022724BA2
:104EB000FFF72AF97E4B0022F6183305FFF743F976
:104EC00002000B000A900B9108980999FFF77AF9F4
:104ED000002808D00A980B990022734BFFF719F9A4
:104EE0000A900B91013F0A990B9A0B0011003A00AE
:104EF0006332C62A12D802222898042610400E9A3D
:104F00000C90002A26D1279B042B05D9002800D01D
:104F1000A1E0279B043B0E93042642E0022228983E
:104F200010400E9A0C90002A13D1279B052B00D815
:104F300089E0002800D084E0279B0526053B0E93DE
:104F400032E080231B069C46AC44634608940993D8
:104F50003DE605260B4300D1F9E608980999554A24
:104F6000554BFFF73DF9002808D008980999002211
:104F7000524BFFF727F9002800D0E8E6269B002BCC
:104F800034D00F9B002B31D0269B013B2693279BCF
:104F9000B34204D90C9B002B59D002230C9300235D
:104FA0000E93002F00D13EE60A9A0B9B08980999B0
:104FB000FFF7AFF800220890099100232000290094
:104FC000FFF700F9002800D136E6089C099D289AD1
:104FD00080203B4B00061340220004930E9B03935A
:104FE000269B02932B180092019331E6279BB34234
:104FF000D5D90C9B002B2AD000230E9302330C939F
:10500000CFE7289B2E4A8020089C099D1A408023C8
:10501000DB00134322000493279B000603932B1805
:105020000092019302967DE6052695E600230E93F5
:105030000233002704260C93F5E54B1E1B191B1A9F
:1050400065E602230C930526AEE70423E7E5279BDC
:105050009B1B0E93A5E7022304260C93A1E7DB1B01
:105060005E1E79E601FCFFFFFB799F501344D33F9E
:10507000B3C8608B288AC63F0000F03F0000F83FAD
:1050800061436F63A787D23F71A379094F930A40A9
:105090000000E03F1655B5BBB16B0240EF39FAFE98
:1050A000422EE63F00002C40000024400000184043
:1050B000FF0300002D431CEBE2361A3F80842E4193
:1050C000FFF7FFFFF0B55746DE464E464546E0B5D2
:1050D000A3B01F002C9B92460C93C94AC94B8B4628
:1050E0000B901A60002900D1BFE10023387899465F
:1050F000002800D1C1E1C44B4C460993C34B0E9329
:105100005B460A9308E0220053460A990B9DA84784
:1051100001343878002876D001372528F3D11023C0
:105120009B46083B9946043B9846033B00260225D4
:105130009C463878791C0300203BDBB2102B03D847
:10514000099A9B00D3589F460300303B092B36D960
:1051500000252A2800D1A7E000230D932E283FD058
:105160000300683BDBB2122B1BD80E9A9B00D3586E
:105170009F4663460F001E43DBE70F002E43D8E730
:1051800043460F001E43D4E75B460F001E43D0E7A3
:105190004B460F001E43CCE7802378785B001E430C
:1051A00001310F00672845D82428ACD90300253BDE
:1051B000DBB2422BA7D896499B00CB589F460025CF
:1051C000AB005D196D002D1808780F000300303B0F
:1051D000303D0131092BF3D900230D932E28BFD187
:1051E0003022802052429046C000064378780B005F
:1051F00080444246092A00D851E12A2800D15EE1C4
:105200000F000131ACE70A9BA1469B46CA4503D873
:1052100001235B425344994653464A46594600206F
:105220000B9DA847200023B0F0BCBB46B246A94660
:10523000A046F0BD0300693BDBB20F2B00D962E74B
:10524000012199408846734A11408B46110042461D
:105250000A4200D013E10A2B2FD0072B00D052E7CF
:105260000C9D01CD002800D134E121231E43B0461E
:105270001F260D9A12ABF618A146944659463400E3
:1052800002E0000920290AD00F26064032003732FA
:10529000092E00D8073A013162540F28F1D863462D
:1052A0004C468B460D9322E10C9B20CB002D52DB0C
:1052B00078780C930F0001314EE70C9B0D9904CBCD
:1052C00090469B46002900D128E143461878414486
:1052D000002801D100F029FC0D9A94460A0004E050
:1052E00059780133002900D195E19A42F8D16346FB
:1052F0000D934346D31A0F93730500D46CE10F9BB3
:105300000D9A934200D90F9202231A0032400C9258
:10531000334200D191E20C930D9BB9461E194346CE
:105320001B1BA84622001F000B9D08E0541C53467F
:105330000A99A847385D002800D163E1220096420F
:10534000F4D145464F4634000C9B002B00D097E12A
:105350005B460C93DDE60222787816430F006D421F
:105360000C930131F8E678786C2800D159E180235C
:105370005B001E43013114E780239B0078781E43B5
:1053800001310EE77878682800D150E1802301319F
:105390001E4306E7672800D1C2E0472800D134E168
:1053A000452800D134E107210C9B0D9A07338B432C
:1053B00019000496039502920CC90B980092019370
:1053C0000C91220053460A99FFF7CCFB0400A0E69B
:1053D000462800D1A8E007210C9B0D9A07338B4388
:1053E00019000496039502920CC90B980092019340
:1053F0000C91220053460A99FFF77AF9040088E6D7
:10540000C5500010601E0020F8C800103CC90010F4
:1054100088C90010419000002200534625200A99B7
:105420000B9DA847013474E60C9B04339B46631C18
:105430009846B60700D4FFE00C9B220018780A9922
:1054400053460B9EB0476419012D00D849E24546EA
:105450000B9EB8460A9F2A0053460135390020208A
:10546000B047A542F7D1474672E7DB4B38780B933C
:1054700000239946002800D03DE60024C6E66F28A8
:1054800055D000D8BCE21023782800D19EE09E437E
:105490000A239C4600230F930A339B464DE00021CC
:1054A0008A0052185200013311181878303902005E
:1054B000303A092AF4D90D911F00591C50E60C9B73
:1054C000B87804CB0237D143C9170A400D920C9328
:1054D000791C45E61023300098431133184380238C
:1054E00080463000DB0018401E4200D1C0E6434633
:1054F0000693082305930D9B220004931023039326
:10550000002302935B4601931AAB00930A9953461A
:105510000B98FEF7F1FF0C950400FAE50139D4E68B
:1055200080231B011E433EE720231E4353E708232D
:105530009C4600230F9308339B4680233000DB00FA
:1055400018401E4200D11AE10D23310099438023F7
:105550000A009B001A409146194200D0C3E1802303
:105560000A005B001A4090460C9A04320F921942CE
:1055700000D08FE24B0600D597E10B0600D4E5E2A0
:105580000C9B1B8899464B46002B00D005E210333C
:105590009943002800D100E2002398460D9B069114
:1055A00004935B4603930023059502934346D9E099
:1055B000582808D0622878D102239C4600230F93F4
:1055C00002339B46B9E720231E43103B9C46002331
:1055D0000F9310339B46B0E702231A0032400C921F
:1055E000334200D105E20C934346B9460B9E0A9F15
:1055F000A8461D1B2200534639000134B047285DE0
:105600000028F7D145464F469EE680231B011E43E6
:1056100020231E43C7E662460D9242469B1A0F9313
:105620006AE6C0239B00B8781E43F91CB9E5C02385
:10563000B8781E43F91CB4E5012D00D84AE1631E79
:105640009946A9444B4652462600A146BA461C003C
:105650001700A8460B9D32003B00013620200A9916
:10566000A847A642F7D13B0057469A464C460C9BAA
:10567000320018780A9953460B9D4444A84767E6C0
:10568000A0460F9B9D4200D862E62C190B9E454612
:10569000B8460A9FE41A2A005346013539002020F3
:1056A000B047A542F7D1474652E680233200DB00DF
:1056B0001A4090461E4200D1F3E011218E43B446B9
:1056C0009846802362469B001A40934662461A42DF
:1056D00059D180235B001A4091460C9A04320F92F4
:1056E00062461A4200D0A0E163465B0600D5D4E0D2
:1056F00063461B0600D412E20C9B00229B5ED81767
:105700001918414089B2DA0F0C92002B00D187E1C1
:1057100088461F2612ABBB461495F71845464E46E1
:10572000E046A14606E028000A21FEF7ADFA050092
:10573000202E08D00A212800FEF7A6FA01363031C3
:10574000B955092DEFD84C46C446B1465F46149D65
:10575000634606930D9B059504930A2303930C9BC4
:1057600002934B4601931AAB220000930A995346C9
:105770000B98FEF7C1FE0F9B04000C93C9E40C23A9
:1057800031009943E3E60822072191460C9B073339
:105790008B4399444A460ACB08000C92DA0F934691
:1057A000184300D085E0002399464346002B2FD1B3
:1057B000002200231092119300231F26994612AB5A
:1057C000F6185B461495BB46E04637000F934E46ED
:1057D000A146109C119D05E04D44001004000D00F1
:1057E000202E0CD00A22002320002900FEF78AFA7E
:1057F00001363032BA55002DF0D1092CEED80F9B6E
:10580000109411955F464C46C446B1469B46149D84
:10581000634606930D9B059504930A2303935B4609
:1058200002934B4601931AAB220000930A99534608
:105830000B98FEF761FE04006BE40F9B9D4200D8BD
:1058400096E18023DB000C930F9B2E19F61A43463A
:105850000F930D9BA84699465346BA461F000B9DD1
:1058600022003B00013420200A99A847B442F7D116
:105870000F9B454698464B460D933B0057469A462C
:1058800043461878002800D162E56B1C0F930C9BEF
:10589000002B00D1A8E600233DE50C9B1B781900E6
:1058A00031E710239E43B4460BE70C9B1B789946C7
:1058B00069E6DA17129213924A40109212981399DD
:1058C0000A005A401192109A119B121A8B411092A1
:1058D000119371E70C9B220018780A9953460B9C90
:1058E000A047444634E50822072690460C9B073320
:1058F000B343984442460C921A685B68149208932A
:105900001300089A134305D1103399430023984696
:10591000002838D161208B0600D5412000231F26A6
:1059200098465A4612ABF618030018920F9A0A3B93
:10593000B1461695179419974446664690469B467D
:10594000149F089D159103E007000D00202C13D033
:105950003200002338002900FEF7D4F95B46D2B2AA
:10596000D318092A01D8130030334A46013413559D
:10597000A845E9D1BE42E7D9189BA0469B46159998
:10598000169D179C199F0D9B069104935B460393EC
:10599000002305950293434644E761208B0600D51A
:1059A00041201F2612ABF21803000A3B0C934B4612
:1059B0004646A146A8461C005D461491BB4617000A
:1059C00002E00400202E0DD029002000FEF75CF933
:1059D0000C9BCB18092901D80B0030330136BB557D
:1059E000AC42EED25F464C46AB4614994546B046B3
:1059F000D4E50F9B9D4200D926E701330F93F3E5D1
:105A0000102332009A439446692800D0A2E08023F4
:105A10003200DB001A4090461E4200D151E64CE6AF
:105A20004346002B00D093E673E60C9B1B68DA0F0D
:105A3000002B70D0D9175B184B4098461F2612AB2D
:105A4000F618A14614955C464546BB46E04637002D
:105A50000C9206E028000A21FEF716F90500202C1A
:105A600008D00A212800FEF70FF9013430313955EA
:105A7000092DEFD85F46C446A3464C46149D0C9AA8
:105A8000634606930D9B059504930A2302920393A4
:105A90005B4667E60C9B1B689846002B03D11033CE
:105AA000994300282DD161208B0600D541201F2667
:105AB00012ABF61803000A3B4A460C931491434676
:105AC0003100A846A1465E461400BB461D000F00EB
:105AD00002E00500202C0DD031002800FEF7D4F89C
